{
  "_format": "hh-sol-artifact-1",
  "contractName": "TpayPair",
  "sourceName": "contracts/TpayPair.sol",
  "abi": [
    {
      "inputs": [
        {
          "internalType": "address",
          "name": "spender",
          "type": "address"
        },
        {
          "internalType": "uint256",
          "name": "allowance",
          "type": "uint256"
        },
        {
          "internalType": "uint256",
          "name": "needed",
          "type": "uint256"
        }
      ],
      "name": "ERC20InsufficientAllowance",
      "type": "error"
    },
    {
      "inputs": [
        {
          "internalType": "address",
          "name": "sender",
          "type": "address"
        },
        {
          "internalType": "uint256",
          "name": "balance",
          "type": "uint256"
        },
        {
          "internalType": "uint256",
          "name": "needed",
          "type": "uint256"
        }
      ],
      "name": "ERC20InsufficientBalance",
      "type": "error"
    },
    {
      "inputs": [
        {
          "internalType": "address",
          "name": "approver",
          "type": "address"
        }
      ],
      "name": "ERC20InvalidApprover",
      "type": "error"
    },
    {
      "inputs": [
        {
          "internalType": "address",
          "name": "receiver",
          "type": "address"
        }
      ],
      "name": "ERC20InvalidReceiver",
      "type": "error"
    },
    {
      "inputs": [
        {
          "internalType": "address",
          "name": "sender",
          "type": "address"
        }
      ],
      "name": "ERC20InvalidSender",
      "type": "error"
    },
    {
      "inputs": [
        {
          "internalType": "address",
          "name": "spender",
          "type": "address"
        }
      ],
      "name": "ERC20InvalidSpender",
      "type": "error"
    },
    {
      "anonymous": false,
      "inputs": [
        {
          "indexed": true,
          "internalType": "address",
          "name": "owner",
          "type": "address"
        },
        {
          "indexed": true,
          "internalType": "address",
          "name": "spender",
          "type": "address"
        },
        {
          "indexed": false,
          "internalType": "uint256",
          "name": "value",
          "type": "uint256"
        }
      ],
      "name": "Approval",
      "type": "event"
    },
    {
      "anonymous": false,
      "inputs": [
        {
          "indexed": true,
          "internalType": "address",
          "name": "from",
          "type": "address"
        },
        {
          "indexed": true,
          "internalType": "address",
          "name": "to",
          "type": "address"
        },
        {
          "indexed": false,
          "internalType": "uint256",
          "name": "value",
          "type": "uint256"
        }
      ],
      "name": "Transfer",
      "type": "event"
    },
    {
      "inputs": [
        {
          "internalType": "uint256",
          "name": "amount0",
          "type": "uint256"
        },
        {
          "internalType": "uint256",
          "name": "amount1",
          "type": "uint256"
        },
        {
          "internalType": "address",
          "name": "to",
          "type": "address"
        }
      ],
      "name": "addLiquidity",
      "outputs": [],
      "stateMutability": "nonpayable",
      "type": "function"
    },
    {
      "inputs": [
        {
          "internalType": "address",
          "name": "owner",
          "type": "address"
        },
        {
          "internalType": "address",
          "name": "spender",
          "type": "address"
        }
      ],
      "name": "allowance",
      "outputs": [
        {
          "internalType": "uint256",
          "name": "",
          "type": "uint256"
        }
      ],
      "stateMutability": "view",
      "type": "function"
    },
    {
      "inputs": [
        {
          "internalType": "address",
          "name": "spender",
          "type": "address"
        },
        {
          "internalType": "uint256",
          "name": "value",
          "type": "uint256"
        }
      ],
      "name": "approve",
      "outputs": [
        {
          "internalType": "bool",
          "name": "",
          "type": "bool"
        }
      ],
      "stateMutability": "nonpayable",
      "type": "function"
    },
    {
      "inputs": [
        {
          "internalType": "address",
          "name": "account",
          "type": "address"
        }
      ],
      "name": "balanceOf",
      "outputs": [
        {
          "internalType": "uint256",
          "name": "",
          "type": "uint256"
        }
      ],
      "stateMutability": "view",
      "type": "function"
    },
    {
      "inputs": [],
      "name": "decimals",
      "outputs": [
        {
          "internalType": "uint8",
          "name": "",
          "type": "uint8"
        }
      ],
      "stateMutability": "view",
      "type": "function"
    },
    {
      "inputs": [
        {
          "internalType": "address",
          "name": "_token0",
          "type": "address"
        },
        {
          "internalType": "address",
          "name": "_token1",
          "type": "address"
        }
      ],
      "name": "initialize",
      "outputs": [],
      "stateMutability": "nonpayable",
      "type": "function"
    },
    {
      "inputs": [],
      "name": "name",
      "outputs": [
        {
          "internalType": "string",
          "name": "",
          "type": "string"
        }
      ],
      "stateMutability": "view",
      "type": "function"
    },
    {
      "inputs": [
        {
          "internalType": "uint256",
          "name": "amountOut0",
          "type": "uint256"
        },
        {
          "internalType": "uint256",
          "name": "amountOut1",
          "type": "uint256"
        },
        {
          "internalType": "address",
          "name": "to",
          "type": "address"
        }
      ],
      "name": "swap",
      "outputs": [],
      "stateMutability": "nonpayable",
      "type": "function"
    },
    {
      "inputs": [],
      "name": "symbol",
      "outputs": [
        {
          "internalType": "string",
          "name": "",
          "type": "string"
        }
      ],
      "stateMutability": "view",
      "type": "function"
    },
    {
      "inputs": [],
      "name": "token0",
      "outputs": [
        {
          "internalType": "address",
          "name": "",
          "type": "address"
        }
      ],
      "stateMutability": "view",
      "type": "function"
    },
    {
      "inputs": [],
      "name": "token1",
      "outputs": [
        {
          "internalType": "address",
          "name": "",
          "type": "address"
        }
      ],
      "stateMutability": "view",
      "type": "function"
    },
    {
      "inputs": [],
      "name": "totalSupply",
      "outputs": [
        {
          "internalType": "uint256",
          "name": "",
          "type": "uint256"
        }
      ],
      "stateMutability": "view",
      "type": "function"
    },
    {
      "inputs": [
        {
          "internalType": "address",
          "name": "to",
          "type": "address"
        },
        {
          "internalType": "uint256",
          "name": "value",
          "type": "uint256"
        }
      ],
      "name": "transfer",
      "outputs": [
        {
          "internalType": "bool",
          "name": "",
          "type": "bool"
        }
      ],
      "stateMutability": "nonpayable",
      "type": "function"
    },
    {
      "inputs": [
        {
          "internalType": "address",
          "name": "from",
          "type": "address"
        },
        {
          "internalType": "address",
          "name": "to",
          "type": "address"
        },
        {
          "internalType": "uint256",
          "name": "value",
          "type": "uint256"
        }
      ],
      "name": "transferFrom",
      "outputs": [
        {
          "internalType": "bool",
          "name": "",
          "type": "bool"
        }
      ],
      "stateMutability": "nonpayable",
      "type": "function"
    }
  ],
  "bytecode": "0x60806040523480156200001157600080fd5b506040518060400160405280600d81526020017f54706179204c5020546f6b656e000000000000000000000000000000000000008152506040518060400160405280600381526020017f544c50000000000000000000000000000000000000000000000000000000000081525081600390816200008f919062000324565b508060049081620000a1919062000324565b5050506200040b565b600081519050919050565b7f4e487b7100000000000000000000000000000000000000000000000000000000600052604160045260246000fd5b7f4e487b7100000000000000000000000000000000000000000000000000000000600052602260045260246000fd5b600060028204905060018216806200012c57607f821691505b602082108103620001425762000141620000e4565b5b50919050565b60008190508160005260206000209050919050565b60006020601f8301049050919050565b600082821b905092915050565b600060088302620001ac7fffffffffffffffffffffffffffffffffffffffffffffffffffffffffffffffff826200016d565b620001b886836200016d565b95508019841693508086168417925050509392505050565b6000819050919050565b6000819050919050565b600062000205620001ff620001f984620001d0565b620001da565b620001d0565b9050919050565b6000819050919050565b6200022183620001e4565b6200023962000230826200020c565b8484546200017a565b825550505050565b600090565b6200025062000241565b6200025d81848462000216565b505050565b5b8181101562000285576200027960008262000246565b60018101905062000263565b5050565b601f821115620002d4576200029e8162000148565b620002a9846200015d565b81016020851015620002b9578190505b620002d1620002c8856200015d565b83018262000262565b50505b505050565b600082821c905092915050565b6000620002f960001984600802620002d9565b1980831691505092915050565b6000620003148383620002e6565b9150826002028217905092915050565b6200032f82620000aa565b67ffffffffffffffff8111156200034b576200034a620000b5565b5b62000357825462000113565b6200036482828562000289565b600060209050601f8311600181146200039c576000841562000387578287015190505b62000393858262000306565b86555062000403565b601f198416620003ac8662000148565b60005b82811015620003d657848901518255600182019150602085019450602081019050620003af565b86831015620003f65784890151620003f2601f891682620002e6565b8355505b6001600288020188555050505b505050505050565b611bae806200041b6000396000f3fe608060405234801561001057600080fd5b50600436106100ea5760003560e01c80636d9a640a1161008c57806395d89b411161006657806395d89b411461024b578063a9059cbb14610269578063d21220a714610299578063dd62ed3e146102b7576100ea565b80636d9a640a146101e357806370a08231146101ff57806387b21efc1461022f576100ea565b806318160ddd116100c857806318160ddd1461015b57806323b872dd14610179578063313ce567146101a9578063485cc955146101c7576100ea565b806306fdde03146100ef578063095ea7b31461010d5780630dfe16811461013d575b600080fd5b6100f76102e7565b6040516101049190611472565b60405180910390f35b6101276004803603810190610122919061152d565b610379565b6040516101349190611588565b60405180910390f35b61014561039c565b60405161015291906115b2565b60405180910390f35b6101636103c2565b60405161017091906115dc565b60405180910390f35b610193600480360381019061018e91906115f7565b6103cc565b6040516101a09190611588565b60405180910390f35b6101b16103fb565b6040516101be9190611666565b60405180910390f35b6101e160048036038101906101dc9190611681565b610404565b005b6101fd60048036038101906101f891906116c1565b610575565b005b61021960048036038101906102149190611714565b61097b565b60405161022691906115dc565b60405180910390f35b610249600480360381019061024491906116c1565b6109c3565b005b610253610be5565b6040516102609190611472565b60405180910390f35b610283600480360381019061027e919061152d565b610c77565b6040516102909190611588565b60405180910390f35b6102a1610c9a565b6040516102ae91906115b2565b60405180910390f35b6102d160048036038101906102cc9190611681565b610cc0565b6040516102de91906115dc565b60405180910390f35b6060600380546102f690611770565b80601f016020809104026020016040519081016040528092919081815260200182805461032290611770565b801561036f5780601f106103445761010080835404028352916020019161036f565b820191906000526020600020905b81548152906001019060200180831161035257829003601f168201915b5050505050905090565b600080610384610d47565b9050610391818585610d4f565b600191505092915050565b600560009054906101000a900473ffffffffffffffffffffffffffffffffffffffff1681565b6000600254905090565b6000806103d7610d47565b90506103e4858285610d61565b6103ef858585610df6565b60019150509392505050565b60006012905090565b600073ffffffffffffffffffffffffffffffffffffffff16600560009054906101000a900473ffffffffffffffffffffffffffffffffffffffff1673ffffffffffffffffffffffffffffffffffffffff161480156104b05750600073ffffffffffffffffffffffffffffffffffffffff16600660009054906101000a900473ffffffffffffffffffffffffffffffffffffffff1673ffffffffffffffffffffffffffffffffffffffff16145b6104ef576040517f08c379a00000000000000000000000000000000000000000000000000000000081526004016104e6906117ed565b60405180910390fd5b81600560006101000a81548173ffffffffffffffffffffffffffffffffffffffff021916908373ffffffffffffffffffffffffffffffffffffffff16021790555080600660006101000a81548173ffffffffffffffffffffffffffffffffffffffff021916908373ffffffffffffffffffffffffffffffffffffffff1602179055505050565b60008311806105845750600082115b6105c3576040517f08c379a00000000000000000000000000000000000000000000000000000000081526004016105ba90611859565b60405180910390fd5b600083111561066e57600560009054906101000a900473ffffffffffffffffffffffffffffffffffffffff1673ffffffffffffffffffffffffffffffffffffffff1663a9059cbb82856040518363ffffffff1660e01b8152600401610629929190611879565b6020604051808303816000875af1158015610648573d6000803e3d6000fd5b505050506040513d601f19601f8201168201806040525081019061066c91906118ce565b505b600082111561071957600660009054906101000a900473ffffffffffffffffffffffffffffffffffffffff1673ffffffffffffffffffffffffffffffffffffffff1663a9059cbb82846040518363ffffffff1660e01b81526004016106d4929190611879565b6020604051808303816000875af11580156106f3573d6000803e3d6000fd5b505050506040513d601f19601f8201168201806040525081019061071791906118ce565b505b6000600560009054906101000a900473ffffffffffffffffffffffffffffffffffffffff1673ffffffffffffffffffffffffffffffffffffffff166370a08231306040518263ffffffff1660e01b815260040161077691906115b2565b602060405180830381865afa158015610793573d6000803e3d6000fd5b505050506040513d601f19601f820116820180604052508101906107b79190611910565b90506000600660009054906101000a900473ffffffffffffffffffffffffffffffffffffffff1673ffffffffffffffffffffffffffffffffffffffff166370a08231306040518263ffffffff1660e01b815260040161081691906115b2565b602060405180830381865afa158015610833573d6000803e3d6000fd5b505050506040513d601f19601f820116820180604052508101906108579190611910565b90506007600e9054906101000a90046dffffffffffffffffffffffffffff166dffffffffffffffffffffffffffff16600760009054906101000a90046dffffffffffffffffffffffffffff166dffffffffffffffffffffffffffff166108bd919061196c565b81836108c9919061196c565b101561090a576040517f08c379a0000000000000000000000000000000000000000000000000000000008152600401610901906119fa565b60405180910390fd5b81600760006101000a8154816dffffffffffffffffffffffffffff02191690836dffffffffffffffffffffffffffff160217905550806007600e6101000a8154816dffffffffffffffffffffffffffff02191690836dffffffffffffffffffffffffffff1602179055505050505050565b60008060008373ffffffffffffffffffffffffffffffffffffffff1673ffffffffffffffffffffffffffffffffffffffff168152602001908152602001600020549050919050565b600560009054906101000a900473ffffffffffffffffffffffffffffffffffffffff1673ffffffffffffffffffffffffffffffffffffffff166323b872dd3330866040518463ffffffff1660e01b8152600401610a2293929190611a1a565b6020604051808303816000875af1158015610a41573d6000803e3d6000fd5b505050506040513d601f19601f82011682018060405250810190610a6591906118ce565b50600660009054906101000a900473ffffffffffffffffffffffffffffffffffffffff1673ffffffffffffffffffffffffffffffffffffffff166323b872dd3330856040518463ffffffff1660e01b8152600401610ac593929190611a1a565b6020604051808303816000875af1158015610ae4573d6000803e3d6000fd5b505050506040513d601f19601f82011682018060405250810190610b0891906118ce565b50610b2681610b218486610b1c919061196c565b610eea565b610f64565b82600760008282829054906101000a90046dffffffffffffffffffffffffffff16610b519190611a6b565b92506101000a8154816dffffffffffffffffffffffffffff02191690836dffffffffffffffffffffffffffff160217905550816007600e8282829054906101000a90046dffffffffffffffffffffffffffff16610bae9190611a6b565b92506101000a8154816dffffffffffffffffffffffffffff02191690836dffffffffffffffffffffffffffff160217905550505050565b606060048054610bf490611770565b80601f0160208091040260200160405190810160405280929190818152602001828054610c2090611770565b8015610c6d5780601f10610c4257610100808354040283529160200191610c6d565b820191906000526020600020905b815481529060010190602001808311610c5057829003601f168201915b5050505050905090565b600080610c82610d47565b9050610c8f818585610df6565b600191505092915050565b600660009054906101000a900473ffffffffffffffffffffffffffffffffffffffff1681565b6000600160008473ffffffffffffffffffffffffffffffffffffffff1673ffffffffffffffffffffffffffffffffffffffff16815260200190815260200160002060008373ffffffffffffffffffffffffffffffffffffffff1673ffffffffffffffffffffffffffffffffffffffff16815260200190815260200160002054905092915050565b600033905090565b610d5c8383836001610fe6565b505050565b6000610d6d8484610cc0565b90507fffffffffffffffffffffffffffffffffffffffffffffffffffffffffffffffff811015610df05781811015610de0578281836040517ffb8f41b2000000000000000000000000000000000000000000000000000000008152600401610dd793929190611aad565b60405180910390fd5b610def84848484036000610fe6565b5b50505050565b600073ffffffffffffffffffffffffffffffffffffffff168373ffffffffffffffffffffffffffffffffffffffff1603610e685760006040517f96c6fd1e000000000000000000000000000000000000000000000000000000008152600401610e5f91906115b2565b60405180910390fd5b600073ffffffffffffffffffffffffffffffffffffffff168273ffffffffffffffffffffffffffffffffffffffff1603610eda5760006040517fec442f05000000000000000000000000000000000000000000000000000000008152600401610ed191906115b2565b60405180910390fd5b610ee58383836111bd565b505050565b60006003821115610f515781905060006001600284610f099190611b13565b610f139190611b44565b90505b81811015610f4b578091506002818285610f309190611b13565b610f3a9190611b44565b610f449190611b13565b9050610f16565b50610f5f565b60008214610f5e57600190505b5b919050565b600073ffffffffffffffffffffffffffffffffffffffff168273ffffffffffffffffffffffffffffffffffffffff1603610fd65760006040517fec442f05000000000000000000000000000000000000000000000000000000008152600401610fcd91906115b2565b60405180910390fd5b610fe2600083836111bd565b5050565b600073ffffffffffffffffffffffffffffffffffffffff168473ffffffffffffffffffffffffffffffffffffffff16036110585760006040517fe602df0500000000000000000000000000000000000000000000000000000000815260040161104f91906115b2565b60405180910390fd5b600073ffffffffffffffffffffffffffffffffffffffff168373ffffffffffffffffffffffffffffffffffffffff16036110ca5760006040517f94280d620000000000000000000000000000000000000000000000000000000081526004016110c191906115b2565b60405180910390fd5b81600160008673ffffffffffffffffffffffffffffffffffffffff1673ffffffffffffffffffffffffffffffffffffffff16815260200190815260200160002060008573ffffffffffffffffffffffffffffffffffffffff1673ffffffffffffffffffffffffffffffffffffffff1681526020019081526020016000208190555080156111b7578273ffffffffffffffffffffffffffffffffffffffff168473ffffffffffffffffffffffffffffffffffffffff167f8c5be1e5ebec7d5bd14f71427d1e84f3dd0314c0f7b2291e5b200ac8c7c3b925846040516111ae91906115dc565b60405180910390a35b50505050565b600073ffffffffffffffffffffffffffffffffffffffff168373ffffffffffffffffffffffffffffffffffffffff160361120f5780600260008282546112039190611b44565b925050819055506112e2565b60008060008573ffffffffffffffffffffffffffffffffffffffff1673ffffffffffffffffffffffffffffffffffffffff1681526020019081526020016000205490508181101561129b578381836040517fe450d38c00000000000000000000000000000000000000000000000000000000815260040161129293929190611aad565b60405180910390fd5b8181036000808673ffffffffffffffffffffffffffffffffffffffff1673ffffffffffffffffffffffffffffffffffffffff16815260200190815260200160002081905550505b600073ffffffffffffffffffffffffffffffffffffffff168273ffffffffffffffffffffffffffffffffffffffff160361132b5780600260008282540392505081905550611378565b806000808473ffffffffffffffffffffffffffffffffffffffff1673ffffffffffffffffffffffffffffffffffffffff168152602001908152602001600020600082825401925050819055505b8173ffffffffffffffffffffffffffffffffffffffff168373ffffffffffffffffffffffffffffffffffffffff167fddf252ad1be2c89b69c2b068fc378daa952ba7f163c4a11628f55a4df523b3ef836040516113d591906115dc565b60405180910390a3505050565b600081519050919050565b600082825260208201905092915050565b60005b8381101561141c578082015181840152602081019050611401565b60008484015250505050565b6000601f19601f8301169050919050565b6000611444826113e2565b61144e81856113ed565b935061145e8185602086016113fe565b61146781611428565b840191505092915050565b6000602082019050818103600083015261148c8184611439565b905092915050565b600080fd5b600073ffffffffffffffffffffffffffffffffffffffff82169050919050565b60006114c482611499565b9050919050565b6114d4816114b9565b81146114df57600080fd5b50565b6000813590506114f1816114cb565b92915050565b6000819050919050565b61150a816114f7565b811461151557600080fd5b50565b60008135905061152781611501565b92915050565b6000806040838503121561154457611543611494565b5b6000611552858286016114e2565b925050602061156385828601611518565b9150509250929050565b60008115159050919050565b6115828161156d565b82525050565b600060208201905061159d6000830184611579565b92915050565b6115ac816114b9565b82525050565b60006020820190506115c760008301846115a3565b92915050565b6115d6816114f7565b82525050565b60006020820190506115f160008301846115cd565b92915050565b6000806000606084860312156116105761160f611494565b5b600061161e868287016114e2565b935050602061162f868287016114e2565b925050604061164086828701611518565b9150509250925092565b600060ff82169050919050565b6116608161164a565b82525050565b600060208201905061167b6000830184611657565b92915050565b6000806040838503121561169857611697611494565b5b60006116a6858286016114e2565b92505060206116b7858286016114e2565b9150509250929050565b6000806000606084860312156116da576116d9611494565b5b60006116e886828701611518565b93505060206116f986828701611518565b925050604061170a868287016114e2565b9150509250925092565b60006020828403121561172a57611729611494565b5b6000611738848285016114e2565b91505092915050565b7f4e487b7100000000000000000000000000000000000000000000000000000000600052602260045260246000fd5b6000600282049050600182168061178857607f821691505b60208210810361179b5761179a611741565b5b50919050565b7f416c726561647920696e697469616c697a656400000000000000000000000000600082015250565b60006117d76013836113ed565b91506117e2826117a1565b602082019050919050565b60006020820190508181036000830152611806816117ca565b9050919050565b7f496e73756666696369656e74206f757470757400000000000000000000000000600082015250565b60006118436013836113ed565b915061184e8261180d565b602082019050919050565b6000602082019050818103600083015261187281611836565b9050919050565b600060408201905061188e60008301856115a3565b61189b60208301846115cd565b9392505050565b6118ab8161156d565b81146118b657600080fd5b50565b6000815190506118c8816118a2565b92915050565b6000602082840312156118e4576118e3611494565b5b60006118f2848285016118b9565b91505092915050565b60008151905061190a81611501565b92915050565b60006020828403121561192657611925611494565b5b6000611934848285016118fb565b91505092915050565b7f4e487b7100000000000000000000000000000000000000000000000000000000600052601160045260246000fd5b6000611977826114f7565b9150611982836114f7565b9250828202611990816114f7565b915082820484148315176119a7576119a661193d565b5b5092915050565b7f496e76617269616e742076696f6c6174696f6e00000000000000000000000000600082015250565b60006119e46013836113ed565b91506119ef826119ae565b602082019050919050565b60006020820190508181036000830152611a13816119d7565b9050919050565b6000606082019050611a2f60008301866115a3565b611a3c60208301856115a3565b611a4960408301846115cd565b949350505050565b60006dffffffffffffffffffffffffffff82169050919050565b6000611a7682611a51565b9150611a8183611a51565b925082820190506dffffffffffffffffffffffffffff811115611aa757611aa661193d565b5b92915050565b6000606082019050611ac260008301866115a3565b611acf60208301856115cd565b611adc60408301846115cd565b949350505050565b7f4e487b7100000000000000000000000000000000000000000000000000000000600052601260045260246000fd5b6000611b1e826114f7565b9150611b29836114f7565b925082611b3957611b38611ae4565b5b828204905092915050565b6000611b4f826114f7565b9150611b5a836114f7565b9250828201905080821115611b7257611b7161193d565b5b9291505056fea26469706673582212207989ce49ba53c941e8804232e821747de434998cf17bffcc2846bb76bb6fd3f964736f6c63430008140033",
  "linkReferences": {},
  "deployedLinkReferences": {}
}