{
  "_format": "hh-sol-artifact-1",
  "contractName": "TpayToken",
  "sourceName": "contracts/TpayTokenAndIncentives.sol",
  "abi": [
    {
      "inputs": [
        {
          "internalType": "address",
          "name": "initialOwner",
          "type": "address"
        },
        {
          "internalType": "address",
          "name": "teamWallet",
          "type": "address"
        },
        {
          "internalType": "address",
          "name": "marketingWallet",
          "type": "address"
        }
      ],
      "stateMutability": "nonpayable",
      "type": "constructor"
    },
    {
      "inputs": [
        {
          "internalType": "address",
          "name": "spender",
          "type": "address"
        },
        {
          "internalType": "uint256",
          "name": "allowance",
          "type": "uint256"
        },
        {
          "internalType": "uint256",
          "name": "needed",
          "type": "uint256"
        }
      ],
      "name": "ERC20InsufficientAllowance",
      "type": "error"
    },
    {
      "inputs": [
        {
          "internalType": "address",
          "name": "sender",
          "type": "address"
        },
        {
          "internalType": "uint256",
          "name": "balance",
          "type": "uint256"
        },
        {
          "internalType": "uint256",
          "name": "needed",
          "type": "uint256"
        }
      ],
      "name": "ERC20InsufficientBalance",
      "type": "error"
    },
    {
      "inputs": [
        {
          "internalType": "address",
          "name": "approver",
          "type": "address"
        }
      ],
      "name": "ERC20InvalidApprover",
      "type": "error"
    },
    {
      "inputs": [
        {
          "internalType": "address",
          "name": "receiver",
          "type": "address"
        }
      ],
      "name": "ERC20InvalidReceiver",
      "type": "error"
    },
    {
      "inputs": [
        {
          "internalType": "address",
          "name": "sender",
          "type": "address"
        }
      ],
      "name": "ERC20InvalidSender",
      "type": "error"
    },
    {
      "inputs": [
        {
          "internalType": "address",
          "name": "spender",
          "type": "address"
        }
      ],
      "name": "ERC20InvalidSpender",
      "type": "error"
    },
    {
      "inputs": [
        {
          "internalType": "address",
          "name": "owner",
          "type": "address"
        }
      ],
      "name": "OwnableInvalidOwner",
      "type": "error"
    },
    {
      "inputs": [
        {
          "internalType": "address",
          "name": "account",
          "type": "address"
        }
      ],
      "name": "OwnableUnauthorizedAccount",
      "type": "error"
    },
    {
      "anonymous": false,
      "inputs": [
        {
          "indexed": true,
          "internalType": "address",
          "name": "owner",
          "type": "address"
        },
        {
          "indexed": true,
          "internalType": "address",
          "name": "spender",
          "type": "address"
        },
        {
          "indexed": false,
          "internalType": "uint256",
          "name": "value",
          "type": "uint256"
        }
      ],
      "name": "Approval",
      "type": "event"
    },
    {
      "anonymous": false,
      "inputs": [
        {
          "indexed": true,
          "internalType": "address",
          "name": "previousOwner",
          "type": "address"
        },
        {
          "indexed": true,
          "internalType": "address",
          "name": "newOwner",
          "type": "address"
        }
      ],
      "name": "OwnershipTransferred",
      "type": "event"
    },
    {
      "anonymous": false,
      "inputs": [
        {
          "indexed": true,
          "internalType": "address",
          "name": "from",
          "type": "address"
        },
        {
          "indexed": true,
          "internalType": "address",
          "name": "to",
          "type": "address"
        },
        {
          "indexed": false,
          "internalType": "uint256",
          "name": "value",
          "type": "uint256"
        }
      ],
      "name": "Transfer",
      "type": "event"
    },
    {
      "inputs": [],
      "name": "MAX_SUPPLY",
      "outputs": [
        {
          "internalType": "uint256",
          "name": "",
          "type": "uint256"
        }
      ],
      "stateMutability": "view",
      "type": "function"
    },
    {
      "inputs": [
        {
          "internalType": "address",
          "name": "owner",
          "type": "address"
        },
        {
          "internalType": "address",
          "name": "spender",
          "type": "address"
        }
      ],
      "name": "allowance",
      "outputs": [
        {
          "internalType": "uint256",
          "name": "",
          "type": "uint256"
        }
      ],
      "stateMutability": "view",
      "type": "function"
    },
    {
      "inputs": [
        {
          "internalType": "address",
          "name": "spender",
          "type": "address"
        },
        {
          "internalType": "uint256",
          "name": "value",
          "type": "uint256"
        }
      ],
      "name": "approve",
      "outputs": [
        {
          "internalType": "bool",
          "name": "",
          "type": "bool"
        }
      ],
      "stateMutability": "nonpayable",
      "type": "function"
    },
    {
      "inputs": [
        {
          "internalType": "address",
          "name": "account",
          "type": "address"
        }
      ],
      "name": "balanceOf",
      "outputs": [
        {
          "internalType": "uint256",
          "name": "",
          "type": "uint256"
        }
      ],
      "stateMutability": "view",
      "type": "function"
    },
    {
      "inputs": [],
      "name": "claimVested",
      "outputs": [],
      "stateMutability": "nonpayable",
      "type": "function"
    },
    {
      "inputs": [],
      "name": "decimals",
      "outputs": [
        {
          "internalType": "uint8",
          "name": "",
          "type": "uint8"
        }
      ],
      "stateMutability": "view",
      "type": "function"
    },
    {
      "inputs": [
        {
          "internalType": "address",
          "name": "to",
          "type": "address"
        },
        {
          "internalType": "uint256",
          "name": "amount",
          "type": "uint256"
        }
      ],
      "name": "distributeMiningRewards",
      "outputs": [],
      "stateMutability": "nonpayable",
      "type": "function"
    },
    {
      "inputs": [],
      "name": "name",
      "outputs": [
        {
          "internalType": "string",
          "name": "",
          "type": "string"
        }
      ],
      "stateMutability": "view",
      "type": "function"
    },
    {
      "inputs": [],
      "name": "owner",
      "outputs": [
        {
          "internalType": "address",
          "name": "",
          "type": "address"
        }
      ],
      "stateMutability": "view",
      "type": "function"
    },
    {
      "inputs": [],
      "name": "renounceOwnership",
      "outputs": [],
      "stateMutability": "nonpayable",
      "type": "function"
    },
    {
      "inputs": [],
      "name": "symbol",
      "outputs": [
        {
          "internalType": "string",
          "name": "",
          "type": "string"
        }
      ],
      "stateMutability": "view",
      "type": "function"
    },
    {
      "inputs": [],
      "name": "totalSupply",
      "outputs": [
        {
          "internalType": "uint256",
          "name": "",
          "type": "uint256"
        }
      ],
      "stateMutability": "view",
      "type": "function"
    },
    {
      "inputs": [
        {
          "internalType": "address",
          "name": "to",
          "type": "address"
        },
        {
          "internalType": "uint256",
          "name": "value",
          "type": "uint256"
        }
      ],
      "name": "transfer",
      "outputs": [
        {
          "internalType": "bool",
          "name": "",
          "type": "bool"
        }
      ],
      "stateMutability": "nonpayable",
      "type": "function"
    },
    {
      "inputs": [
        {
          "internalType": "address",
          "name": "from",
          "type": "address"
        },
        {
          "internalType": "address",
          "name": "to",
          "type": "address"
        },
        {
          "internalType": "uint256",
          "name": "value",
          "type": "uint256"
        }
      ],
      "name": "transferFrom",
      "outputs": [
        {
          "internalType": "bool",
          "name": "",
          "type": "bool"
        }
      ],
      "stateMutability": "nonpayable",
      "type": "function"
    },
    {
      "inputs": [
        {
          "internalType": "address",
          "name": "newOwner",
          "type": "address"
        }
      ],
      "name": "transferOwnership",
      "outputs": [],
      "stateMutability": "nonpayable",
      "type": "function"
    },
    {
      "inputs": [
        {
          "internalType": "address",
          "name": "",
          "type": "address"
        }
      ],
      "name": "vestedAmount",
      "outputs": [
        {
          "internalType": "uint256",
          "name": "",
          "type": "uint256"
        }
      ],
      "stateMutability": "view",
      "type": "function"
    },
    {
      "inputs": [
        {
          "internalType": "address",
          "name": "",
          "type": "address"
        }
      ],
      "name": "vestingEnd",
      "outputs": [
        {
          "internalType": "uint256",
          "name": "",
          "type": "uint256"
        }
      ],
      "stateMutability": "view",
      "type": "function"
    }
  ],
  "bytecode": "0x60806040523480156200001157600080fd5b50604051620022db380380620022db83398181016040528101906200003791906200082a565b826040518060400160405280600a81526020017f5470617920546f6b656e000000000000000000000000000000000000000000008152506040518060400160405280600481526020017f54504159000000000000000000000000000000000000000000000000000000008152508160039081620000b5919062000b00565b508060049081620000c7919062000b00565b505050600073ffffffffffffffffffffffffffffffffffffffff168173ffffffffffffffffffffffffffffffffffffffff16036200013f5760006040517f1e4fbdf700000000000000000000000000000000000000000000000000000000815260040162000136919062000bf8565b60405180910390fd5b62000150816200027760201b60201c565b506200016f306b033b2e3c9fd0803ce80000006200033d60201b60201c565b620001aa3082606460146b033b2e3c9fd0803ce800000062000192919062000c44565b6200019e919062000cbe565b620003ca60201b60201c565b620001e53030606460146b033b2e3c9fd0803ce8000000620001cd919062000c44565b620001d9919062000cbe565b620003ca60201b60201c565b6200022f30620001fa620004cc60201b60201c565b6064600a6b033b2e3c9fd0803ce800000062000217919062000c44565b62000223919062000cbe565b620003ca60201b60201c565b6200026e82606460146b033b2e3c9fd0803ce800000062000251919062000c44565b6200025d919062000cbe565b6303c26700620004f660201b60201c565b50505062000d9c565b6000600560009054906101000a900473ffffffffffffffffffffffffffffffffffffffff16905081600560006101000a81548173ffffffffffffffffffffffffffffffffffffffff021916908373ffffffffffffffffffffffffffffffffffffffff1602179055508173ffffffffffffffffffffffffffffffffffffffff168173ffffffffffffffffffffffffffffffffffffffff167f8be0079c531659141344cd1fd0a4f28419497f9722a3daafe3b4186f6b6457e060405160405180910390a35050565b600073ffffffffffffffffffffffffffffffffffffffff168273ffffffffffffffffffffffffffffffffffffffff1603620003b25760006040517fec442f05000000000000000000000000000000000000000000000000000000008152600401620003a9919062000bf8565b60405180910390fd5b620003c6600083836200059060201b60201c565b5050565b600073ffffffffffffffffffffffffffffffffffffffff168373ffffffffffffffffffffffffffffffffffffffff16036200043f5760006040517f96c6fd1e00000000000000000000000000000000000000000000000000000000815260040162000436919062000bf8565b60405180910390fd5b600073ffffffffffffffffffffffffffffffffffffffff168273ffffffffffffffffffffffffffffffffffffffff1603620004b45760006040517fec442f05000000000000000000000000000000000000000000000000000000008152600401620004ab919062000bf8565b60405180910390fd5b620004c78383836200059060201b60201c565b505050565b6000600560009054906101000a900473ffffffffffffffffffffffffffffffffffffffff16905090565b81600660008573ffffffffffffffffffffffffffffffffffffffff1673ffffffffffffffffffffffffffffffffffffffff16815260200190815260200160002081905550804262000548919062000cf6565b600760008573ffffffffffffffffffffffffffffffffffffffff1673ffffffffffffffffffffffffffffffffffffffff16815260200190815260200160002081905550505050565b600073ffffffffffffffffffffffffffffffffffffffff168373ffffffffffffffffffffffffffffffffffffffff1603620005e6578060026000828254620005d9919062000cf6565b92505081905550620006bc565b60008060008573ffffffffffffffffffffffffffffffffffffffff1673ffffffffffffffffffffffffffffffffffffffff1681526020019081526020016000205490508181101562000675578381836040517fe450d38c0000000000000000000000000000000000000000000000000000000081526004016200066c9392919062000d42565b60405180910390fd5b8181036000808673ffffffffffffffffffffffffffffffffffffffff1673ffffffffffffffffffffffffffffffffffffffff16815260200190815260200160002081905550505b600073ffffffffffffffffffffffffffffffffffffffff168273ffffffffffffffffffffffffffffffffffffffff160362000707578060026000828254039250508190555062000754565b806000808473ffffffffffffffffffffffffffffffffffffffff1673ffffffffffffffffffffffffffffffffffffffff168152602001908152602001600020600082825401925050819055505b8173ffffffffffffffffffffffffffffffffffffffff168373ffffffffffffffffffffffffffffffffffffffff167fddf252ad1be2c89b69c2b068fc378daa952ba7f163c4a11628f55a4df523b3ef83604051620007b3919062000d7f565b60405180910390a3505050565b600080fd5b600073ffffffffffffffffffffffffffffffffffffffff82169050919050565b6000620007f282620007c5565b9050919050565b6200080481620007e5565b81146200081057600080fd5b50565b6000815190506200082481620007f9565b92915050565b600080600060608486031215620008465762000845620007c0565b5b6000620008568682870162000813565b9350506020620008698682870162000813565b92505060406200087c8682870162000813565b9150509250925092565b600081519050919050565b7f4e487b7100000000000000000000000000000000000000000000000000000000600052604160045260246000fd5b7f4e487b7100000000000000000000000000000000000000000000000000000000600052602260045260246000fd5b600060028204905060018216806200090857607f821691505b6020821081036200091e576200091d620008c0565b5b50919050565b60008190508160005260206000209050919050565b60006020601f8301049050919050565b600082821b905092915050565b600060088302620009887fffffffffffffffffffffffffffffffffffffffffffffffffffffffffffffffff8262000949565b62000994868362000949565b95508019841693508086168417925050509392505050565b6000819050919050565b6000819050919050565b6000620009e1620009db620009d584620009ac565b620009b6565b620009ac565b9050919050565b6000819050919050565b620009fd83620009c0565b62000a1562000a0c82620009e8565b84845462000956565b825550505050565b600090565b62000a2c62000a1d565b62000a39818484620009f2565b505050565b5b8181101562000a615762000a5560008262000a22565b60018101905062000a3f565b5050565b601f82111562000ab05762000a7a8162000924565b62000a858462000939565b8101602085101562000a95578190505b62000aad62000aa48562000939565b83018262000a3e565b50505b505050565b600082821c905092915050565b600062000ad56000198460080262000ab5565b1980831691505092915050565b600062000af0838362000ac2565b9150826002028217905092915050565b62000b0b8262000886565b67ffffffffffffffff81111562000b275762000b2662000891565b5b62000b338254620008ef565b62000b4082828562000a65565b600060209050601f83116001811462000b78576000841562000b63578287015190505b62000b6f858262000ae2565b86555062000bdf565b601f19841662000b888662000924565b60005b8281101562000bb25784890151825560018201915060208501945060208101905062000b8b565b8683101562000bd2578489015162000bce601f89168262000ac2565b8355505b6001600288020188555050505b505050505050565b62000bf281620007e5565b82525050565b600060208201905062000c0f600083018462000be7565b92915050565b7f4e487b7100000000000000000000000000000000000000000000000000000000600052601160045260246000fd5b600062000c5182620009ac565b915062000c5e83620009ac565b925082820262000c6e81620009ac565b9150828204841483151762000c885762000c8762000c15565b5b5092915050565b7f4e487b7100000000000000000000000000000000000000000000000000000000600052601260045260246000fd5b600062000ccb82620009ac565b915062000cd883620009ac565b92508262000ceb5762000cea62000c8f565b5b828204905092915050565b600062000d0382620009ac565b915062000d1083620009ac565b925082820190508082111562000d2b5762000d2a62000c15565b5b92915050565b62000d3c81620009ac565b82525050565b600060608201905062000d59600083018662000be7565b62000d68602083018562000d31565b62000d77604083018462000d31565b949350505050565b600060208201905062000d96600083018462000d31565b92915050565b61152f8062000dac6000396000f3fe608060405234801561001057600080fd5b506004361061010b5760003560e01c806370a08231116100a25780639ac9c23a116100715780639ac9c23a146102be578063a9059cbb146102da578063d01c44cd1461030a578063dd62ed3e14610314578063f2fde38b146103445761010b565b806370a0823114610248578063715018a6146102785780638da5cb5b1461028257806395d89b41146102a05761010b565b80632a918c3d116100de5780632a918c3d146101ac578063313ce567146101dc57806332cb6b0c146101fa578063384711cc146102185761010b565b806306fdde0314610110578063095ea7b31461012e57806318160ddd1461015e57806323b872dd1461017c575b600080fd5b610118610360565b6040516101259190611019565b60405180910390f35b610148600480360381019061014391906110d4565b6103f2565b604051610155919061112f565b60405180910390f35b610166610415565b6040516101739190611159565b60405180910390f35b61019660048036038101906101919190611174565b61041f565b6040516101a3919061112f565b60405180910390f35b6101c660048036038101906101c191906111c7565b61044e565b6040516101d39190611159565b60405180910390f35b6101e4610466565b6040516101f19190611210565b60405180910390f35b61020261046f565b60405161020f9190611159565b60405180910390f35b610232600480360381019061022d91906111c7565b61047f565b60405161023f9190611159565b60405180910390f35b610262600480360381019061025d91906111c7565b610497565b60405161026f9190611159565b60405180910390f35b6102806104df565b005b61028a6104f3565b604051610297919061123a565b60405180910390f35b6102a861051d565b6040516102b59190611019565b60405180910390f35b6102d860048036038101906102d391906110d4565b6105af565b005b6102f460048036038101906102ef91906110d4565b610611565b604051610301919061112f565b60405180910390f35b610312610634565b005b61032e60048036038101906103299190611255565b610790565b60405161033b9190611159565b60405180910390f35b61035e600480360381019061035991906111c7565b610817565b005b60606003805461036f906112c4565b80601f016020809104026020016040519081016040528092919081815260200182805461039b906112c4565b80156103e85780601f106103bd576101008083540402835291602001916103e8565b820191906000526020600020905b8154815290600101906020018083116103cb57829003601f168201915b5050505050905090565b6000806103fd61089d565b905061040a8185856108a5565b600191505092915050565b6000600254905090565b60008061042a61089d565b90506104378582856108b7565b61044285858561094c565b60019150509392505050565b60076020528060005260406000206000915090505481565b60006012905090565b6b033b2e3c9fd0803ce800000081565b60066020528060005260406000206000915090505481565b60008060008373ffffffffffffffffffffffffffffffffffffffff1673ffffffffffffffffffffffffffffffffffffffff168152602001908152602001600020549050919050565b6104e7610a40565b6104f16000610ac7565b565b6000600560009054906101000a900473ffffffffffffffffffffffffffffffffffffffff16905090565b60606004805461052c906112c4565b80601f0160208091040260200160405190810160405280929190818152602001828054610558906112c4565b80156105a55780601f1061057a576101008083540402835291602001916105a5565b820191906000526020600020905b81548152906001019060200180831161058857829003601f168201915b5050505050905090565b6105b7610a40565b806105c130610497565b1015610602576040517f08c379a00000000000000000000000000000000000000000000000000000000081526004016105f990611367565b60405180910390fd5b61060d30838361094c565b5050565b60008061061c61089d565b905061062981858561094c565b600191505092915050565b600760003373ffffffffffffffffffffffffffffffffffffffff1673ffffffffffffffffffffffffffffffffffffffff168152602001908152602001600020544210156106b6576040517f08c379a00000000000000000000000000000000000000000000000000000000081526004016106ad906113d3565b60405180910390fd5b6000600660003373ffffffffffffffffffffffffffffffffffffffff1673ffffffffffffffffffffffffffffffffffffffff1681526020019081526020016000205490506000811161073d576040517f08c379a00000000000000000000000000000000000000000000000000000000081526004016107349061143f565b60405180910390fd5b6000600660003373ffffffffffffffffffffffffffffffffffffffff1673ffffffffffffffffffffffffffffffffffffffff1681526020019081526020016000208190555061078d30338361094c565b50565b6000600160008473ffffffffffffffffffffffffffffffffffffffff1673ffffffffffffffffffffffffffffffffffffffff16815260200190815260200160002060008373ffffffffffffffffffffffffffffffffffffffff1673ffffffffffffffffffffffffffffffffffffffff16815260200190815260200160002054905092915050565b61081f610a40565b600073ffffffffffffffffffffffffffffffffffffffff168173ffffffffffffffffffffffffffffffffffffffff16036108915760006040517f1e4fbdf7000000000000000000000000000000000000000000000000000000008152600401610888919061123a565b60405180910390fd5b61089a81610ac7565b50565b600033905090565b6108b28383836001610b8d565b505050565b60006108c38484610790565b90507fffffffffffffffffffffffffffffffffffffffffffffffffffffffffffffffff8110156109465781811015610936578281836040517ffb8f41b200000000000000000000000000000000000000000000000000000000815260040161092d9392919061145f565b60405180910390fd5b61094584848484036000610b8d565b5b50505050565b600073ffffffffffffffffffffffffffffffffffffffff168373ffffffffffffffffffffffffffffffffffffffff16036109be5760006040517f96c6fd1e0000000000000000000000000000000000000000000000000000000081526004016109b5919061123a565b60405180910390fd5b600073ffffffffffffffffffffffffffffffffffffffff168273ffffffffffffffffffffffffffffffffffffffff1603610a305760006040517fec442f05000000000000000000000000000000000000000000000000000000008152600401610a27919061123a565b60405180910390fd5b610a3b838383610d64565b505050565b610a4861089d565b73ffffffffffffffffffffffffffffffffffffffff16610a666104f3565b73ffffffffffffffffffffffffffffffffffffffff1614610ac557610a8961089d565b6040517f118cdaa7000000000000000000000000000000000000000000000000000000008152600401610abc919061123a565b60405180910390fd5b565b6000600560009054906101000a900473ffffffffffffffffffffffffffffffffffffffff16905081600560006101000a81548173ffffffffffffffffffffffffffffffffffffffff021916908373ffffffffffffffffffffffffffffffffffffffff1602179055508173ffffffffffffffffffffffffffffffffffffffff168173ffffffffffffffffffffffffffffffffffffffff167f8be0079c531659141344cd1fd0a4f28419497f9722a3daafe3b4186f6b6457e060405160405180910390a35050565b600073ffffffffffffffffffffffffffffffffffffffff168473ffffffffffffffffffffffffffffffffffffffff1603610bff5760006040517fe602df05000000000000000000000000000000000000000000000000000000008152600401610bf6919061123a565b60405180910390fd5b600073ffffffffffffffffffffffffffffffffffffffff168373ffffffffffffffffffffffffffffffffffffffff1603610c715760006040517f94280d62000000000000000000000000000000000000000000000000000000008152600401610c68919061123a565b60405180910390fd5b81600160008673ffffffffffffffffffffffffffffffffffffffff1673ffffffffffffffffffffffffffffffffffffffff16815260200190815260200160002060008573ffffffffffffffffffffffffffffffffffffffff1673ffffffffffffffffffffffffffffffffffffffff168152602001908152602001600020819055508015610d5e578273ffffffffffffffffffffffffffffffffffffffff168473ffffffffffffffffffffffffffffffffffffffff167f8c5be1e5ebec7d5bd14f71427d1e84f3dd0314c0f7b2291e5b200ac8c7c3b92584604051610d559190611159565b60405180910390a35b50505050565b600073ffffffffffffffffffffffffffffffffffffffff168373ffffffffffffffffffffffffffffffffffffffff1603610db6578060026000828254610daa91906114c5565b92505081905550610e89565b60008060008573ffffffffffffffffffffffffffffffffffffffff1673ffffffffffffffffffffffffffffffffffffffff16815260200190815260200160002054905081811015610e42578381836040517fe450d38c000000000000000000000000000000000000000000000000000000008152600401610e399392919061145f565b60405180910390fd5b8181036000808673ffffffffffffffffffffffffffffffffffffffff1673ffffffffffffffffffffffffffffffffffffffff16815260200190815260200160002081905550505b600073ffffffffffffffffffffffffffffffffffffffff168273ffffffffffffffffffffffffffffffffffffffff1603610ed25780600260008282540392505081905550610f1f565b806000808473ffffffffffffffffffffffffffffffffffffffff1673ffffffffffffffffffffffffffffffffffffffff168152602001908152602001600020600082825401925050819055505b8173ffffffffffffffffffffffffffffffffffffffff168373ffffffffffffffffffffffffffffffffffffffff167fddf252ad1be2c89b69c2b068fc378daa952ba7f163c4a11628f55a4df523b3ef83604051610f7c9190611159565b60405180910390a3505050565b600081519050919050565b600082825260208201905092915050565b60005b83811015610fc3578082015181840152602081019050610fa8565b60008484015250505050565b6000601f19601f8301169050919050565b6000610feb82610f89565b610ff58185610f94565b9350611005818560208601610fa5565b61100e81610fcf565b840191505092915050565b600060208201905081810360008301526110338184610fe0565b905092915050565b600080fd5b600073ffffffffffffffffffffffffffffffffffffffff82169050919050565b600061106b82611040565b9050919050565b61107b81611060565b811461108657600080fd5b50565b60008135905061109881611072565b92915050565b6000819050919050565b6110b18161109e565b81146110bc57600080fd5b50565b6000813590506110ce816110a8565b92915050565b600080604083850312156110eb576110ea61103b565b5b60006110f985828601611089565b925050602061110a858286016110bf565b9150509250929050565b60008115159050919050565b61112981611114565b82525050565b60006020820190506111446000830184611120565b92915050565b6111538161109e565b82525050565b600060208201905061116e600083018461114a565b92915050565b60008060006060848603121561118d5761118c61103b565b5b600061119b86828701611089565b93505060206111ac86828701611089565b92505060406111bd868287016110bf565b9150509250925092565b6000602082840312156111dd576111dc61103b565b5b60006111eb84828501611089565b91505092915050565b600060ff82169050919050565b61120a816111f4565b82525050565b60006020820190506112256000830184611201565b92915050565b61123481611060565b82525050565b600060208201905061124f600083018461122b565b92915050565b6000806040838503121561126c5761126b61103b565b5b600061127a85828601611089565b925050602061128b85828601611089565b9150509250929050565b7f4e487b7100000000000000000000000000000000000000000000000000000000600052602260045260246000fd5b600060028204905060018216806112dc57607f821691505b6020821081036112ef576112ee611295565b5b50919050565b7f4e6f7420656e6f756768206d696e696e6720737570706c7920696e20636f6e7460008201527f7261637400000000000000000000000000000000000000000000000000000000602082015250565b6000611351602483610f94565b915061135c826112f5565b604082019050919050565b6000602082019050818103600083015261138081611344565b9050919050565b7f56657374696e67206e6f7420656e646564000000000000000000000000000000600082015250565b60006113bd601183610f94565b91506113c882611387565b602082019050919050565b600060208201905081810360008301526113ec816113b0565b9050919050565b7f4e6f2076657374656420746f6b656e7300000000000000000000000000000000600082015250565b6000611429601083610f94565b9150611434826113f3565b602082019050919050565b600060208201905081810360008301526114588161141c565b9050919050565b6000606082019050611474600083018661122b565b611481602083018561114a565b61148e604083018461114a565b949350505050565b7f4e487b7100000000000000000000000000000000000000000000000000000000600052601160045260246000fd5b60006114d08261109e565b91506114db8361109e565b92508282019050808211156114f3576114f2611496565b5b9291505056fea26469706673582212206713fb7eb569e73ee6b1c7ad781faa6fc2eb9fd85214f99810cee270ae93d6b464736f6c63430008140033",
  "linkReferences": {},
  "deployedLinkReferences": {}
}