{
  "_format": "hh-sol-artifact-1",
  "contractName": "TpayFactory",
  "sourceName": "contracts/TpayFactory.sol",
  "abi": [
    {
      "inputs": [
        {
          "internalType": "address",
          "name": "_feeToSetter",
          "type": "address"
        }
      ],
      "stateMutability": "nonpayable",
      "type": "constructor"
    },
    {
      "anonymous": false,
      "inputs": [
        {
          "indexed": true,
          "internalType": "address",
          "name": "token0",
          "type": "address"
        },
        {
          "indexed": true,
          "internalType": "address",
          "name": "token1",
          "type": "address"
        },
        {
          "indexed": false,
          "internalType": "address",
          "name": "pair",
          "type": "address"
        },
        {
          "indexed": false,
          "internalType": "uint256",
          "name": "",
          "type": "uint256"
        }
      ],
      "name": "PairCreated",
      "type": "event"
    },
    {
      "inputs": [
        {
          "internalType": "uint256",
          "name": "",
          "type": "uint256"
        }
      ],
      "name": "allPairs",
      "outputs": [
        {
          "internalType": "address",
          "name": "",
          "type": "address"
        }
      ],
      "stateMutability": "view",
      "type": "function"
    },
    {
      "inputs": [
        {
          "internalType": "address",
          "name": "tokenA",
          "type": "address"
        },
        {
          "internalType": "address",
          "name": "tokenB",
          "type": "address"
        }
      ],
      "name": "createPair",
      "outputs": [
        {
          "internalType": "address",
          "name": "pair",
          "type": "address"
        }
      ],
      "stateMutability": "nonpayable",
      "type": "function"
    },
    {
      "inputs": [],
      "name": "feeTo",
      "outputs": [
        {
          "internalType": "address",
          "name": "",
          "type": "address"
        }
      ],
      "stateMutability": "view",
      "type": "function"
    },
    {
      "inputs": [],
      "name": "feeToSetter",
      "outputs": [
        {
          "internalType": "address",
          "name": "",
          "type": "address"
        }
      ],
      "stateMutability": "view",
      "type": "function"
    },
    {
      "inputs": [
        {
          "internalType": "address",
          "name": "",
          "type": "address"
        },
        {
          "internalType": "address",
          "name": "",
          "type": "address"
        }
      ],
      "name": "getPair",
      "outputs": [
        {
          "internalType": "address",
          "name": "",
          "type": "address"
        }
      ],
      "stateMutability": "view",
      "type": "function"
    },
    {
      "inputs": [
        {
          "internalType": "address",
          "name": "_feeTo",
          "type": "address"
        }
      ],
      "name": "setFeeTo",
      "outputs": [],
      "stateMutability": "nonpayable",
      "type": "function"
    },
    {
      "inputs": [
        {
          "internalType": "address",
          "name": "_setter",
          "type": "address"
        }
      ],
      "name": "setFeeToSetter",
      "outputs": [],
      "stateMutability": "nonpayable",
      "type": "function"
    }
  ],
  "bytecode": "0x608060405234801561001057600080fd5b5060405162002e1238038062002e12833981810160405281019061003491906100de565b80600160006101000a81548173ffffffffffffffffffffffffffffffffffffffff021916908373ffffffffffffffffffffffffffffffffffffffff1602179055505061010b565b600080fd5b600073ffffffffffffffffffffffffffffffffffffffff82169050919050565b60006100ab82610080565b9050919050565b6100bb816100a0565b81146100c657600080fd5b50565b6000815190506100d8816100b2565b92915050565b6000602082840312156100f4576100f361007b565b5b6000610102848285016100c9565b91505092915050565b612cf7806200011b6000396000f3fe60806040523480156200001157600080fd5b5060043610620000885760003560e01c8063a2e74af61162000063578063a2e74af61462000107578063c9c653961462000127578063e6a43905146200015d578063f46901ed14620001935762000088565b8063017e7e58146200008d578063094b741514620000af5780631e3dd18b14620000d1575b600080fd5b62000097620001b3565b604051620000a691906200096d565b60405180910390f35b620000b9620001d7565b604051620000c891906200096d565b60405180910390f35b620000ef6004803603810190620000e99190620009ca565b620001fd565b604051620000fe91906200096d565b60405180910390f35b6200012560048036038101906200011f919062000a2d565b6200023d565b005b6200014560048036038101906200013f919062000a5f565b62000314565b6040516200015491906200096d565b60405180910390f35b6200017b600480360381019062000175919062000a5f565b62000802565b6040516200018a91906200096d565b60405180910390f35b620001b16004803603810190620001ab919062000a2d565b62000844565b005b60008054906101000a900473ffffffffffffffffffffffffffffffffffffffff1681565b600160009054906101000a900473ffffffffffffffffffffffffffffffffffffffff1681565b600381815481106200020e57600080fd5b906000526020600020016000915054906101000a900473ffffffffffffffffffffffffffffffffffffffff1681565b600160009054906101000a900473ffffffffffffffffffffffffffffffffffffffff1673ffffffffffffffffffffffffffffffffffffffff163373ffffffffffffffffffffffffffffffffffffffff1614620002d0576040517f08c379a0000000000000000000000000000000000000000000000000000000008152600401620002c79062000b07565b60405180910390fd5b80600160006101000a81548173ffffffffffffffffffffffffffffffffffffffff021916908373ffffffffffffffffffffffffffffffffffffffff16021790555050565b60008173ffffffffffffffffffffffffffffffffffffffff168373ffffffffffffffffffffffffffffffffffffffff160362000387576040517f08c379a00000000000000000000000000000000000000000000000000000000081526004016200037e9062000b79565b60405180910390fd5b6000808373ffffffffffffffffffffffffffffffffffffffff168573ffffffffffffffffffffffffffffffffffffffff1610620003c6578385620003c9565b84845b91509150600073ffffffffffffffffffffffffffffffffffffffff16600260008473ffffffffffffffffffffffffffffffffffffffff1673ffffffffffffffffffffffffffffffffffffffff16815260200190815260200160002060008373ffffffffffffffffffffffffffffffffffffffff1673ffffffffffffffffffffffffffffffffffffffff16815260200190815260200160002060009054906101000a900473ffffffffffffffffffffffffffffffffffffffff1673ffffffffffffffffffffffffffffffffffffffff1614620004db576040517f08c379a0000000000000000000000000000000000000000000000000000000008152600401620004d29062000beb565b60405180910390fd5b600060405180602001620004ef906200091a565b6020820181038252601f19601f820116604052509050600083836040516020016200051c92919062000c5d565b604051602081830303815290604052805190602001209050808251602084016000f594508473ffffffffffffffffffffffffffffffffffffffff1663485cc95585856040518363ffffffff1660e01b81526004016200057d92919062000c8d565b600060405180830381600087803b1580156200059857600080fd5b505af1158015620005ad573d6000803e3d6000fd5b5050505084600260008673ffffffffffffffffffffffffffffffffffffffff1673ffffffffffffffffffffffffffffffffffffffff16815260200190815260200160002060008573ffffffffffffffffffffffffffffffffffffffff1673ffffffffffffffffffffffffffffffffffffffff16815260200190815260200160002060006101000a81548173ffffffffffffffffffffffffffffffffffffffff021916908373ffffffffffffffffffffffffffffffffffffffff16021790555084600260008573ffffffffffffffffffffffffffffffffffffffff1673ffffffffffffffffffffffffffffffffffffffff16815260200190815260200160002060008673ffffffffffffffffffffffffffffffffffffffff1673ffffffffffffffffffffffffffffffffffffffff16815260200190815260200160002060006101000a81548173ffffffffffffffffffffffffffffffffffffffff021916908373ffffffffffffffffffffffffffffffffffffffff1602179055506003859080600181540180825580915050600190039060005260206000200160009091909190916101000a81548173ffffffffffffffffffffffffffffffffffffffff021916908373ffffffffffffffffffffffffffffffffffffffff1602179055508273ffffffffffffffffffffffffffffffffffffffff168473ffffffffffffffffffffffffffffffffffffffff167f0d3648bd0f6ba80134a33ba9275ac585d9d315f0ad8355cddefde31afa28d0e987600380549050604051620007f092919062000ccb565b60405180910390a35050505092915050565b60026020528160005260406000206020528060005260406000206000915091509054906101000a900473ffffffffffffffffffffffffffffffffffffffff1681565b600160009054906101000a900473ffffffffffffffffffffffffffffffffffffffff1673ffffffffffffffffffffffffffffffffffffffff163373ffffffffffffffffffffffffffffffffffffffff1614620008d7576040517f08c379a0000000000000000000000000000000000000000000000000000000008152600401620008ce9062000b07565b60405180910390fd5b806000806101000a81548173ffffffffffffffffffffffffffffffffffffffff021916908373ffffffffffffffffffffffffffffffffffffffff16021790555050565b611fc98062000cf983390190565b600073ffffffffffffffffffffffffffffffffffffffff82169050919050565b6000620009558262000928565b9050919050565b620009678162000948565b82525050565b60006020820190506200098460008301846200095c565b92915050565b600080fd5b6000819050919050565b620009a4816200098f565b8114620009b057600080fd5b50565b600081359050620009c48162000999565b92915050565b600060208284031215620009e357620009e26200098a565b5b6000620009f384828501620009b3565b91505092915050565b62000a078162000948565b811462000a1357600080fd5b50565b60008135905062000a2781620009fc565b92915050565b60006020828403121562000a465762000a456200098a565b5b600062000a568482850162000a16565b91505092915050565b6000806040838503121562000a795762000a786200098a565b5b600062000a898582860162000a16565b925050602062000a9c8582860162000a16565b9150509250929050565b600082825260208201905092915050565b7f4e6f7420616c6c6f776564000000000000000000000000000000000000000000600082015250565b600062000aef600b8362000aa6565b915062000afc8262000ab7565b602082019050919050565b6000602082019050818103600083015262000b228162000ae0565b9050919050565b7f4964656e746963616c2061646472657373657300000000000000000000000000600082015250565b600062000b6160138362000aa6565b915062000b6e8262000b29565b602082019050919050565b6000602082019050818103600083015262000b948162000b52565b9050919050565b7f5061697220657869737473000000000000000000000000000000000000000000600082015250565b600062000bd3600b8362000aa6565b915062000be08262000b9b565b602082019050919050565b6000602082019050818103600083015262000c068162000bc4565b9050919050565b60008160601b9050919050565b600062000c278262000c0d565b9050919050565b600062000c3b8262000c1a565b9050919050565b62000c5762000c518262000948565b62000c2e565b82525050565b600062000c6b828562000c42565b60148201915062000c7d828462000c42565b6014820191508190509392505050565b600060408201905062000ca460008301856200095c565b62000cb360208301846200095c565b9392505050565b62000cc5816200098f565b82525050565b600060408201905062000ce260008301856200095c565b62000cf1602083018462000cba565b939250505056fe60806040523480156200001157600080fd5b506040518060400160405280600d81526020017f54706179204c5020546f6b656e000000000000000000000000000000000000008152506040518060400160405280600381526020017f544c50000000000000000000000000000000000000000000000000000000000081525081600390816200008f919062000324565b508060049081620000a1919062000324565b5050506200040b565b600081519050919050565b7f4e487b7100000000000000000000000000000000000000000000000000000000600052604160045260246000fd5b7f4e487b7100000000000000000000000000000000000000000000000000000000600052602260045260246000fd5b600060028204905060018216806200012c57607f821691505b602082108103620001425762000141620000e4565b5b50919050565b60008190508160005260206000209050919050565b60006020601f8301049050919050565b600082821b905092915050565b600060088302620001ac7fffffffffffffffffffffffffffffffffffffffffffffffffffffffffffffffff826200016d565b620001b886836200016d565b95508019841693508086168417925050509392505050565b6000819050919050565b6000819050919050565b600062000205620001ff620001f984620001d0565b620001da565b620001d0565b9050919050565b6000819050919050565b6200022183620001e4565b6200023962000230826200020c565b8484546200017a565b825550505050565b600090565b6200025062000241565b6200025d81848462000216565b505050565b5b8181101562000285576200027960008262000246565b60018101905062000263565b5050565b601f821115620002d4576200029e8162000148565b620002a9846200015d565b81016020851015620002b9578190505b620002d1620002c8856200015d565b83018262000262565b50505b505050565b600082821c905092915050565b6000620002f960001984600802620002d9565b1980831691505092915050565b6000620003148383620002e6565b9150826002028217905092915050565b6200032f82620000aa565b67ffffffffffffffff8111156200034b576200034a620000b5565b5b62000357825462000113565b6200036482828562000289565b600060209050601f8311600181146200039c576000841562000387578287015190505b62000393858262000306565b86555062000403565b601f198416620003ac8662000148565b60005b82811015620003d657848901518255600182019150602085019450602081019050620003af565b86831015620003f65784890151620003f2601f891682620002e6565b8355505b6001600288020188555050505b505050505050565b611bae806200041b6000396000f3fe608060405234801561001057600080fd5b50600436106100ea5760003560e01c80636d9a640a1161008c57806395d89b411161006657806395d89b411461024b578063a9059cbb14610269578063d21220a714610299578063dd62ed3e146102b7576100ea565b80636d9a640a146101e357806370a08231146101ff57806387b21efc1461022f576100ea565b806318160ddd116100c857806318160ddd1461015b57806323b872dd14610179578063313ce567146101a9578063485cc955146101c7576100ea565b806306fdde03146100ef578063095ea7b31461010d5780630dfe16811461013d575b600080fd5b6100f76102e7565b6040516101049190611472565b60405180910390f35b6101276004803603810190610122919061152d565b610379565b6040516101349190611588565b60405180910390f35b61014561039c565b60405161015291906115b2565b60405180910390f35b6101636103c2565b60405161017091906115dc565b60405180910390f35b610193600480360381019061018e91906115f7565b6103cc565b6040516101a09190611588565b60405180910390f35b6101b16103fb565b6040516101be9190611666565b60405180910390f35b6101e160048036038101906101dc9190611681565b610404565b005b6101fd60048036038101906101f891906116c1565b610575565b005b61021960048036038101906102149190611714565b61097b565b60405161022691906115dc565b60405180910390f35b610249600480360381019061024491906116c1565b6109c3565b005b610253610be5565b6040516102609190611472565b60405180910390f35b610283600480360381019061027e919061152d565b610c77565b6040516102909190611588565b60405180910390f35b6102a1610c9a565b6040516102ae91906115b2565b60405180910390f35b6102d160048036038101906102cc9190611681565b610cc0565b6040516102de91906115dc565b60405180910390f35b6060600380546102f690611770565b80601f016020809104026020016040519081016040528092919081815260200182805461032290611770565b801561036f5780601f106103445761010080835404028352916020019161036f565b820191906000526020600020905b81548152906001019060200180831161035257829003601f168201915b5050505050905090565b600080610384610d47565b9050610391818585610d4f565b600191505092915050565b600560009054906101000a900473ffffffffffffffffffffffffffffffffffffffff1681565b6000600254905090565b6000806103d7610d47565b90506103e4858285610d61565b6103ef858585610df6565b60019150509392505050565b60006012905090565b600073ffffffffffffffffffffffffffffffffffffffff16600560009054906101000a900473ffffffffffffffffffffffffffffffffffffffff1673ffffffffffffffffffffffffffffffffffffffff161480156104b05750600073ffffffffffffffffffffffffffffffffffffffff16600660009054906101000a900473ffffffffffffffffffffffffffffffffffffffff1673ffffffffffffffffffffffffffffffffffffffff16145b6104ef576040517f08c379a00000000000000000000000000000000000000000000000000000000081526004016104e6906117ed565b60405180910390fd5b81600560006101000a81548173ffffffffffffffffffffffffffffffffffffffff021916908373ffffffffffffffffffffffffffffffffffffffff16021790555080600660006101000a81548173ffffffffffffffffffffffffffffffffffffffff021916908373ffffffffffffffffffffffffffffffffffffffff1602179055505050565b60008311806105845750600082115b6105c3576040517f08c379a00000000000000000000000000000000000000000000000000000000081526004016105ba90611859565b60405180910390fd5b600083111561066e57600560009054906101000a900473ffffffffffffffffffffffffffffffffffffffff1673ffffffffffffffffffffffffffffffffffffffff1663a9059cbb82856040518363ffffffff1660e01b8152600401610629929190611879565b6020604051808303816000875af1158015610648573d6000803e3d6000fd5b505050506040513d601f19601f8201168201806040525081019061066c91906118ce565b505b600082111561071957600660009054906101000a900473ffffffffffffffffffffffffffffffffffffffff1673ffffffffffffffffffffffffffffffffffffffff1663a9059cbb82846040518363ffffffff1660e01b81526004016106d4929190611879565b6020604051808303816000875af11580156106f3573d6000803e3d6000fd5b505050506040513d601f19601f8201168201806040525081019061071791906118ce565b505b6000600560009054906101000a900473ffffffffffffffffffffffffffffffffffffffff1673ffffffffffffffffffffffffffffffffffffffff166370a08231306040518263ffffffff1660e01b815260040161077691906115b2565b602060405180830381865afa158015610793573d6000803e3d6000fd5b505050506040513d601f19601f820116820180604052508101906107b79190611910565b90506000600660009054906101000a900473ffffffffffffffffffffffffffffffffffffffff1673ffffffffffffffffffffffffffffffffffffffff166370a08231306040518263ffffffff1660e01b815260040161081691906115b2565b602060405180830381865afa158015610833573d6000803e3d6000fd5b505050506040513d601f19601f820116820180604052508101906108579190611910565b90506007600e9054906101000a90046dffffffffffffffffffffffffffff166dffffffffffffffffffffffffffff16600760009054906101000a90046dffffffffffffffffffffffffffff166dffffffffffffffffffffffffffff166108bd919061196c565b81836108c9919061196c565b101561090a576040517f08c379a0000000000000000000000000000000000000000000000000000000008152600401610901906119fa565b60405180910390fd5b81600760006101000a8154816dffffffffffffffffffffffffffff02191690836dffffffffffffffffffffffffffff160217905550806007600e6101000a8154816dffffffffffffffffffffffffffff02191690836dffffffffffffffffffffffffffff1602179055505050505050565b60008060008373ffffffffffffffffffffffffffffffffffffffff1673ffffffffffffffffffffffffffffffffffffffff168152602001908152602001600020549050919050565b600560009054906101000a900473ffffffffffffffffffffffffffffffffffffffff1673ffffffffffffffffffffffffffffffffffffffff166323b872dd3330866040518463ffffffff1660e01b8152600401610a2293929190611a1a565b6020604051808303816000875af1158015610a41573d6000803e3d6000fd5b505050506040513d601f19601f82011682018060405250810190610a6591906118ce565b50600660009054906101000a900473ffffffffffffffffffffffffffffffffffffffff1673ffffffffffffffffffffffffffffffffffffffff166323b872dd3330856040518463ffffffff1660e01b8152600401610ac593929190611a1a565b6020604051808303816000875af1158015610ae4573d6000803e3d6000fd5b505050506040513d601f19601f82011682018060405250810190610b0891906118ce565b50610b2681610b218486610b1c919061196c565b610eea565b610f64565b82600760008282829054906101000a90046dffffffffffffffffffffffffffff16610b519190611a6b565b92506101000a8154816dffffffffffffffffffffffffffff02191690836dffffffffffffffffffffffffffff160217905550816007600e8282829054906101000a90046dffffffffffffffffffffffffffff16610bae9190611a6b565b92506101000a8154816dffffffffffffffffffffffffffff02191690836dffffffffffffffffffffffffffff160217905550505050565b606060048054610bf490611770565b80601f0160208091040260200160405190810160405280929190818152602001828054610c2090611770565b8015610c6d5780601f10610c4257610100808354040283529160200191610c6d565b820191906000526020600020905b815481529060010190602001808311610c5057829003601f168201915b5050505050905090565b600080610c82610d47565b9050610c8f818585610df6565b600191505092915050565b600660009054906101000a900473ffffffffffffffffffffffffffffffffffffffff1681565b6000600160008473ffffffffffffffffffffffffffffffffffffffff1673ffffffffffffffffffffffffffffffffffffffff16815260200190815260200160002060008373ffffffffffffffffffffffffffffffffffffffff1673ffffffffffffffffffffffffffffffffffffffff16815260200190815260200160002054905092915050565b600033905090565b610d5c8383836001610fe6565b505050565b6000610d6d8484610cc0565b90507fffffffffffffffffffffffffffffffffffffffffffffffffffffffffffffffff811015610df05781811015610de0578281836040517ffb8f41b2000000000000000000000000000000000000000000000000000000008152600401610dd793929190611aad565b60405180910390fd5b610def84848484036000610fe6565b5b50505050565b600073ffffffffffffffffffffffffffffffffffffffff168373ffffffffffffffffffffffffffffffffffffffff1603610e685760006040517f96c6fd1e000000000000000000000000000000000000000000000000000000008152600401610e5f91906115b2565b60405180910390fd5b600073ffffffffffffffffffffffffffffffffffffffff168273ffffffffffffffffffffffffffffffffffffffff1603610eda5760006040517fec442f05000000000000000000000000000000000000000000000000000000008152600401610ed191906115b2565b60405180910390fd5b610ee58383836111bd565b505050565b60006003821115610f515781905060006001600284610f099190611b13565b610f139190611b44565b90505b81811015610f4b578091506002818285610f309190611b13565b610f3a9190611b44565b610f449190611b13565b9050610f16565b50610f5f565b60008214610f5e57600190505b5b919050565b600073ffffffffffffffffffffffffffffffffffffffff168273ffffffffffffffffffffffffffffffffffffffff1603610fd65760006040517fec442f05000000000000000000000000000000000000000000000000000000008152600401610fcd91906115b2565b60405180910390fd5b610fe2600083836111bd565b5050565b600073ffffffffffffffffffffffffffffffffffffffff168473ffffffffffffffffffffffffffffffffffffffff16036110585760006040517fe602df0500000000000000000000000000000000000000000000000000000000815260040161104f91906115b2565b60405180910390fd5b600073ffffffffffffffffffffffffffffffffffffffff168373ffffffffffffffffffffffffffffffffffffffff16036110ca5760006040517f94280d620000000000000000000000000000000000000000000000000000000081526004016110c191906115b2565b60405180910390fd5b81600160008673ffffffffffffffffffffffffffffffffffffffff1673ffffffffffffffffffffffffffffffffffffffff16815260200190815260200160002060008573ffffffffffffffffffffffffffffffffffffffff1673ffffffffffffffffffffffffffffffffffffffff1681526020019081526020016000208190555080156111b7578273ffffffffffffffffffffffffffffffffffffffff168473ffffffffffffffffffffffffffffffffffffffff167f8c5be1e5ebec7d5bd14f71427d1e84f3dd0314c0f7b2291e5b200ac8c7c3b925846040516111ae91906115dc565b60405180910390a35b50505050565b600073ffffffffffffffffffffffffffffffffffffffff168373ffffffffffffffffffffffffffffffffffffffff160361120f5780600260008282546112039190611b44565b925050819055506112e2565b60008060008573ffffffffffffffffffffffffffffffffffffffff1673ffffffffffffffffffffffffffffffffffffffff1681526020019081526020016000205490508181101561129b578381836040517fe450d38c00000000000000000000000000000000000000000000000000000000815260040161129293929190611aad565b60405180910390fd5b8181036000808673ffffffffffffffffffffffffffffffffffffffff1673ffffffffffffffffffffffffffffffffffffffff16815260200190815260200160002081905550505b600073ffffffffffffffffffffffffffffffffffffffff168273ffffffffffffffffffffffffffffffffffffffff160361132b5780600260008282540392505081905550611378565b806000808473ffffffffffffffffffffffffffffffffffffffff1673ffffffffffffffffffffffffffffffffffffffff168152602001908152602001600020600082825401925050819055505b8173ffffffffffffffffffffffffffffffffffffffff168373ffffffffffffffffffffffffffffffffffffffff167fddf252ad1be2c89b69c2b068fc378daa952ba7f163c4a11628f55a4df523b3ef836040516113d591906115dc565b60405180910390a3505050565b600081519050919050565b600082825260208201905092915050565b60005b8381101561141c578082015181840152602081019050611401565b60008484015250505050565b6000601f19601f8301169050919050565b6000611444826113e2565b61144e81856113ed565b935061145e8185602086016113fe565b61146781611428565b840191505092915050565b6000602082019050818103600083015261148c8184611439565b905092915050565b600080fd5b600073ffffffffffffffffffffffffffffffffffffffff82169050919050565b60006114c482611499565b9050919050565b6114d4816114b9565b81146114df57600080fd5b50565b6000813590506114f1816114cb565b92915050565b6000819050919050565b61150a816114f7565b811461151557600080fd5b50565b60008135905061152781611501565b92915050565b6000806040838503121561154457611543611494565b5b6000611552858286016114e2565b925050602061156385828601611518565b9150509250929050565b60008115159050919050565b6115828161156d565b82525050565b600060208201905061159d6000830184611579565b92915050565b6115ac816114b9565b82525050565b60006020820190506115c760008301846115a3565b92915050565b6115d6816114f7565b82525050565b60006020820190506115f160008301846115cd565b92915050565b6000806000606084860312156116105761160f611494565b5b600061161e868287016114e2565b935050602061162f868287016114e2565b925050604061164086828701611518565b9150509250925092565b600060ff82169050919050565b6116608161164a565b82525050565b600060208201905061167b6000830184611657565b92915050565b6000806040838503121561169857611697611494565b5b60006116a6858286016114e2565b92505060206116b7858286016114e2565b9150509250929050565b6000806000606084860312156116da576116d9611494565b5b60006116e886828701611518565b93505060206116f986828701611518565b925050604061170a868287016114e2565b9150509250925092565b60006020828403121561172a57611729611494565b5b6000611738848285016114e2565b91505092915050565b7f4e487b7100000000000000000000000000000000000000000000000000000000600052602260045260246000fd5b6000600282049050600182168061178857607f821691505b60208210810361179b5761179a611741565b5b50919050565b7f416c726561647920696e697469616c697a656400000000000000000000000000600082015250565b60006117d76013836113ed565b91506117e2826117a1565b602082019050919050565b60006020820190508181036000830152611806816117ca565b9050919050565b7f496e73756666696369656e74206f757470757400000000000000000000000000600082015250565b60006118436013836113ed565b915061184e8261180d565b602082019050919050565b6000602082019050818103600083015261187281611836565b9050919050565b600060408201905061188e60008301856115a3565b61189b60208301846115cd565b9392505050565b6118ab8161156d565b81146118b657600080fd5b50565b6000815190506118c8816118a2565b92915050565b6000602082840312156118e4576118e3611494565b5b60006118f2848285016118b9565b91505092915050565b60008151905061190a81611501565b92915050565b60006020828403121561192657611925611494565b5b6000611934848285016118fb565b91505092915050565b7f4e487b7100000000000000000000000000000000000000000000000000000000600052601160045260246000fd5b6000611977826114f7565b9150611982836114f7565b9250828202611990816114f7565b915082820484148315176119a7576119a661193d565b5b5092915050565b7f496e76617269616e742076696f6c6174696f6e00000000000000000000000000600082015250565b60006119e46013836113ed565b91506119ef826119ae565b602082019050919050565b60006020820190508181036000830152611a13816119d7565b9050919050565b6000606082019050611a2f60008301866115a3565b611a3c60208301856115a3565b611a4960408301846115cd565b949350505050565b60006dffffffffffffffffffffffffffff82169050919050565b6000611a7682611a51565b9150611a8183611a51565b925082820190506dffffffffffffffffffffffffffff811115611aa757611aa661193d565b5b92915050565b6000606082019050611ac260008301866115a3565b611acf60208301856115cd565b611adc60408301846115cd565b949350505050565b7f4e487b7100000000000000000000000000000000000000000000000000000000600052601260045260246000fd5b6000611b1e826114f7565b9150611b29836114f7565b925082611b3957611b38611ae4565b5b828204905092915050565b6000611b4f826114f7565b9150611b5a836114f7565b9250828201905080821115611b7257611b7161193d565b5b9291505056fea26469706673582212207989ce49ba53c941e8804232e821747de434998cf17bffcc2846bb76bb6fd3f964736f6c63430008140033a2646970667358221220391b96bffb2ae33330a4ddfd7a0517b4866df78eab4d0634c3a75b0a7491167264736f6c63430008140033",
  "linkReferences": {},
  "deployedLinkReferences": {}
}