{
  "_format": "hh-sol-artifact-1",
  "contractName": "TpayFarm",
  "sourceName": "contracts/TpayFarm.sol",
  "abi": [
    {
      "inputs": [
        {
          "internalType": "address",
          "name": "initialOwner",
          "type": "address"
        },
        {
          "internalType": "address",
          "name": "_tpay",
          "type": "address"
        },
        {
          "internalType": "uint256",
          "name": "_tpayPerBlock",
          "type": "uint256"
        },
        {
          "internalType": "uint256",
          "name": "_startBlock",
          "type": "uint256"
        }
      ],
      "stateMutability": "nonpayable",
      "type": "constructor"
    },
    {
      "inputs": [
        {
          "internalType": "address",
          "name": "owner",
          "type": "address"
        }
      ],
      "name": "OwnableInvalidOwner",
      "type": "error"
    },
    {
      "inputs": [
        {
          "internalType": "address",
          "name": "account",
          "type": "address"
        }
      ],
      "name": "OwnableUnauthorizedAccount",
      "type": "error"
    },
    {
      "anonymous": false,
      "inputs": [
        {
          "indexed": true,
          "internalType": "address",
          "name": "previousOwner",
          "type": "address"
        },
        {
          "indexed": true,
          "internalType": "address",
          "name": "newOwner",
          "type": "address"
        }
      ],
      "name": "OwnershipTransferred",
      "type": "event"
    },
    {
      "inputs": [
        {
          "internalType": "uint256",
          "name": "_allocPoint",
          "type": "uint256"
        },
        {
          "internalType": "contract IERC20",
          "name": "_lpToken",
          "type": "address"
        }
      ],
      "name": "addPool",
      "outputs": [],
      "stateMutability": "nonpayable",
      "type": "function"
    },
    {
      "inputs": [
        {
          "internalType": "uint256",
          "name": "_pid",
          "type": "uint256"
        },
        {
          "internalType": "uint256",
          "name": "_amount",
          "type": "uint256"
        }
      ],
      "name": "deposit",
      "outputs": [],
      "stateMutability": "nonpayable",
      "type": "function"
    },
    {
      "inputs": [
        {
          "internalType": "uint256",
          "name": "_pid",
          "type": "uint256"
        }
      ],
      "name": "emergencyWithdraw",
      "outputs": [],
      "stateMutability": "nonpayable",
      "type": "function"
    },
    {
      "inputs": [],
      "name": "massUpdatePools",
      "outputs": [],
      "stateMutability": "nonpayable",
      "type": "function"
    },
    {
      "inputs": [],
      "name": "owner",
      "outputs": [
        {
          "internalType": "address",
          "name": "",
          "type": "address"
        }
      ],
      "stateMutability": "view",
      "type": "function"
    },
    {
      "inputs": [
        {
          "internalType": "uint256",
          "name": "",
          "type": "uint256"
        }
      ],
      "name": "poolInfo",
      "outputs": [
        {
          "internalType": "contract IERC20",
          "name": "lpToken",
          "type": "address"
        },
        {
          "internalType": "uint256",
          "name": "allocPoint",
          "type": "uint256"
        },
        {
          "internalType": "uint256",
          "name": "lastRewardBlock",
          "type": "uint256"
        },
        {
          "internalType": "uint256",
          "name": "accTpayPerShare",
          "type": "uint256"
        }
      ],
      "stateMutability": "view",
      "type": "function"
    },
    {
      "inputs": [],
      "name": "renounceOwnership",
      "outputs": [],
      "stateMutability": "nonpayable",
      "type": "function"
    },
    {
      "inputs": [],
      "name": "startBlock",
      "outputs": [
        {
          "internalType": "uint256",
          "name": "",
          "type": "uint256"
        }
      ],
      "stateMutability": "view",
      "type": "function"
    },
    {
      "inputs": [],
      "name": "totalAllocPoint",
      "outputs": [
        {
          "internalType": "uint256",
          "name": "",
          "type": "uint256"
        }
      ],
      "stateMutability": "view",
      "type": "function"
    },
    {
      "inputs": [],
      "name": "tpay",
      "outputs": [
        {
          "internalType": "contract TpayToken",
          "name": "",
          "type": "address"
        }
      ],
      "stateMutability": "view",
      "type": "function"
    },
    {
      "inputs": [],
      "name": "tpayPerBlock",
      "outputs": [
        {
          "internalType": "uint256",
          "name": "",
          "type": "uint256"
        }
      ],
      "stateMutability": "view",
      "type": "function"
    },
    {
      "inputs": [
        {
          "internalType": "address",
          "name": "newOwner",
          "type": "address"
        }
      ],
      "name": "transferOwnership",
      "outputs": [],
      "stateMutability": "nonpayable",
      "type": "function"
    },
    {
      "inputs": [
        {
          "internalType": "uint256",
          "name": "_pid",
          "type": "uint256"
        }
      ],
      "name": "updatePool",
      "outputs": [],
      "stateMutability": "nonpayable",
      "type": "function"
    },
    {
      "inputs": [
        {
          "internalType": "uint256",
          "name": "",
          "type": "uint256"
        },
        {
          "internalType": "address",
          "name": "",
          "type": "address"
        }
      ],
      "name": "userInfo",
      "outputs": [
        {
          "internalType": "uint256",
          "name": "amount",
          "type": "uint256"
        },
        {
          "internalType": "uint256",
          "name": "rewardDebt",
          "type": "uint256"
        }
      ],
      "stateMutability": "view",
      "type": "function"
    },
    {
      "inputs": [
        {
          "internalType": "uint256",
          "name": "_pid",
          "type": "uint256"
        },
        {
          "internalType": "uint256",
          "name": "_amount",
          "type": "uint256"
        }
      ],
      "name": "withdraw",
      "outputs": [],
      "stateMutability": "nonpayable",
      "type": "function"
    }
  ],
  "bytecode": "0x608060405260006003553480156200001657600080fd5b50604051620018603803806200186083398181016040528101906200003c919062000286565b83600073ffffffffffffffffffffffffffffffffffffffff168173ffffffffffffffffffffffffffffffffffffffff1603620000b25760006040517f1e4fbdf7000000000000000000000000000000000000000000000000000000008152600401620000a9919062000309565b60405180910390fd5b620000c3816200011d60201b60201c565b5082600160006101000a81548173ffffffffffffffffffffffffffffffffffffffff021916908373ffffffffffffffffffffffffffffffffffffffff16021790555081600281905550806004819055505050505062000326565b60008060009054906101000a900473ffffffffffffffffffffffffffffffffffffffff169050816000806101000a81548173ffffffffffffffffffffffffffffffffffffffff021916908373ffffffffffffffffffffffffffffffffffffffff1602179055508173ffffffffffffffffffffffffffffffffffffffff168173ffffffffffffffffffffffffffffffffffffffff167f8be0079c531659141344cd1fd0a4f28419497f9722a3daafe3b4186f6b6457e060405160405180910390a35050565b600080fd5b600073ffffffffffffffffffffffffffffffffffffffff82169050919050565b60006200021382620001e6565b9050919050565b620002258162000206565b81146200023157600080fd5b50565b60008151905062000245816200021a565b92915050565b6000819050919050565b62000260816200024b565b81146200026c57600080fd5b50565b600081519050620002808162000255565b92915050565b60008060008060808587031215620002a357620002a2620001e1565b5b6000620002b38782880162000234565b9450506020620002c68782880162000234565b9350506040620002d9878288016200026f565b9250506060620002ec878288016200026f565b91505092959194509250565b620003038162000206565b82525050565b6000602082019050620003206000830184620002f8565b92915050565b61152a80620003366000396000f3fe608060405234801561001057600080fd5b50600436106100f55760003560e01c80635312ea8e1161009757806393f1a40b1161006657806393f1a40b14610229578063a06b2fb01461025a578063e2bbb15814610278578063f2fde38b14610294576100f5565b80635312ea8e146101db578063630b5ba1146101f7578063715018a6146102015780638da5cb5b1461020b576100f5565b806333ba8882116100d357806333ba888214610169578063441a3e701461018557806348cd4cb1146101a157806351eb05a6146101bf576100f5565b80631526fe27146100fa578063165da7d51461012d57806317caf6f11461014b575b600080fd5b610114600480360381019061010f9190610ead565b6102b0565b6040516101249493929190610f68565b60405180910390f35b610135610310565b6040516101429190610fad565b60405180910390f35b610153610316565b6040516101609190610fad565b60405180910390f35b610183600480360381019061017e9190611018565b61031c565b005b61019f600480360381019061019a9190611058565b610425565b005b6101a96106ba565b6040516101b69190610fad565b60405180910390f35b6101d960048036038101906101d49190610ead565b6106c0565b005b6101f560048036038101906101f09190610ead565b61083a565b005b6101ff610974565b005b6102096109a7565b005b6102136109bb565b60405161022091906110a7565b60405180910390f35b610243600480360381019061023e91906110ee565b6109e4565b60405161025192919061112e565b60405180910390f35b610262610a15565b60405161026f9190611178565b60405180910390f35b610292600480360381019061028d9190611058565b610a3b565b005b6102ae60048036038101906102a99190611193565b610c99565b005b600581815481106102c057600080fd5b90600052602060002090600402016000915090508060000160009054906101000a900473ffffffffffffffffffffffffffffffffffffffff16908060010154908060020154908060030154905084565b60025481565b60035481565b610324610d1f565b61032c610974565b816003600082825461033e91906111ef565b92505081905550600560405180608001604052808373ffffffffffffffffffffffffffffffffffffffff168152602001848152602001600454431161038557600454610387565b435b81526020016000815250908060018154018082558091505060019003906000526020600020906004020160009091909190915060008201518160000160006101000a81548173ffffffffffffffffffffffffffffffffffffffff021916908373ffffffffffffffffffffffffffffffffffffffff16021790555060208201518160010155604082015181600201556060820151816003015550505050565b60006005838154811061043b5761043a611223565b5b9060005260206000209060040201905060006006600085815260200190815260200160002060003373ffffffffffffffffffffffffffffffffffffffff1673ffffffffffffffffffffffffffffffffffffffff168152602001908152602001600020905082816000015410156104e6576040517f08c379a00000000000000000000000000000000000000000000000000000000081526004016104dd906112af565b60405180910390fd5b6104ef846106c0565b6000816001015464e8d4a510008460030154846000015461051091906112cf565b61051a9190611340565b6105249190611371565b905060008111156105bf57600160009054906101000a900473ffffffffffffffffffffffffffffffffffffffff1673ffffffffffffffffffffffffffffffffffffffff16639ac9c23a33836040518363ffffffff1660e01b815260040161058c9291906113a5565b600060405180830381600087803b1580156105a657600080fd5b505af11580156105ba573d6000803e3d6000fd5b505050505b600084111561068757838260000160008282546105dc9190611371565b925050819055508260000160009054906101000a900473ffffffffffffffffffffffffffffffffffffffff1673ffffffffffffffffffffffffffffffffffffffff1663a9059cbb33866040518363ffffffff1660e01b81526004016106429291906113a5565b6020604051808303816000875af1158015610661573d6000803e3d6000fd5b505050506040513d601f19601f820116820180604052508101906106859190611406565b505b64e8d4a51000836003015483600001546106a191906112cf565b6106ab9190611340565b82600101819055505050505050565b60045481565b6000600582815481106106d6576106d5611223565b5b90600052602060002090600402019050806002015443116106f75750610837565b60008160000160009054906101000a900473ffffffffffffffffffffffffffffffffffffffff1673ffffffffffffffffffffffffffffffffffffffff166370a08231306040518263ffffffff1660e01b815260040161075691906110a7565b602060405180830381865afa158015610773573d6000803e3d6000fd5b505050506040513d601f19601f820116820180604052508101906107979190611448565b9050600081036107b1574382600201819055505050610837565b60008260020154436107c39190611371565b905060006003548460010154600254846107dd91906112cf565b6107e791906112cf565b6107f19190611340565b90508264e8d4a510008261080591906112cf565b61080f9190611340565b84600301600082825461082291906111ef565b92505081905550438460020181905550505050505b50565b6000600582815481106108505761084f611223565b5b9060005260206000209060040201905060006006600084815260200190815260200160002060003373ffffffffffffffffffffffffffffffffffffffff1673ffffffffffffffffffffffffffffffffffffffff16815260200190815260200160002090508160000160009054906101000a900473ffffffffffffffffffffffffffffffffffffffff1673ffffffffffffffffffffffffffffffffffffffff1663a9059cbb3383600001546040518363ffffffff1660e01b81526004016109179291906113a5565b6020604051808303816000875af1158015610936573d6000803e3d6000fd5b505050506040513d601f19601f8201168201806040525081019061095a9190611406565b506000816000018190555060008160010181905550505050565b6000600580549050905060005b818110156109a357610992816106c0565b8061099c90611475565b9050610981565b5050565b6109af610d1f565b6109b96000610da6565b565b60008060009054906101000a900473ffffffffffffffffffffffffffffffffffffffff16905090565b6006602052816000526040600020602052806000526040600020600091509150508060000154908060010154905082565b600160009054906101000a900473ffffffffffffffffffffffffffffffffffffffff1681565b600060058381548110610a5157610a50611223565b5b9060005260206000209060040201905060006006600085815260200190815260200160002060003373ffffffffffffffffffffffffffffffffffffffff1673ffffffffffffffffffffffffffffffffffffffff1681526020019081526020016000209050610abe846106c0565b600081600001541115610b9d576000816001015464e8d4a5100084600301548460000154610aec91906112cf565b610af69190611340565b610b009190611371565b90506000811115610b9b57600160009054906101000a900473ffffffffffffffffffffffffffffffffffffffff1673ffffffffffffffffffffffffffffffffffffffff16639ac9c23a33836040518363ffffffff1660e01b8152600401610b689291906113a5565b600060405180830381600087803b158015610b8257600080fd5b505af1158015610b96573d6000803e3d6000fd5b505050505b505b6000831115610c67578160000160009054906101000a900473ffffffffffffffffffffffffffffffffffffffff1673ffffffffffffffffffffffffffffffffffffffff166323b872dd3330866040518463ffffffff1660e01b8152600401610c07939291906114bd565b6020604051808303816000875af1158015610c26573d6000803e3d6000fd5b505050506040513d601f19601f82011682018060405250810190610c4a9190611406565b5082816000016000828254610c5f91906111ef565b925050819055505b64e8d4a5100082600301548260000154610c8191906112cf565b610c8b9190611340565b816001018190555050505050565b610ca1610d1f565b600073ffffffffffffffffffffffffffffffffffffffff168173ffffffffffffffffffffffffffffffffffffffff1603610d135760006040517f1e4fbdf7000000000000000000000000000000000000000000000000000000008152600401610d0a91906110a7565b60405180910390fd5b610d1c81610da6565b50565b610d27610e6a565b73ffffffffffffffffffffffffffffffffffffffff16610d456109bb565b73ffffffffffffffffffffffffffffffffffffffff1614610da457610d68610e6a565b6040517f118cdaa7000000000000000000000000000000000000000000000000000000008152600401610d9b91906110a7565b60405180910390fd5b565b60008060009054906101000a900473ffffffffffffffffffffffffffffffffffffffff169050816000806101000a81548173ffffffffffffffffffffffffffffffffffffffff021916908373ffffffffffffffffffffffffffffffffffffffff1602179055508173ffffffffffffffffffffffffffffffffffffffff168173ffffffffffffffffffffffffffffffffffffffff167f8be0079c531659141344cd1fd0a4f28419497f9722a3daafe3b4186f6b6457e060405160405180910390a35050565b600033905090565b600080fd5b6000819050919050565b610e8a81610e77565b8114610e9557600080fd5b50565b600081359050610ea781610e81565b92915050565b600060208284031215610ec357610ec2610e72565b5b6000610ed184828501610e98565b91505092915050565b600073ffffffffffffffffffffffffffffffffffffffff82169050919050565b6000819050919050565b6000610f1f610f1a610f1584610eda565b610efa565b610eda565b9050919050565b6000610f3182610f04565b9050919050565b6000610f4382610f26565b9050919050565b610f5381610f38565b82525050565b610f6281610e77565b82525050565b6000608082019050610f7d6000830187610f4a565b610f8a6020830186610f59565b610f976040830185610f59565b610fa46060830184610f59565b95945050505050565b6000602082019050610fc26000830184610f59565b92915050565b6000610fd382610eda565b9050919050565b6000610fe582610fc8565b9050919050565b610ff581610fda565b811461100057600080fd5b50565b60008135905061101281610fec565b92915050565b6000806040838503121561102f5761102e610e72565b5b600061103d85828601610e98565b925050602061104e85828601611003565b9150509250929050565b6000806040838503121561106f5761106e610e72565b5b600061107d85828601610e98565b925050602061108e85828601610e98565b9150509250929050565b6110a181610fc8565b82525050565b60006020820190506110bc6000830184611098565b92915050565b6110cb81610fc8565b81146110d657600080fd5b50565b6000813590506110e8816110c2565b92915050565b6000806040838503121561110557611104610e72565b5b600061111385828601610e98565b9250506020611124858286016110d9565b9150509250929050565b60006040820190506111436000830185610f59565b6111506020830184610f59565b9392505050565b600061116282610f26565b9050919050565b61117281611157565b82525050565b600060208201905061118d6000830184611169565b92915050565b6000602082840312156111a9576111a8610e72565b5b60006111b7848285016110d9565b91505092915050565b7f4e487b7100000000000000000000000000000000000000000000000000000000600052601160045260246000fd5b60006111fa82610e77565b915061120583610e77565b925082820190508082111561121d5761121c6111c0565b5b92915050565b7f4e487b7100000000000000000000000000000000000000000000000000000000600052603260045260246000fd5b600082825260208201905092915050565b7f5769746864726177203e206465706f7369740000000000000000000000000000600082015250565b6000611299601283611252565b91506112a482611263565b602082019050919050565b600060208201905081810360008301526112c88161128c565b9050919050565b60006112da82610e77565b91506112e583610e77565b92508282026112f381610e77565b9150828204841483151761130a576113096111c0565b5b5092915050565b7f4e487b7100000000000000000000000000000000000000000000000000000000600052601260045260246000fd5b600061134b82610e77565b915061135683610e77565b92508261136657611365611311565b5b828204905092915050565b600061137c82610e77565b915061138783610e77565b925082820390508181111561139f5761139e6111c0565b5b92915050565b60006040820190506113ba6000830185611098565b6113c76020830184610f59565b9392505050565b60008115159050919050565b6113e3816113ce565b81146113ee57600080fd5b50565b600081519050611400816113da565b92915050565b60006020828403121561141c5761141b610e72565b5b600061142a848285016113f1565b91505092915050565b60008151905061144281610e81565b92915050565b60006020828403121561145e5761145d610e72565b5b600061146c84828501611433565b91505092915050565b600061148082610e77565b91507fffffffffffffffffffffffffffffffffffffffffffffffffffffffffffffffff82036114b2576114b16111c0565b5b600182019050919050565b60006060820190506114d26000830186611098565b6114df6020830185611098565b6114ec6040830184610f59565b94935050505056fea2646970667358221220bc82cdcbef0496771524056b2de097de012f93c6599110f57b36e73b2d8d19af64736f6c63430008140033",
  "linkReferences": {},
  "deployedLinkReferences": {}
}