{
  "contracts/TpayRouter.sol": {
    "TpayRouter": {
      "abi": [
        {
          "inputs": [
            {
              "internalType": "address",
              "name": "_factory",
              "type": "address"
            }
          ],
          "stateMutability": "nonpayable",
          "type": "constructor"
        },
        {
          "inputs": [
            {
              "internalType": "address",
              "name": "tokenA",
              "type": "address"
            },
            {
              "internalType": "address",
              "name": "tokenB",
              "type": "address"
            },
            {
              "internalType": "uint256",
              "name": "amountA",
              "type": "uint256"
            },
            {
              "internalType": "uint256",
              "name": "amountB",
              "type": "uint256"
            }
          ],
          "name": "addLiquidity",
          "outputs": [
            {
              "internalType": "address",
              "name": "pair",
              "type": "address"
            }
          ],
          "stateMutability": "nonpayable",
          "type": "function"
        },
        {
          "inputs": [],
          "name": "factory",
          "outputs": [
            {
              "internalType": "contract TpayFactory",
              "name": "",
              "type": "address"
            }
          ],
          "stateMutability": "view",
          "type": "function"
        },
        {
          "inputs": [
            {
              "internalType": "address",
              "name": "tokenIn",
              "type": "address"
            },
            {
              "internalType": "address",
              "name": "tokenOut",
              "type": "address"
            },
            {
              "internalType": "uint256",
              "name": "amountOut",
              "type": "uint256"
            }
          ],
          "name": "swap",
          "outputs": [],
          "stateMutability": "nonpayable",
          "type": "function"
        }
      ],
      "evm": {
        "bytecode": {
          "linkReferences": {},
          "object": "608034607057601f61060238819003918201601f19168301916001600160401b03831184841017607557808492602094604052833981010312607057516001600160a01b03811690819003607057600080546001600160a01b031916919091179055604051610576908161008c8239f35b600080fd5b634e487b7160e01b600052604160045260246000fdfe608080604052600436101561001357600080fd5b600090813560e01c908163c45a0155146104bd57508063cf6c62ea1461033a5763df791e501461004257600080fd5b346101ea5760603660031901126101ea5761005b6104e1565b6100636104fc565b825460405163e6a4390560e01b81526001600160a01b0384811660048301529283166024820152604480359391926020928492918391165afa90811561032f578491610310575b506001600160a01b03169081156102da576040516370a0823160e01b815233600482015284936001600160a01b03169190602081602481865afa9081156102655785916102a8575b50604051906323b872dd60e01b8252336004830152846024830152604482015260208160648188875af1801561026557610270575b50604051630dfe168160e01b8152602081600481875afa908115610265578591610246575b506001600160a01b0316820361023f5783915b604051630dfe168160e01b8152602081600481885afa908115610234578691610205575b506001600160a01b0316036101fd57905b823b156101f8576040516336cd320560e11b8152600481019190915260248101919091523360448201529082908290606490829084905af180156101ed576101d95750f35b816101e391610512565b6101ea5780f35b80fd5b6040513d84823e3d90fd5b505050fd5b508290610194565b610227915060203d60201161022d575b61021f8183610512565b81019061054a565b38610183565b503d610215565b6040513d88823e3d90fd5b809161015f565b61025f915060203d60201161022d5761021f8183610512565b3861014c565b6040513d87823e3d90fd5b6020813d6020116102a0575b8161028960209383610512565b8101031261029c57518015158114610127575b8480fd5b3d915061027c565b90506020813d6020116102d2575b816102c360209383610512565b8101031261029c5751386100f2565b3d91506102b6565b60405162461bcd60e51b815260206004820152600e60248201526d14185a5c881b9bdd08199bdd5b9960921b6044820152606490fd5b610329915060203d60201161022d5761021f8183610512565b386100aa565b6040513d86823e3d90fd5b50346101ea5760803660031901126101ea576103546104e1565b61035c6104fc565b825460405163e6a4390560e01b81526001600160a01b038481166004830152838116602483015290929116602083604481845afa92831561026557859361049c575b506001600160a01b03831615610430575b50506001600160a01b03169050803b1561042c576040516321ec87bf60e21b81526044803560048301526064803560248401523391830191909152909290819084908183865af192831561041f5760209361040f575b5050604051908152f35b8161041991610512565b38610405565b50604051903d90823e3d90fd5b5080fd5b6040516364e329cb60e11b81526001600160a01b03948516600482015291909316602482015291602091508290604490829086905af19081156101ed57829161047d575b508038806103af565b610496915060203d60201161022d5761021f8183610512565b38610474565b6104b691935060203d60201161022d5761021f8183610512565b913861039e565b90503461042c578160031936011261042c5790546001600160a01b03168152602090f35b600435906001600160a01b03821682036104f757565b600080fd5b602435906001600160a01b03821682036104f757565b90601f8019910116810190811067ffffffffffffffff82111761053457604052565b634e487b7160e01b600052604160045260246000fd5b908160209103126104f757516001600160a01b03811681036104f7579056fea164736f6c634300081c000a",
          "opcodes": "PUSH1 0x80 CALLVALUE PUSH1 0x70 JUMPI PUSH1 0x1F PUSH2 0x602 CODESIZE DUP2 SWAP1 SUB SWAP2 DUP3 ADD PUSH1 0x1F NOT AND DUP4 ADD SWAP2 PUSH1 0x1 PUSH1 0x1 PUSH1 0x40 SHL SUB DUP4 GT DUP5 DUP5 LT OR PUSH1 0x75 JUMPI DUP1 DUP5 SWAP3 PUSH1 0x20 SWAP5 PUSH1 0x40 MSTORE DUP4 CODECOPY DUP2 ADD SUB SLT PUSH1 0x70 JUMPI MLOAD PUSH1 0x1 PUSH1 0x1 PUSH1 0xA0 SHL SUB DUP2 AND SWAP1 DUP2 SWAP1 SUB PUSH1 0x70 JUMPI PUSH1 0x0 DUP1 SLOAD PUSH1 0x1 PUSH1 0x1 PUSH1 0xA0 SHL SUB NOT AND SWAP2 SWAP1 SWAP2 OR SWAP1 SSTORE PUSH1 0x40 MLOAD PUSH2 0x576 SWAP1 DUP2 PUSH2 0x8C DUP3 CODECOPY RETURN JUMPDEST PUSH1 0x0 DUP1 REVERT JUMPDEST PUSH4 0x4E487B71 PUSH1 0xE0 SHL PUSH1 0x0 MSTORE PUSH1 0x41 PUSH1 0x4 MSTORE PUSH1 0x24 PUSH1 0x0 REVERT INVALID PUSH1 0x80 DUP1 PUSH1 0x40 MSTORE PUSH1 0x4 CALLDATASIZE LT ISZERO PUSH2 0x13 JUMPI PUSH1 0x0 DUP1 REVERT JUMPDEST PUSH1 0x0 SWAP1 DUP2 CALLDATALOAD PUSH1 0xE0 SHR SWAP1 DUP2 PUSH4 0xC45A0155 EQ PUSH2 0x4BD JUMPI POP DUP1 PUSH4 0xCF6C62EA EQ PUSH2 0x33A JUMPI PUSH4 0xDF791E50 EQ PUSH2 0x42 JUMPI PUSH1 0x0 DUP1 REVERT JUMPDEST CALLVALUE PUSH2 0x1EA JUMPI PUSH1 0x60 CALLDATASIZE PUSH1 0x3 NOT ADD SLT PUSH2 0x1EA JUMPI PUSH2 0x5B PUSH2 0x4E1 JUMP JUMPDEST PUSH2 0x63 PUSH2 0x4FC JUMP JUMPDEST DUP3 SLOAD PUSH1 0x40 MLOAD PUSH4 0xE6A43905 PUSH1 0xE0 SHL DUP2 MSTORE PUSH1 0x1 PUSH1 0x1 PUSH1 0xA0 SHL SUB DUP5 DUP2 AND PUSH1 0x4 DUP4 ADD MSTORE SWAP3 DUP4 AND PUSH1 0x24 DUP3 ADD MSTORE PUSH1 0x44 DUP1 CALLDATALOAD SWAP4 SWAP2 SWAP3 PUSH1 0x20 SWAP3 DUP5 SWAP3 SWAP2 DUP4 SWAP2 AND GAS STATICCALL SWAP1 DUP2 ISZERO PUSH2 0x32F JUMPI DUP5 SWAP2 PUSH2 0x310 JUMPI JUMPDEST POP PUSH1 0x1 PUSH1 0x1 PUSH1 0xA0 SHL SUB AND SWAP1 DUP2 ISZERO PUSH2 0x2DA JUMPI PUSH1 0x40 MLOAD PUSH4 0x70A08231 PUSH1 0xE0 SHL DUP2 MSTORE CALLER PUSH1 0x4 DUP3 ADD MSTORE DUP5 SWAP4 PUSH1 0x1 PUSH1 0x1 PUSH1 0xA0 SHL SUB AND SWAP2 SWAP1 PUSH1 0x20 DUP2 PUSH1 0x24 DUP2 DUP7 GAS STATICCALL SWAP1 DUP2 ISZERO PUSH2 0x265 JUMPI DUP6 SWAP2 PUSH2 0x2A8 JUMPI JUMPDEST POP PUSH1 0x40 MLOAD SWAP1 PUSH4 0x23B872DD PUSH1 0xE0 SHL DUP3 MSTORE CALLER PUSH1 0x4 DUP4 ADD MSTORE DUP5 PUSH1 0x24 DUP4 ADD MSTORE PUSH1 0x44 DUP3 ADD MSTORE PUSH1 0x20 DUP2 PUSH1 0x64 DUP2 DUP9 DUP8 GAS CALL DUP1 ISZERO PUSH2 0x265 JUMPI PUSH2 0x270 JUMPI JUMPDEST POP PUSH1 0x40 MLOAD PUSH4 0xDFE1681 PUSH1 0xE0 SHL DUP2 MSTORE PUSH1 0x20 DUP2 PUSH1 0x4 DUP2 DUP8 GAS STATICCALL SWAP1 DUP2 ISZERO PUSH2 0x265 JUMPI DUP6 SWAP2 PUSH2 0x246 JUMPI JUMPDEST POP PUSH1 0x1 PUSH1 0x1 PUSH1 0xA0 SHL SUB AND DUP3 SUB PUSH2 0x23F JUMPI DUP4 SWAP2 JUMPDEST PUSH1 0x40 MLOAD PUSH4 0xDFE1681 PUSH1 0xE0 SHL DUP2 MSTORE PUSH1 0x20 DUP2 PUSH1 0x4 DUP2 DUP9 GAS STATICCALL SWAP1 DUP2 ISZERO PUSH2 0x234 JUMPI DUP7 SWAP2 PUSH2 0x205 JUMPI JUMPDEST POP PUSH1 0x1 PUSH1 0x1 PUSH1 0xA0 SHL SUB AND SUB PUSH2 0x1FD JUMPI SWAP1 JUMPDEST DUP3 EXTCODESIZE ISZERO PUSH2 0x1F8 JUMPI PUSH1 0x40 MLOAD PUSH4 0x36CD3205 PUSH1 0xE1 SHL DUP2 MSTORE PUSH1 0x4 DUP2 ADD SWAP2 SWAP1 SWAP2 MSTORE PUSH1 0x24 DUP2 ADD SWAP2 SWAP1 SWAP2 MSTORE CALLER PUSH1 0x44 DUP3 ADD MSTORE SWAP1 DUP3 SWAP1 DUP3 SWAP1 PUSH1 0x64 SWAP1 DUP3 SWAP1 DUP5 SWAP1 GAS CALL DUP1 ISZERO PUSH2 0x1ED JUMPI PUSH2 0x1D9 JUMPI POP RETURN JUMPDEST DUP2 PUSH2 0x1E3 SWAP2 PUSH2 0x512 JUMP JUMPDEST PUSH2 0x1EA JUMPI DUP1 RETURN JUMPDEST DUP1 REVERT JUMPDEST PUSH1 0x40 MLOAD RETURNDATASIZE DUP5 DUP3 RETURNDATACOPY RETURNDATASIZE SWAP1 REVERT JUMPDEST POP POP POP REVERT JUMPDEST POP DUP3 SWAP1 PUSH2 0x194 JUMP JUMPDEST PUSH2 0x227 SWAP2 POP PUSH1 0x20 RETURNDATASIZE PUSH1 0x20 GT PUSH2 0x22D JUMPI JUMPDEST PUSH2 0x21F DUP2 DUP4 PUSH2 0x512 JUMP JUMPDEST DUP2 ADD SWAP1 PUSH2 0x54A JUMP JUMPDEST CODESIZE PUSH2 0x183 JUMP JUMPDEST POP RETURNDATASIZE PUSH2 0x215 JUMP JUMPDEST PUSH1 0x40 MLOAD RETURNDATASIZE DUP9 DUP3 RETURNDATACOPY RETURNDATASIZE SWAP1 REVERT JUMPDEST DUP1 SWAP2 PUSH2 0x15F JUMP JUMPDEST PUSH2 0x25F SWAP2 POP PUSH1 0x20 RETURNDATASIZE PUSH1 0x20 GT PUSH2 0x22D JUMPI PUSH2 0x21F DUP2 DUP4 PUSH2 0x512 JUMP JUMPDEST CODESIZE PUSH2 0x14C JUMP JUMPDEST PUSH1 0x40 MLOAD RETURNDATASIZE DUP8 DUP3 RETURNDATACOPY RETURNDATASIZE SWAP1 REVERT JUMPDEST PUSH1 0x20 DUP2 RETURNDATASIZE PUSH1 0x20 GT PUSH2 0x2A0 JUMPI JUMPDEST DUP2 PUSH2 0x289 PUSH1 0x20 SWAP4 DUP4 PUSH2 0x512 JUMP JUMPDEST DUP2 ADD SUB SLT PUSH2 0x29C JUMPI MLOAD DUP1 ISZERO ISZERO DUP2 EQ PUSH2 0x127 JUMPI JUMPDEST DUP5 DUP1 REVERT JUMPDEST RETURNDATASIZE SWAP2 POP PUSH2 0x27C JUMP JUMPDEST SWAP1 POP PUSH1 0x20 DUP2 RETURNDATASIZE PUSH1 0x20 GT PUSH2 0x2D2 JUMPI JUMPDEST DUP2 PUSH2 0x2C3 PUSH1 0x20 SWAP4 DUP4 PUSH2 0x512 JUMP JUMPDEST DUP2 ADD SUB SLT PUSH2 0x29C JUMPI MLOAD CODESIZE PUSH2 0xF2 JUMP JUMPDEST RETURNDATASIZE SWAP2 POP PUSH2 0x2B6 JUMP JUMPDEST PUSH1 0x40 MLOAD PUSH3 0x461BCD PUSH1 0xE5 SHL DUP2 MSTORE PUSH1 0x20 PUSH1 0x4 DUP3 ADD MSTORE PUSH1 0xE PUSH1 0x24 DUP3 ADD MSTORE PUSH14 0x14185A5C881B9BDD08199BDD5B99 PUSH1 0x92 SHL PUSH1 0x44 DUP3 ADD MSTORE PUSH1 0x64 SWAP1 REVERT JUMPDEST PUSH2 0x329 SWAP2 POP PUSH1 0x20 RETURNDATASIZE PUSH1 0x20 GT PUSH2 0x22D JUMPI PUSH2 0x21F DUP2 DUP4 PUSH2 0x512 JUMP JUMPDEST CODESIZE PUSH2 0xAA JUMP JUMPDEST PUSH1 0x40 MLOAD RETURNDATASIZE DUP7 DUP3 RETURNDATACOPY RETURNDATASIZE SWAP1 REVERT JUMPDEST POP CALLVALUE PUSH2 0x1EA JUMPI PUSH1 0x80 CALLDATASIZE PUSH1 0x3 NOT ADD SLT PUSH2 0x1EA JUMPI PUSH2 0x354 PUSH2 0x4E1 JUMP JUMPDEST PUSH2 0x35C PUSH2 0x4FC JUMP JUMPDEST DUP3 SLOAD PUSH1 0x40 MLOAD PUSH4 0xE6A43905 PUSH1 0xE0 SHL DUP2 MSTORE PUSH1 0x1 PUSH1 0x1 PUSH1 0xA0 SHL SUB DUP5 DUP2 AND PUSH1 0x4 DUP4 ADD MSTORE DUP4 DUP2 AND PUSH1 0x24 DUP4 ADD MSTORE SWAP1 SWAP3 SWAP2 AND PUSH1 0x20 DUP4 PUSH1 0x44 DUP2 DUP5 GAS STATICCALL SWAP3 DUP4 ISZERO PUSH2 0x265 JUMPI DUP6 SWAP4 PUSH2 0x49C JUMPI JUMPDEST POP PUSH1 0x1 PUSH1 0x1 PUSH1 0xA0 SHL SUB DUP4 AND ISZERO PUSH2 0x430 JUMPI JUMPDEST POP POP PUSH1 0x1 PUSH1 0x1 PUSH1 0xA0 SHL SUB AND SWAP1 POP DUP1 EXTCODESIZE ISZERO PUSH2 0x42C JUMPI PUSH1 0x40 MLOAD PUSH4 0x21EC87BF PUSH1 0xE2 SHL DUP2 MSTORE PUSH1 0x44 DUP1 CALLDATALOAD PUSH1 0x4 DUP4 ADD MSTORE PUSH1 0x64 DUP1 CALLDATALOAD PUSH1 0x24 DUP5 ADD MSTORE CALLER SWAP2 DUP4 ADD SWAP2 SWAP1 SWAP2 MSTORE SWAP1 SWAP3 SWAP1 DUP2 SWAP1 DUP5 SWAP1 DUP2 DUP4 DUP7 GAS CALL SWAP3 DUP4 ISZERO PUSH2 0x41F JUMPI PUSH1 0x20 SWAP4 PUSH2 0x40F JUMPI JUMPDEST POP POP PUSH1 0x40 MLOAD SWAP1 DUP2 MSTORE RETURN JUMPDEST DUP2 PUSH2 0x419 SWAP2 PUSH2 0x512 JUMP JUMPDEST CODESIZE PUSH2 0x405 JUMP JUMPDEST POP PUSH1 0x40 MLOAD SWAP1 RETURNDATASIZE SWAP1 DUP3 RETURNDATACOPY RETURNDATASIZE SWAP1 REVERT JUMPDEST POP DUP1 REVERT JUMPDEST PUSH1 0x40 MLOAD PUSH4 0x64E329CB PUSH1 0xE1 SHL DUP2 MSTORE PUSH1 0x1 PUSH1 0x1 PUSH1 0xA0 SHL SUB SWAP5 DUP6 AND PUSH1 0x4 DUP3 ADD MSTORE SWAP2 SWAP1 SWAP4 AND PUSH1 0x24 DUP3 ADD MSTORE SWAP2 PUSH1 0x20 SWAP2 POP DUP3 SWAP1 PUSH1 0x44 SWAP1 DUP3 SWAP1 DUP7 SWAP1 GAS CALL SWAP1 DUP2 ISZERO PUSH2 0x1ED JUMPI DUP3 SWAP2 PUSH2 0x47D JUMPI JUMPDEST POP DUP1 CODESIZE DUP1 PUSH2 0x3AF JUMP JUMPDEST PUSH2 0x496 SWAP2 POP PUSH1 0x20 RETURNDATASIZE PUSH1 0x20 GT PUSH2 0x22D JUMPI PUSH2 0x21F DUP2 DUP4 PUSH2 0x512 JUMP JUMPDEST CODESIZE PUSH2 0x474 JUMP JUMPDEST PUSH2 0x4B6 SWAP2 SWAP4 POP PUSH1 0x20 RETURNDATASIZE PUSH1 0x20 GT PUSH2 0x22D JUMPI PUSH2 0x21F DUP2 DUP4 PUSH2 0x512 JUMP JUMPDEST SWAP2 CODESIZE PUSH2 0x39E JUMP JUMPDEST SWAP1 POP CALLVALUE PUSH2 0x42C JUMPI DUP2 PUSH1 0x3 NOT CALLDATASIZE ADD SLT PUSH2 0x42C JUMPI SWAP1 SLOAD PUSH1 0x1 PUSH1 0x1 PUSH1 0xA0 SHL SUB AND DUP2 MSTORE PUSH1 0x20 SWAP1 RETURN JUMPDEST PUSH1 0x4 CALLDATALOAD SWAP1 PUSH1 0x1 PUSH1 0x1 PUSH1 0xA0 SHL SUB DUP3 AND DUP3 SUB PUSH2 0x4F7 JUMPI JUMP JUMPDEST PUSH1 0x0 DUP1 REVERT JUMPDEST PUSH1 0x24 CALLDATALOAD SWAP1 PUSH1 0x1 PUSH1 0x1 PUSH1 0xA0 SHL SUB DUP3 AND DUP3 SUB PUSH2 0x4F7 JUMPI JUMP JUMPDEST SWAP1 PUSH1 0x1F DUP1 NOT SWAP2 ADD AND DUP2 ADD SWAP1 DUP2 LT PUSH8 0xFFFFFFFFFFFFFFFF DUP3 GT OR PUSH2 0x534 JUMPI PUSH1 0x40 MSTORE JUMP JUMPDEST PUSH4 0x4E487B71 PUSH1 0xE0 SHL PUSH1 0x0 MSTORE PUSH1 0x41 PUSH1 0x4 MSTORE PUSH1 0x24 PUSH1 0x0 REVERT JUMPDEST SWAP1 DUP2 PUSH1 0x20 SWAP2 SUB SLT PUSH2 0x4F7 JUMPI MLOAD PUSH1 0x1 PUSH1 0x1 PUSH1 0xA0 SHL SUB DUP2 AND DUP2 SUB PUSH2 0x4F7 JUMPI SWAP1 JUMP INVALID LOG1 PUSH5 0x736F6C6343 STOP ADDMOD SHR STOP EXP "
        },
        "methodIdentifiers": {
          "addLiquidity(address,address,uint256,uint256)": "cf6c62ea",
          "factory()": "c45a0155",
          "swap(address,address,uint256)": "df791e50"
        }
      },
      "storageLayout": {
        "storage": [
          {
            "astId": 1835,
            "contract": "contracts/TpayRouter.sol:TpayRouter",
            "label": "factory",
            "offset": 0,
            "slot": "0",
            "type": "t_contract(TpayFactory)1108"
          }
        ],
        "types": {
          "t_contract(TpayFactory)1108": {
            "encoding": "inplace",
            "label": "contract TpayFactory",
            "numberOfBytes": "20"
          }
        }
      }
    }
  }
}