{
  "contracts/TpayFarm.sol": {
    "TpayFarm": {
      "abi": [
        {
          "inputs": [
            {
              "internalType": "address",
              "name": "_tpay",
              "type": "address"
            },
            {
              "internalType": "uint256",
              "name": "_tpayPerBlock",
              "type": "uint256"
            },
            {
              "internalType": "uint256",
              "name": "_startBlock",
              "type": "uint256"
            }
          ],
          "stateMutability": "nonpayable",
          "type": "constructor"
        },
        {
          "inputs": [
            {
              "internalType": "address",
              "name": "owner",
              "type": "address"
            }
          ],
          "name": "OwnableInvalidOwner",
          "type": "error"
        },
        {
          "inputs": [
            {
              "internalType": "address",
              "name": "account",
              "type": "address"
            }
          ],
          "name": "OwnableUnauthorizedAccount",
          "type": "error"
        },
        {
          "anonymous": false,
          "inputs": [
            {
              "indexed": true,
              "internalType": "address",
              "name": "previousOwner",
              "type": "address"
            },
            {
              "indexed": true,
              "internalType": "address",
              "name": "newOwner",
              "type": "address"
            }
          ],
          "name": "OwnershipTransferred",
          "type": "event"
        },
        {
          "inputs": [
            {
              "internalType": "uint256",
              "name": "_allocPoint",
              "type": "uint256"
            },
            {
              "internalType": "contract IERC20",
              "name": "_lpToken",
              "type": "address"
            }
          ],
          "name": "addPool",
          "outputs": [],
          "stateMutability": "nonpayable",
          "type": "function"
        },
        {
          "inputs": [
            {
              "internalType": "uint256",
              "name": "_pid",
              "type": "uint256"
            },
            {
              "internalType": "uint256",
              "name": "_amount",
              "type": "uint256"
            }
          ],
          "name": "deposit",
          "outputs": [],
          "stateMutability": "nonpayable",
          "type": "function"
        },
        {
          "inputs": [
            {
              "internalType": "uint256",
              "name": "_pid",
              "type": "uint256"
            }
          ],
          "name": "emergencyWithdraw",
          "outputs": [],
          "stateMutability": "nonpayable",
          "type": "function"
        },
        {
          "inputs": [],
          "name": "massUpdatePools",
          "outputs": [],
          "stateMutability": "nonpayable",
          "type": "function"
        },
        {
          "inputs": [],
          "name": "owner",
          "outputs": [
            {
              "internalType": "address",
              "name": "",
              "type": "address"
            }
          ],
          "stateMutability": "view",
          "type": "function"
        },
        {
          "inputs": [
            {
              "internalType": "uint256",
              "name": "",
              "type": "uint256"
            }
          ],
          "name": "poolInfo",
          "outputs": [
            {
              "internalType": "contract IERC20",
              "name": "lpToken",
              "type": "address"
            },
            {
              "internalType": "uint256",
              "name": "allocPoint",
              "type": "uint256"
            },
            {
              "internalType": "uint256",
              "name": "lastRewardBlock",
              "type": "uint256"
            },
            {
              "internalType": "uint256",
              "name": "accTpayPerShare",
              "type": "uint256"
            }
          ],
          "stateMutability": "view",
          "type": "function"
        },
        {
          "inputs": [],
          "name": "renounceOwnership",
          "outputs": [],
          "stateMutability": "nonpayable",
          "type": "function"
        },
        {
          "inputs": [],
          "name": "startBlock",
          "outputs": [
            {
              "internalType": "uint256",
              "name": "",
              "type": "uint256"
            }
          ],
          "stateMutability": "view",
          "type": "function"
        },
        {
          "inputs": [],
          "name": "totalAllocPoint",
          "outputs": [
            {
              "internalType": "uint256",
              "name": "",
              "type": "uint256"
            }
          ],
          "stateMutability": "view",
          "type": "function"
        },
        {
          "inputs": [],
          "name": "tpay",
          "outputs": [
            {
              "internalType": "contract TpayToken",
              "name": "",
              "type": "address"
            }
          ],
          "stateMutability": "view",
          "type": "function"
        },
        {
          "inputs": [],
          "name": "tpayPerBlock",
          "outputs": [
            {
              "internalType": "uint256",
              "name": "",
              "type": "uint256"
            }
          ],
          "stateMutability": "view",
          "type": "function"
        },
        {
          "inputs": [
            {
              "internalType": "address",
              "name": "newOwner",
              "type": "address"
            }
          ],
          "name": "transferOwnership",
          "outputs": [],
          "stateMutability": "nonpayable",
          "type": "function"
        },
        {
          "inputs": [
            {
              "internalType": "uint256",
              "name": "_pid",
              "type": "uint256"
            }
          ],
          "name": "updatePool",
          "outputs": [],
          "stateMutability": "nonpayable",
          "type": "function"
        },
        {
          "inputs": [
            {
              "internalType": "uint256",
              "name": "",
              "type": "uint256"
            },
            {
              "internalType": "address",
              "name": "",
              "type": "address"
            }
          ],
          "name": "userInfo",
          "outputs": [
            {
              "internalType": "uint256",
              "name": "amount",
              "type": "uint256"
            },
            {
              "internalType": "uint256",
              "name": "rewardDebt",
              "type": "uint256"
            }
          ],
          "stateMutability": "view",
          "type": "function"
        },
        {
          "inputs": [
            {
              "internalType": "uint256",
              "name": "_pid",
              "type": "uint256"
            },
            {
              "internalType": "uint256",
              "name": "_amount",
              "type": "uint256"
            }
          ],
          "name": "withdraw",
          "outputs": [],
          "stateMutability": "nonpayable",
          "type": "function"
        }
      ],
      "evm": {
        "bytecode": {
          "linkReferences": {},
          "object": "6080346100ee57601f610c1f38819003918201601f19168301916001600160401b038311848410176100f3578084926060946040528339810103126100ee5780516001600160a01b03811691908290036100ee57604060208201519101519033156100d85760008054336001600160a01b0319821681178355604051959290916001600160a01b0316907f8be0079c531659141344cd1fd0a4f28419497f9722a3daafe3b4186f6b6457e09080a36000600355600180546001600160a01b031916919091179055600255600455610b15908161010a8239f35b631e4fbdf760e01b600052600060045260246000fd5b600080fd5b634e487b7160e01b600052604160045260246000fdfe6080604052600436101561001257600080fd5b6000803560e01c80631526fe271461084b578063165da7d51461082d57806317caf6f11461080f57806333ba8882146106ee578063441a3e701461050a57806348cd4cb1146104ec57806351eb05a6146104cf5780635312ea8e1461041f578063630b5ba114610403578063715018a6146103a95780638da5cb5b1461038257806393f1a40b14610326578063a06b2fb0146102fd578063e2bbb158146101505763f2fde38b146100c257600080fd5b3461014d57602036600319011261014d576004356001600160a01b0381169081900361014b576100f0610adf565b80156101375781546001600160a01b03198116821783556001600160a01b03167f8be0079c531659141344cd1fd0a4f28419497f9722a3daafe3b4186f6b6457e08380a380f35b631e4fbdf760e01b82526004829052602482fd5b505b80fd5b503461014d5761015f366108df565b610168826108aa565b50908284526006602052610192604080862060009060018060a01b033316825260205220936109ad565b83835480610265575b5050806101c4575b5064e8d4a510006101bd6001926003855491015490610955565b0491015580f35b81546040516323b872dd60e01b815233600482015230602482015260448101839052906020908290606490829089906001600160a01b03165af192831561025a5761022364e8d4a51000936101bd9360019661022d575b5086546108fa565b85559250506101a3565b61024e9060203d602011610253575b610246818361091d565b810190610995565b61021b565b503d61023c565b6040513d87823e3d90fd5b64e8d4a5100061027d61028992600387015490610955565b04600186015490610988565b801561019b576001546001600160a01b0316803b156102f957604051634d64e11d60e11b8152336004820152602481019290925282908290604490829084905af180156102ee571561019b57816102df9161091d565b6102ea57833861019b565b8380fd5b6040513d84823e3d90fd5b8280fd5b503461014d578060031936011261014d576001546040516001600160a01b039091168152602090f35b503461014d57604036600319011261014d57602435906001600160a01b038216820361014d5760409060043581526006602052209060018060a01b03166000526020526040806000206001815491015482519182526020820152f35b503461014d578060031936011261014d57546040516001600160a01b039091168152602090f35b503461014d578060031936011261014d576103c2610adf565b80546001600160a01b03198116825581906001600160a01b03167f8be0079c531659141344cd1fd0a4f28419497f9722a3daafe3b4186f6b6457e08280a380f35b503461014d578060031936011261014d5761041c610abc565b80f35b503461014d57602036600319011261014d57808060043561043f816108aa565b509082526006602090815260408084203360008181529184529082902093548454925163a9059cbb60e01b81526004810192909252602482019290925293849160449183916001600160a01b03165af19182156104c4576001926104a7575b50828155015580f35b6104bf9060203d60201161025357610246818361091d565b61049e565b6040513d85823e3d90fd5b503461014d57602036600319011261014d5761041c6004356109ad565b503461014d578060031936011261014d576020600454604051908152f35b503461014d57610519366108df565b610522826108aa565b509180845260066020526040842060018060a01b03331685526020526040842090828254106106b457610554906109ad565b8381549264e8d4a5100061056e6003870195865490610955565b04946105806001850196875490610988565b8061063f575b50816105aa575b50505064e8d4a51000916105a49154905490610955565b04905580f35b816105f9916105bf6020948798969854610988565b86555460405163a9059cbb60e01b81523360048201526024810192909252909586926001600160a01b039092169183919082906044820190565b03925af191821561025a5764e8d4a51000936105a493610620575b8692945081935061058d565b6106389060203d60201161025357610246818361091d565b5038610614565b600154929391926001600160a01b031690813b156102f957604051634d64e11d60e11b8152336004820152602481019190915291908290604490829084905af180156106a957610693575b90869291610586565b866106a1919792939761091d565b94903861068a565b6040513d89823e3d90fd5b60405162461bcd60e51b815260206004820152601260248201527115da5d1a191c985dc80f8819195c1bdcda5d60721b6044820152606490fd5b503461014d57604036600319011261014d576024356001600160a01b03811691906004359083900361014b57610722610adf565b61072a610abc565b610736816003546108fa565b60035560045480431160001461080a5750435b604051936080850185811067ffffffffffffffff8211176107f657604052845260208401918252604084019081526060840190838252600554680100000000000000008110156107f6578060016107a392016005556108aa565b9390936107e257600393949560018060a01b039051166bffffffffffffffffffffffff60a01b8654161785555160018501555160028401555191015580f35b634e487b7160e01b85526004859052602485fd5b634e487b7160e01b85526041600452602485fd5b610749565b503461014d578060031936011261014d576020600354604051908152f35b503461014d578060031936011261014d576020600254604051908152f35b503461014d57602036600319011261014d576004359060055482101561014d576080610876836108aa565b5060018060a01b03815416906001810154906003600282015491015491604051938452602084015260408301526060820152f35b6005548110156108c957600560005260206000209060021b0190600090565b634e487b7160e01b600052603260045260246000fd5b60409060031901126108f5576004359060243590565b600080fd5b9190820180921161090757565b634e487b7160e01b600052601160045260246000fd5b90601f8019910116810190811067ffffffffffffffff82111761093f57604052565b634e487b7160e01b600052604160045260246000fd5b8181029291811591840414171561090757565b8115610972570490565b634e487b7160e01b600052601260045260246000fd5b9190820391821161090757565b908160209103126108f5575180151581036108f55790565b6109b6906108aa565b5060028101908154431115610ab85780546040516370a0823160e01b815230600482015290602090829060249082906001600160a01b03165afa908115610aac57600091610a7a575b508015610a7357610a37610a2e610a23610a1a865443610988565b60025490610955565b600185015490610955565b60035490610968565b9064e8d4a5100082029180830464e8d4a51000149015171561090757610a62600391610a6c93610968565b92019182546108fa565b9055439055565b5050439055565b90506020813d602011610aa4575b81610a956020938361091d565b810103126108f55751386109ff565b3d9150610a88565b6040513d6000823e3d90fd5b5050565b60055460005b818110610acd575050565b80610ad96001926109ad565b01610ac2565b6000546001600160a01b03163303610af357565b63118cdaa760e01b6000523360045260246000fdfea164736f6c634300081c000a",
          "opcodes": "PUSH1 0x80 CALLVALUE PUSH2 0xEE JUMPI PUSH1 0x1F PUSH2 0xC1F CODESIZE DUP2 SWAP1 SUB SWAP2 DUP3 ADD PUSH1 0x1F NOT AND DUP4 ADD SWAP2 PUSH1 0x1 PUSH1 0x1 PUSH1 0x40 SHL SUB DUP4 GT DUP5 DUP5 LT OR PUSH2 0xF3 JUMPI DUP1 DUP5 SWAP3 PUSH1 0x60 SWAP5 PUSH1 0x40 MSTORE DUP4 CODECOPY DUP2 ADD SUB SLT PUSH2 0xEE JUMPI DUP1 MLOAD PUSH1 0x1 PUSH1 0x1 PUSH1 0xA0 SHL SUB DUP2 AND SWAP2 SWAP1 DUP3 SWAP1 SUB PUSH2 0xEE JUMPI PUSH1 0x40 PUSH1 0x20 DUP3 ADD MLOAD SWAP2 ADD MLOAD SWAP1 CALLER ISZERO PUSH2 0xD8 JUMPI PUSH1 0x0 DUP1 SLOAD CALLER PUSH1 0x1 PUSH1 0x1 PUSH1 0xA0 SHL SUB NOT DUP3 AND DUP2 OR DUP4 SSTORE PUSH1 0x40 MLOAD SWAP6 SWAP3 SWAP1 SWAP2 PUSH1 0x1 PUSH1 0x1 PUSH1 0xA0 SHL SUB AND SWAP1 PUSH32 0x8BE0079C531659141344CD1FD0A4F28419497F9722A3DAAFE3B4186F6B6457E0 SWAP1 DUP1 LOG3 PUSH1 0x0 PUSH1 0x3 SSTORE PUSH1 0x1 DUP1 SLOAD PUSH1 0x1 PUSH1 0x1 PUSH1 0xA0 SHL SUB NOT AND SWAP2 SWAP1 SWAP2 OR SWAP1 SSTORE PUSH1 0x2 SSTORE PUSH1 0x4 SSTORE PUSH2 0xB15 SWAP1 DUP2 PUSH2 0x10A DUP3 CODECOPY RETURN JUMPDEST PUSH4 0x1E4FBDF7 PUSH1 0xE0 SHL PUSH1 0x0 MSTORE PUSH1 0x0 PUSH1 0x4 MSTORE PUSH1 0x24 PUSH1 0x0 REVERT JUMPDEST PUSH1 0x0 DUP1 REVERT JUMPDEST PUSH4 0x4E487B71 PUSH1 0xE0 SHL PUSH1 0x0 MSTORE PUSH1 0x41 PUSH1 0x4 MSTORE PUSH1 0x24 PUSH1 0x0 REVERT INVALID PUSH1 0x80 PUSH1 0x40 MSTORE PUSH1 0x4 CALLDATASIZE LT ISZERO PUSH2 0x12 JUMPI PUSH1 0x0 DUP1 REVERT JUMPDEST PUSH1 0x0 DUP1 CALLDATALOAD PUSH1 0xE0 SHR DUP1 PUSH4 0x1526FE27 EQ PUSH2 0x84B JUMPI DUP1 PUSH4 0x165DA7D5 EQ PUSH2 0x82D JUMPI DUP1 PUSH4 0x17CAF6F1 EQ PUSH2 0x80F JUMPI DUP1 PUSH4 0x33BA8882 EQ PUSH2 0x6EE JUMPI DUP1 PUSH4 0x441A3E70 EQ PUSH2 0x50A JUMPI DUP1 PUSH4 0x48CD4CB1 EQ PUSH2 0x4EC JUMPI DUP1 PUSH4 0x51EB05A6 EQ PUSH2 0x4CF JUMPI DUP1 PUSH4 0x5312EA8E EQ PUSH2 0x41F JUMPI DUP1 PUSH4 0x630B5BA1 EQ PUSH2 0x403 JUMPI DUP1 PUSH4 0x715018A6 EQ PUSH2 0x3A9 JUMPI DUP1 PUSH4 0x8DA5CB5B EQ PUSH2 0x382 JUMPI DUP1 PUSH4 0x93F1A40B EQ PUSH2 0x326 JUMPI DUP1 PUSH4 0xA06B2FB0 EQ PUSH2 0x2FD JUMPI DUP1 PUSH4 0xE2BBB158 EQ PUSH2 0x150 JUMPI PUSH4 0xF2FDE38B EQ PUSH2 0xC2 JUMPI PUSH1 0x0 DUP1 REVERT JUMPDEST CALLVALUE PUSH2 0x14D JUMPI PUSH1 0x20 CALLDATASIZE PUSH1 0x3 NOT ADD SLT PUSH2 0x14D JUMPI PUSH1 0x4 CALLDATALOAD PUSH1 0x1 PUSH1 0x1 PUSH1 0xA0 SHL SUB DUP2 AND SWAP1 DUP2 SWAP1 SUB PUSH2 0x14B JUMPI PUSH2 0xF0 PUSH2 0xADF JUMP JUMPDEST DUP1 ISZERO PUSH2 0x137 JUMPI DUP2 SLOAD PUSH1 0x1 PUSH1 0x1 PUSH1 0xA0 SHL SUB NOT DUP2 AND DUP3 OR DUP4 SSTORE PUSH1 0x1 PUSH1 0x1 PUSH1 0xA0 SHL SUB AND PUSH32 0x8BE0079C531659141344CD1FD0A4F28419497F9722A3DAAFE3B4186F6B6457E0 DUP4 DUP1 LOG3 DUP1 RETURN JUMPDEST PUSH4 0x1E4FBDF7 PUSH1 0xE0 SHL DUP3 MSTORE PUSH1 0x4 DUP3 SWAP1 MSTORE PUSH1 0x24 DUP3 REVERT JUMPDEST POP JUMPDEST DUP1 REVERT JUMPDEST POP CALLVALUE PUSH2 0x14D JUMPI PUSH2 0x15F CALLDATASIZE PUSH2 0x8DF JUMP JUMPDEST PUSH2 0x168 DUP3 PUSH2 0x8AA JUMP JUMPDEST POP SWAP1 DUP3 DUP5 MSTORE PUSH1 0x6 PUSH1 0x20 MSTORE PUSH2 0x192 PUSH1 0x40 DUP1 DUP7 KECCAK256 PUSH1 0x0 SWAP1 PUSH1 0x1 DUP1 PUSH1 0xA0 SHL SUB CALLER AND DUP3 MSTORE PUSH1 0x20 MSTORE KECCAK256 SWAP4 PUSH2 0x9AD JUMP JUMPDEST DUP4 DUP4 SLOAD DUP1 PUSH2 0x265 JUMPI JUMPDEST POP POP DUP1 PUSH2 0x1C4 JUMPI JUMPDEST POP PUSH5 0xE8D4A51000 PUSH2 0x1BD PUSH1 0x1 SWAP3 PUSH1 0x3 DUP6 SLOAD SWAP2 ADD SLOAD SWAP1 PUSH2 0x955 JUMP JUMPDEST DIV SWAP2 ADD SSTORE DUP1 RETURN JUMPDEST DUP2 SLOAD PUSH1 0x40 MLOAD PUSH4 0x23B872DD PUSH1 0xE0 SHL DUP2 MSTORE CALLER PUSH1 0x4 DUP3 ADD MSTORE ADDRESS PUSH1 0x24 DUP3 ADD MSTORE PUSH1 0x44 DUP2 ADD DUP4 SWAP1 MSTORE SWAP1 PUSH1 0x20 SWAP1 DUP3 SWAP1 PUSH1 0x64 SWAP1 DUP3 SWAP1 DUP10 SWAP1 PUSH1 0x1 PUSH1 0x1 PUSH1 0xA0 SHL SUB AND GAS CALL SWAP3 DUP4 ISZERO PUSH2 0x25A JUMPI PUSH2 0x223 PUSH5 0xE8D4A51000 SWAP4 PUSH2 0x1BD SWAP4 PUSH1 0x1 SWAP7 PUSH2 0x22D JUMPI JUMPDEST POP DUP7 SLOAD PUSH2 0x8FA JUMP JUMPDEST DUP6 SSTORE SWAP3 POP POP PUSH2 0x1A3 JUMP JUMPDEST PUSH2 0x24E SWAP1 PUSH1 0x20 RETURNDATASIZE PUSH1 0x20 GT PUSH2 0x253 JUMPI JUMPDEST PUSH2 0x246 DUP2 DUP4 PUSH2 0x91D JUMP JUMPDEST DUP2 ADD SWAP1 PUSH2 0x995 JUMP JUMPDEST PUSH2 0x21B JUMP JUMPDEST POP RETURNDATASIZE PUSH2 0x23C JUMP JUMPDEST PUSH1 0x40 MLOAD RETURNDATASIZE DUP8 DUP3 RETURNDATACOPY RETURNDATASIZE SWAP1 REVERT JUMPDEST PUSH5 0xE8D4A51000 PUSH2 0x27D PUSH2 0x289 SWAP3 PUSH1 0x3 DUP8 ADD SLOAD SWAP1 PUSH2 0x955 JUMP JUMPDEST DIV PUSH1 0x1 DUP7 ADD SLOAD SWAP1 PUSH2 0x988 JUMP JUMPDEST DUP1 ISZERO PUSH2 0x19B JUMPI PUSH1 0x1 SLOAD PUSH1 0x1 PUSH1 0x1 PUSH1 0xA0 SHL SUB AND DUP1 EXTCODESIZE ISZERO PUSH2 0x2F9 JUMPI PUSH1 0x40 MLOAD PUSH4 0x4D64E11D PUSH1 0xE1 SHL DUP2 MSTORE CALLER PUSH1 0x4 DUP3 ADD MSTORE PUSH1 0x24 DUP2 ADD SWAP3 SWAP1 SWAP3 MSTORE DUP3 SWAP1 DUP3 SWAP1 PUSH1 0x44 SWAP1 DUP3 SWAP1 DUP5 SWAP1 GAS CALL DUP1 ISZERO PUSH2 0x2EE JUMPI ISZERO PUSH2 0x19B JUMPI DUP2 PUSH2 0x2DF SWAP2 PUSH2 0x91D JUMP JUMPDEST PUSH2 0x2EA JUMPI DUP4 CODESIZE PUSH2 0x19B JUMP JUMPDEST DUP4 DUP1 REVERT JUMPDEST PUSH1 0x40 MLOAD RETURNDATASIZE DUP5 DUP3 RETURNDATACOPY RETURNDATASIZE SWAP1 REVERT JUMPDEST DUP3 DUP1 REVERT JUMPDEST POP CALLVALUE PUSH2 0x14D JUMPI DUP1 PUSH1 0x3 NOT CALLDATASIZE ADD SLT PUSH2 0x14D JUMPI PUSH1 0x1 SLOAD PUSH1 0x40 MLOAD PUSH1 0x1 PUSH1 0x1 PUSH1 0xA0 SHL SUB SWAP1 SWAP2 AND DUP2 MSTORE PUSH1 0x20 SWAP1 RETURN JUMPDEST POP CALLVALUE PUSH2 0x14D JUMPI PUSH1 0x40 CALLDATASIZE PUSH1 0x3 NOT ADD SLT PUSH2 0x14D JUMPI PUSH1 0x24 CALLDATALOAD SWAP1 PUSH1 0x1 PUSH1 0x1 PUSH1 0xA0 SHL SUB DUP3 AND DUP3 SUB PUSH2 0x14D JUMPI PUSH1 0x40 SWAP1 PUSH1 0x4 CALLDATALOAD DUP2 MSTORE PUSH1 0x6 PUSH1 0x20 MSTORE KECCAK256 SWAP1 PUSH1 0x1 DUP1 PUSH1 0xA0 SHL SUB AND PUSH1 0x0 MSTORE PUSH1 0x20 MSTORE PUSH1 0x40 DUP1 PUSH1 0x0 KECCAK256 PUSH1 0x1 DUP2 SLOAD SWAP2 ADD SLOAD DUP3 MLOAD SWAP2 DUP3 MSTORE PUSH1 0x20 DUP3 ADD MSTORE RETURN JUMPDEST POP CALLVALUE PUSH2 0x14D JUMPI DUP1 PUSH1 0x3 NOT CALLDATASIZE ADD SLT PUSH2 0x14D JUMPI SLOAD PUSH1 0x40 MLOAD PUSH1 0x1 PUSH1 0x1 PUSH1 0xA0 SHL SUB SWAP1 SWAP2 AND DUP2 MSTORE PUSH1 0x20 SWAP1 RETURN JUMPDEST POP CALLVALUE PUSH2 0x14D JUMPI DUP1 PUSH1 0x3 NOT CALLDATASIZE ADD SLT PUSH2 0x14D JUMPI PUSH2 0x3C2 PUSH2 0xADF JUMP JUMPDEST DUP1 SLOAD PUSH1 0x1 PUSH1 0x1 PUSH1 0xA0 SHL SUB NOT DUP2 AND DUP3 SSTORE DUP2 SWAP1 PUSH1 0x1 PUSH1 0x1 PUSH1 0xA0 SHL SUB AND PUSH32 0x8BE0079C531659141344CD1FD0A4F28419497F9722A3DAAFE3B4186F6B6457E0 DUP3 DUP1 LOG3 DUP1 RETURN JUMPDEST POP CALLVALUE PUSH2 0x14D JUMPI DUP1 PUSH1 0x3 NOT CALLDATASIZE ADD SLT PUSH2 0x14D JUMPI PUSH2 0x41C PUSH2 0xABC JUMP JUMPDEST DUP1 RETURN JUMPDEST POP CALLVALUE PUSH2 0x14D JUMPI PUSH1 0x20 CALLDATASIZE PUSH1 0x3 NOT ADD SLT PUSH2 0x14D JUMPI DUP1 DUP1 PUSH1 0x4 CALLDATALOAD PUSH2 0x43F DUP2 PUSH2 0x8AA JUMP JUMPDEST POP SWAP1 DUP3 MSTORE PUSH1 0x6 PUSH1 0x20 SWAP1 DUP2 MSTORE PUSH1 0x40 DUP1 DUP5 KECCAK256 CALLER PUSH1 0x0 DUP2 DUP2 MSTORE SWAP2 DUP5 MSTORE SWAP1 DUP3 SWAP1 KECCAK256 SWAP4 SLOAD DUP5 SLOAD SWAP3 MLOAD PUSH4 0xA9059CBB PUSH1 0xE0 SHL DUP2 MSTORE PUSH1 0x4 DUP2 ADD SWAP3 SWAP1 SWAP3 MSTORE PUSH1 0x24 DUP3 ADD SWAP3 SWAP1 SWAP3 MSTORE SWAP4 DUP5 SWAP2 PUSH1 0x44 SWAP2 DUP4 SWAP2 PUSH1 0x1 PUSH1 0x1 PUSH1 0xA0 SHL SUB AND GAS CALL SWAP2 DUP3 ISZERO PUSH2 0x4C4 JUMPI PUSH1 0x1 SWAP3 PUSH2 0x4A7 JUMPI JUMPDEST POP DUP3 DUP2 SSTORE ADD SSTORE DUP1 RETURN JUMPDEST PUSH2 0x4BF SWAP1 PUSH1 0x20 RETURNDATASIZE PUSH1 0x20 GT PUSH2 0x253 JUMPI PUSH2 0x246 DUP2 DUP4 PUSH2 0x91D JUMP JUMPDEST PUSH2 0x49E JUMP JUMPDEST PUSH1 0x40 MLOAD RETURNDATASIZE DUP6 DUP3 RETURNDATACOPY RETURNDATASIZE SWAP1 REVERT JUMPDEST POP CALLVALUE PUSH2 0x14D JUMPI PUSH1 0x20 CALLDATASIZE PUSH1 0x3 NOT ADD SLT PUSH2 0x14D JUMPI PUSH2 0x41C PUSH1 0x4 CALLDATALOAD PUSH2 0x9AD JUMP JUMPDEST POP CALLVALUE PUSH2 0x14D JUMPI DUP1 PUSH1 0x3 NOT CALLDATASIZE ADD SLT PUSH2 0x14D JUMPI PUSH1 0x20 PUSH1 0x4 SLOAD PUSH1 0x40 MLOAD SWAP1 DUP2 MSTORE RETURN JUMPDEST POP CALLVALUE PUSH2 0x14D JUMPI PUSH2 0x519 CALLDATASIZE PUSH2 0x8DF JUMP JUMPDEST PUSH2 0x522 DUP3 PUSH2 0x8AA JUMP JUMPDEST POP SWAP2 DUP1 DUP5 MSTORE PUSH1 0x6 PUSH1 0x20 MSTORE PUSH1 0x40 DUP5 KECCAK256 PUSH1 0x1 DUP1 PUSH1 0xA0 SHL SUB CALLER AND DUP6 MSTORE PUSH1 0x20 MSTORE PUSH1 0x40 DUP5 KECCAK256 SWAP1 DUP3 DUP3 SLOAD LT PUSH2 0x6B4 JUMPI PUSH2 0x554 SWAP1 PUSH2 0x9AD JUMP JUMPDEST DUP4 DUP2 SLOAD SWAP3 PUSH5 0xE8D4A51000 PUSH2 0x56E PUSH1 0x3 DUP8 ADD SWAP6 DUP7 SLOAD SWAP1 PUSH2 0x955 JUMP JUMPDEST DIV SWAP5 PUSH2 0x580 PUSH1 0x1 DUP6 ADD SWAP7 DUP8 SLOAD SWAP1 PUSH2 0x988 JUMP JUMPDEST DUP1 PUSH2 0x63F JUMPI JUMPDEST POP DUP2 PUSH2 0x5AA JUMPI JUMPDEST POP POP POP PUSH5 0xE8D4A51000 SWAP2 PUSH2 0x5A4 SWAP2 SLOAD SWAP1 SLOAD SWAP1 PUSH2 0x955 JUMP JUMPDEST DIV SWAP1 SSTORE DUP1 RETURN JUMPDEST DUP2 PUSH2 0x5F9 SWAP2 PUSH2 0x5BF PUSH1 0x20 SWAP5 DUP8 SWAP9 SWAP7 SWAP9 SLOAD PUSH2 0x988 JUMP JUMPDEST DUP7 SSTORE SLOAD PUSH1 0x40 MLOAD PUSH4 0xA9059CBB PUSH1 0xE0 SHL DUP2 MSTORE CALLER PUSH1 0x4 DUP3 ADD MSTORE PUSH1 0x24 DUP2 ADD SWAP3 SWAP1 SWAP3 MSTORE SWAP1 SWAP6 DUP7 SWAP3 PUSH1 0x1 PUSH1 0x1 PUSH1 0xA0 SHL SUB SWAP1 SWAP3 AND SWAP2 DUP4 SWAP2 SWAP1 DUP3 SWAP1 PUSH1 0x44 DUP3 ADD SWAP1 JUMP JUMPDEST SUB SWAP3 GAS CALL SWAP2 DUP3 ISZERO PUSH2 0x25A JUMPI PUSH5 0xE8D4A51000 SWAP4 PUSH2 0x5A4 SWAP4 PUSH2 0x620 JUMPI JUMPDEST DUP7 SWAP3 SWAP5 POP DUP2 SWAP4 POP PUSH2 0x58D JUMP JUMPDEST PUSH2 0x638 SWAP1 PUSH1 0x20 RETURNDATASIZE PUSH1 0x20 GT PUSH2 0x253 JUMPI PUSH2 0x246 DUP2 DUP4 PUSH2 0x91D JUMP JUMPDEST POP CODESIZE PUSH2 0x614 JUMP JUMPDEST PUSH1 0x1 SLOAD SWAP3 SWAP4 SWAP2 SWAP3 PUSH1 0x1 PUSH1 0x1 PUSH1 0xA0 SHL SUB AND SWAP1 DUP2 EXTCODESIZE ISZERO PUSH2 0x2F9 JUMPI PUSH1 0x40 MLOAD PUSH4 0x4D64E11D PUSH1 0xE1 SHL DUP2 MSTORE CALLER PUSH1 0x4 DUP3 ADD MSTORE PUSH1 0x24 DUP2 ADD SWAP2 SWAP1 SWAP2 MSTORE SWAP2 SWAP1 DUP3 SWAP1 PUSH1 0x44 SWAP1 DUP3 SWAP1 DUP5 SWAP1 GAS CALL DUP1 ISZERO PUSH2 0x6A9 JUMPI PUSH2 0x693 JUMPI JUMPDEST SWAP1 DUP7 SWAP3 SWAP2 PUSH2 0x586 JUMP JUMPDEST DUP7 PUSH2 0x6A1 SWAP2 SWAP8 SWAP3 SWAP4 SWAP8 PUSH2 0x91D JUMP JUMPDEST SWAP5 SWAP1 CODESIZE PUSH2 0x68A JUMP JUMPDEST PUSH1 0x40 MLOAD RETURNDATASIZE DUP10 DUP3 RETURNDATACOPY RETURNDATASIZE SWAP1 REVERT JUMPDEST PUSH1 0x40 MLOAD PUSH3 0x461BCD PUSH1 0xE5 SHL DUP2 MSTORE PUSH1 0x20 PUSH1 0x4 DUP3 ADD MSTORE PUSH1 0x12 PUSH1 0x24 DUP3 ADD MSTORE PUSH18 0x15DA5D1A191C985DC80F8819195C1BDCDA5D PUSH1 0x72 SHL PUSH1 0x44 DUP3 ADD MSTORE PUSH1 0x64 SWAP1 REVERT JUMPDEST POP CALLVALUE PUSH2 0x14D JUMPI PUSH1 0x40 CALLDATASIZE PUSH1 0x3 NOT ADD SLT PUSH2 0x14D JUMPI PUSH1 0x24 CALLDATALOAD PUSH1 0x1 PUSH1 0x1 PUSH1 0xA0 SHL SUB DUP2 AND SWAP2 SWAP1 PUSH1 0x4 CALLDATALOAD SWAP1 DUP4 SWAP1 SUB PUSH2 0x14B JUMPI PUSH2 0x722 PUSH2 0xADF JUMP JUMPDEST PUSH2 0x72A PUSH2 0xABC JUMP JUMPDEST PUSH2 0x736 DUP2 PUSH1 0x3 SLOAD PUSH2 0x8FA JUMP JUMPDEST PUSH1 0x3 SSTORE PUSH1 0x4 SLOAD DUP1 NUMBER GT PUSH1 0x0 EQ PUSH2 0x80A JUMPI POP NUMBER JUMPDEST PUSH1 0x40 MLOAD SWAP4 PUSH1 0x80 DUP6 ADD DUP6 DUP2 LT PUSH8 0xFFFFFFFFFFFFFFFF DUP3 GT OR PUSH2 0x7F6 JUMPI PUSH1 0x40 MSTORE DUP5 MSTORE PUSH1 0x20 DUP5 ADD SWAP2 DUP3 MSTORE PUSH1 0x40 DUP5 ADD SWAP1 DUP2 MSTORE PUSH1 0x60 DUP5 ADD SWAP1 DUP4 DUP3 MSTORE PUSH1 0x5 SLOAD PUSH9 0x10000000000000000 DUP2 LT ISZERO PUSH2 0x7F6 JUMPI DUP1 PUSH1 0x1 PUSH2 0x7A3 SWAP3 ADD PUSH1 0x5 SSTORE PUSH2 0x8AA JUMP JUMPDEST SWAP4 SWAP1 SWAP4 PUSH2 0x7E2 JUMPI PUSH1 0x3 SWAP4 SWAP5 SWAP6 PUSH1 0x1 DUP1 PUSH1 0xA0 SHL SUB SWAP1 MLOAD AND PUSH12 0xFFFFFFFFFFFFFFFFFFFFFFFF PUSH1 0xA0 SHL DUP7 SLOAD AND OR DUP6 SSTORE MLOAD PUSH1 0x1 DUP6 ADD SSTORE MLOAD PUSH1 0x2 DUP5 ADD SSTORE MLOAD SWAP2 ADD SSTORE DUP1 RETURN JUMPDEST PUSH4 0x4E487B71 PUSH1 0xE0 SHL DUP6 MSTORE PUSH1 0x4 DUP6 SWAP1 MSTORE PUSH1 0x24 DUP6 REVERT JUMPDEST PUSH4 0x4E487B71 PUSH1 0xE0 SHL DUP6 MSTORE PUSH1 0x41 PUSH1 0x4 MSTORE PUSH1 0x24 DUP6 REVERT JUMPDEST PUSH2 0x749 JUMP JUMPDEST POP CALLVALUE PUSH2 0x14D JUMPI DUP1 PUSH1 0x3 NOT CALLDATASIZE ADD SLT PUSH2 0x14D JUMPI PUSH1 0x20 PUSH1 0x3 SLOAD PUSH1 0x40 MLOAD SWAP1 DUP2 MSTORE RETURN JUMPDEST POP CALLVALUE PUSH2 0x14D JUMPI DUP1 PUSH1 0x3 NOT CALLDATASIZE ADD SLT PUSH2 0x14D JUMPI PUSH1 0x20 PUSH1 0x2 SLOAD PUSH1 0x40 MLOAD SWAP1 DUP2 MSTORE RETURN JUMPDEST POP CALLVALUE PUSH2 0x14D JUMPI PUSH1 0x20 CALLDATASIZE PUSH1 0x3 NOT ADD SLT PUSH2 0x14D JUMPI PUSH1 0x4 CALLDATALOAD SWAP1 PUSH1 0x5 SLOAD DUP3 LT ISZERO PUSH2 0x14D JUMPI PUSH1 0x80 PUSH2 0x876 DUP4 PUSH2 0x8AA JUMP JUMPDEST POP PUSH1 0x1 DUP1 PUSH1 0xA0 SHL SUB DUP2 SLOAD AND SWAP1 PUSH1 0x1 DUP2 ADD SLOAD SWAP1 PUSH1 0x3 PUSH1 0x2 DUP3 ADD SLOAD SWAP2 ADD SLOAD SWAP2 PUSH1 0x40 MLOAD SWAP4 DUP5 MSTORE PUSH1 0x20 DUP5 ADD MSTORE PUSH1 0x40 DUP4 ADD MSTORE PUSH1 0x60 DUP3 ADD MSTORE RETURN JUMPDEST PUSH1 0x5 SLOAD DUP2 LT ISZERO PUSH2 0x8C9 JUMPI PUSH1 0x5 PUSH1 0x0 MSTORE PUSH1 0x20 PUSH1 0x0 KECCAK256 SWAP1 PUSH1 0x2 SHL ADD SWAP1 PUSH1 0x0 SWAP1 JUMP JUMPDEST PUSH4 0x4E487B71 PUSH1 0xE0 SHL PUSH1 0x0 MSTORE PUSH1 0x32 PUSH1 0x4 MSTORE PUSH1 0x24 PUSH1 0x0 REVERT JUMPDEST PUSH1 0x40 SWAP1 PUSH1 0x3 NOT ADD SLT PUSH2 0x8F5 JUMPI PUSH1 0x4 CALLDATALOAD SWAP1 PUSH1 0x24 CALLDATALOAD SWAP1 JUMP JUMPDEST PUSH1 0x0 DUP1 REVERT JUMPDEST SWAP2 SWAP1 DUP3 ADD DUP1 SWAP3 GT PUSH2 0x907 JUMPI JUMP JUMPDEST PUSH4 0x4E487B71 PUSH1 0xE0 SHL PUSH1 0x0 MSTORE PUSH1 0x11 PUSH1 0x4 MSTORE PUSH1 0x24 PUSH1 0x0 REVERT JUMPDEST SWAP1 PUSH1 0x1F DUP1 NOT SWAP2 ADD AND DUP2 ADD SWAP1 DUP2 LT PUSH8 0xFFFFFFFFFFFFFFFF DUP3 GT OR PUSH2 0x93F JUMPI PUSH1 0x40 MSTORE JUMP JUMPDEST PUSH4 0x4E487B71 PUSH1 0xE0 SHL PUSH1 0x0 MSTORE PUSH1 0x41 PUSH1 0x4 MSTORE PUSH1 0x24 PUSH1 0x0 REVERT JUMPDEST DUP2 DUP2 MUL SWAP3 SWAP2 DUP2 ISZERO SWAP2 DUP5 DIV EQ OR ISZERO PUSH2 0x907 JUMPI JUMP JUMPDEST DUP2 ISZERO PUSH2 0x972 JUMPI DIV SWAP1 JUMP JUMPDEST PUSH4 0x4E487B71 PUSH1 0xE0 SHL PUSH1 0x0 MSTORE PUSH1 0x12 PUSH1 0x4 MSTORE PUSH1 0x24 PUSH1 0x0 REVERT JUMPDEST SWAP2 SWAP1 DUP3 SUB SWAP2 DUP3 GT PUSH2 0x907 JUMPI JUMP JUMPDEST SWAP1 DUP2 PUSH1 0x20 SWAP2 SUB SLT PUSH2 0x8F5 JUMPI MLOAD DUP1 ISZERO ISZERO DUP2 SUB PUSH2 0x8F5 JUMPI SWAP1 JUMP JUMPDEST PUSH2 0x9B6 SWAP1 PUSH2 0x8AA JUMP JUMPDEST POP PUSH1 0x2 DUP2 ADD SWAP1 DUP2 SLOAD NUMBER GT ISZERO PUSH2 0xAB8 JUMPI DUP1 SLOAD PUSH1 0x40 MLOAD PUSH4 0x70A08231 PUSH1 0xE0 SHL DUP2 MSTORE ADDRESS PUSH1 0x4 DUP3 ADD MSTORE SWAP1 PUSH1 0x20 SWAP1 DUP3 SWAP1 PUSH1 0x24 SWAP1 DUP3 SWAP1 PUSH1 0x1 PUSH1 0x1 PUSH1 0xA0 SHL SUB AND GAS STATICCALL SWAP1 DUP2 ISZERO PUSH2 0xAAC JUMPI PUSH1 0x0 SWAP2 PUSH2 0xA7A JUMPI JUMPDEST POP DUP1 ISZERO PUSH2 0xA73 JUMPI PUSH2 0xA37 PUSH2 0xA2E PUSH2 0xA23 PUSH2 0xA1A DUP7 SLOAD NUMBER PUSH2 0x988 JUMP JUMPDEST PUSH1 0x2 SLOAD SWAP1 PUSH2 0x955 JUMP JUMPDEST PUSH1 0x1 DUP6 ADD SLOAD SWAP1 PUSH2 0x955 JUMP JUMPDEST PUSH1 0x3 SLOAD SWAP1 PUSH2 0x968 JUMP JUMPDEST SWAP1 PUSH5 0xE8D4A51000 DUP3 MUL SWAP2 DUP1 DUP4 DIV PUSH5 0xE8D4A51000 EQ SWAP1 ISZERO OR ISZERO PUSH2 0x907 JUMPI PUSH2 0xA62 PUSH1 0x3 SWAP2 PUSH2 0xA6C SWAP4 PUSH2 0x968 JUMP JUMPDEST SWAP3 ADD SWAP2 DUP3 SLOAD PUSH2 0x8FA JUMP JUMPDEST SWAP1 SSTORE NUMBER SWAP1 SSTORE JUMP JUMPDEST POP POP NUMBER SWAP1 SSTORE JUMP JUMPDEST SWAP1 POP PUSH1 0x20 DUP2 RETURNDATASIZE PUSH1 0x20 GT PUSH2 0xAA4 JUMPI JUMPDEST DUP2 PUSH2 0xA95 PUSH1 0x20 SWAP4 DUP4 PUSH2 0x91D JUMP JUMPDEST DUP2 ADD SUB SLT PUSH2 0x8F5 JUMPI MLOAD CODESIZE PUSH2 0x9FF JUMP JUMPDEST RETURNDATASIZE SWAP2 POP PUSH2 0xA88 JUMP JUMPDEST PUSH1 0x40 MLOAD RETURNDATASIZE PUSH1 0x0 DUP3 RETURNDATACOPY RETURNDATASIZE SWAP1 REVERT JUMPDEST POP POP JUMP JUMPDEST PUSH1 0x5 SLOAD PUSH1 0x0 JUMPDEST DUP2 DUP2 LT PUSH2 0xACD JUMPI POP POP JUMP JUMPDEST DUP1 PUSH2 0xAD9 PUSH1 0x1 SWAP3 PUSH2 0x9AD JUMP JUMPDEST ADD PUSH2 0xAC2 JUMP JUMPDEST PUSH1 0x0 SLOAD PUSH1 0x1 PUSH1 0x1 PUSH1 0xA0 SHL SUB AND CALLER SUB PUSH2 0xAF3 JUMPI JUMP JUMPDEST PUSH4 0x118CDAA7 PUSH1 0xE0 SHL PUSH1 0x0 MSTORE CALLER PUSH1 0x4 MSTORE PUSH1 0x24 PUSH1 0x0 REVERT INVALID LOG1 PUSH5 0x736F6C6343 STOP ADDMOD SHR STOP EXP "
        },
        "methodIdentifiers": {
          "addPool(uint256,address)": "33ba8882",
          "deposit(uint256,uint256)": "e2bbb158",
          "emergencyWithdraw(uint256)": "5312ea8e",
          "massUpdatePools()": "630b5ba1",
          "owner()": "8da5cb5b",
          "poolInfo(uint256)": "1526fe27",
          "renounceOwnership()": "715018a6",
          "startBlock()": "48cd4cb1",
          "totalAllocPoint()": "17caf6f1",
          "tpay()": "a06b2fb0",
          "tpayPerBlock()": "165da7d5",
          "transferOwnership(address)": "f2fde38b",
          "updatePool(uint256)": "51eb05a6",
          "userInfo(uint256,address)": "93f1a40b",
          "withdraw(uint256,uint256)": "441a3e70"
        }
      },
      "storageLayout": {
        "storage": [
          {
            "astId": 8,
            "contract": "contracts/TpayFarm.sol:TpayFarm",
            "label": "_owner",
            "offset": 0,
            "slot": "0",
            "type": "t_address"
          },
          {
            "astId": 1133,
            "contract": "contracts/TpayFarm.sol:TpayFarm",
            "label": "tpay",
            "offset": 0,
            "slot": "1",
            "type": "t_contract(TpayToken)2169"
          },
          {
            "astId": 1135,
            "contract": "contracts/TpayFarm.sol:TpayFarm",
            "label": "tpayPerBlock",
            "offset": 0,
            "slot": "2",
            "type": "t_uint256"
          },
          {
            "astId": 1138,
            "contract": "contracts/TpayFarm.sol:TpayFarm",
            "label": "totalAllocPoint",
            "offset": 0,
            "slot": "3",
            "type": "t_uint256"
          },
          {
            "astId": 1140,
            "contract": "contracts/TpayFarm.sol:TpayFarm",
            "label": "startBlock",
            "offset": 0,
            "slot": "4",
            "type": "t_uint256"
          },
          {
            "astId": 1144,
            "contract": "contracts/TpayFarm.sol:TpayFarm",
            "label": "poolInfo",
            "offset": 0,
            "slot": "5",
            "type": "t_array(t_struct(PoolInfo)1130_storage)dyn_storage"
          },
          {
            "astId": 1151,
            "contract": "contracts/TpayFarm.sol:TpayFarm",
            "label": "userInfo",
            "offset": 0,
            "slot": "6",
            "type": "t_mapping(t_uint256,t_mapping(t_address,t_struct(UserInfo)1120_storage))"
          }
        ],
        "types": {
          "t_address": {
            "encoding": "inplace",
            "label": "address",
            "numberOfBytes": "20"
          },
          "t_array(t_struct(PoolInfo)1130_storage)dyn_storage": {
            "base": "t_struct(PoolInfo)1130_storage",
            "encoding": "dynamic_array",
            "label": "struct TpayFarm.PoolInfo[]",
            "numberOfBytes": "32"
          },
          "t_contract(IERC20)877": {
            "encoding": "inplace",
            "label": "contract IERC20",
            "numberOfBytes": "20"
          },
          "t_contract(TpayToken)2169": {
            "encoding": "inplace",
            "label": "contract TpayToken",
            "numberOfBytes": "20"
          },
          "t_mapping(t_address,t_struct(UserInfo)1120_storage)": {
            "encoding": "mapping",
            "key": "t_address",
            "label": "mapping(address => struct TpayFarm.UserInfo)",
            "numberOfBytes": "32",
            "value": "t_struct(UserInfo)1120_storage"
          },
          "t_mapping(t_uint256,t_mapping(t_address,t_struct(UserInfo)1120_storage))": {
            "encoding": "mapping",
            "key": "t_uint256",
            "label": "mapping(uint256 => mapping(address => struct TpayFarm.UserInfo))",
            "numberOfBytes": "32",
            "value": "t_mapping(t_address,t_struct(UserInfo)1120_storage)"
          },
          "t_struct(PoolInfo)1130_storage": {
            "encoding": "inplace",
            "label": "struct TpayFarm.PoolInfo",
            "members": [
              {
                "astId": 1123,
                "contract": "contracts/TpayFarm.sol:TpayFarm",
                "label": "lpToken",
                "offset": 0,
                "slot": "0",
                "type": "t_contract(IERC20)877"
              },
              {
                "astId": 1125,
                "contract": "contracts/TpayFarm.sol:TpayFarm",
                "label": "allocPoint",
                "offset": 0,
                "slot": "1",
                "type": "t_uint256"
              },
              {
                "astId": 1127,
                "contract": "contracts/TpayFarm.sol:TpayFarm",
                "label": "lastRewardBlock",
                "offset": 0,
                "slot": "2",
                "type": "t_uint256"
              },
              {
                "astId": 1129,
                "contract": "contracts/TpayFarm.sol:TpayFarm",
                "label": "accTpayPerShare",
                "offset": 0,
                "slot": "3",
                "type": "t_uint256"
              }
            ],
            "numberOfBytes": "128"
          },
          "t_struct(UserInfo)1120_storage": {
            "encoding": "inplace",
            "label": "struct TpayFarm.UserInfo",
            "members": [
              {
                "astId": 1117,
                "contract": "contracts/TpayFarm.sol:TpayFarm",
                "label": "amount",
                "offset": 0,
                "slot": "0",
                "type": "t_uint256"
              },
              {
                "astId": 1119,
                "contract": "contracts/TpayFarm.sol:TpayFarm",
                "label": "rewardDebt",
                "offset": 0,
                "slot": "1",
                "type": "t_uint256"
              }
            ],
            "numberOfBytes": "64"
          },
          "t_uint256": {
            "encoding": "inplace",
            "label": "uint256",
            "numberOfBytes": "32"
          }
        }
      }
    }
  }
}