{
  "_format": "hh-sol-artifact-1",
  "contractName": "TpayRouter",
  "sourceName": "contracts/TpayRouter.sol",
  "abi": [
    {
      "inputs": [
        {
          "internalType": "address",
          "name": "_factory",
          "type": "address"
        }
      ],
      "stateMutability": "nonpayable",
      "type": "constructor"
    },
    {
      "inputs": [
        {
          "internalType": "address",
          "name": "tokenA",
          "type": "address"
        },
        {
          "internalType": "address",
          "name": "tokenB",
          "type": "address"
        },
        {
          "internalType": "uint256",
          "name": "amountA",
          "type": "uint256"
        },
        {
          "internalType": "uint256",
          "name": "amountB",
          "type": "uint256"
        }
      ],
      "name": "addLiquidity",
      "outputs": [
        {
          "internalType": "address",
          "name": "pair",
          "type": "address"
        }
      ],
      "stateMutability": "nonpayable",
      "type": "function"
    },
    {
      "inputs": [],
      "name": "factory",
      "outputs": [
        {
          "internalType": "contract TpayFactory",
          "name": "",
          "type": "address"
        }
      ],
      "stateMutability": "view",
      "type": "function"
    },
    {
      "inputs": [
        {
          "internalType": "address",
          "name": "tokenIn",
          "type": "address"
        },
        {
          "internalType": "address",
          "name": "tokenOut",
          "type": "address"
        },
        {
          "internalType": "uint256",
          "name": "amountOut",
          "type": "uint256"
        }
      ],
      "name": "swap",
      "outputs": [],
      "stateMutability": "nonpayable",
      "type": "function"
    }
  ],
  "bytecode": "0x608060405234801561001057600080fd5b50604051610be2380380610be2833981810160405281019061003291906100db565b806000806101000a81548173ffffffffffffffffffffffffffffffffffffffff021916908373ffffffffffffffffffffffffffffffffffffffff16021790555050610108565b600080fd5b600073ffffffffffffffffffffffffffffffffffffffff82169050919050565b60006100a88261007d565b9050919050565b6100b88161009d565b81146100c357600080fd5b50565b6000815190506100d5816100af565b92915050565b6000602082840312156100f1576100f0610078565b5b60006100ff848285016100c6565b91505092915050565b610acb806101176000396000f3fe608060405234801561001057600080fd5b50600436106100415760003560e01c8063c45a015514610046578063cf6c62ea14610064578063df791e5014610094575b600080fd5b61004e6100b0565b60405161005b9190610711565b60405180910390f35b61007e600480360381019061007991906107a5565b6100d4565b60405161008b919061081b565b60405180910390f35b6100ae60048036038101906100a99190610836565b6102c1565b005b60008054906101000a900473ffffffffffffffffffffffffffffffffffffffff1681565b60008060009054906101000a900473ffffffffffffffffffffffffffffffffffffffff1673ffffffffffffffffffffffffffffffffffffffff1663e6a4390586866040518363ffffffff1660e01b8152600401610132929190610889565b602060405180830381865afa15801561014f573d6000803e3d6000fd5b505050506040513d601f19601f8201168201806040525081019061017391906108c7565b9050600073ffffffffffffffffffffffffffffffffffffffff168173ffffffffffffffffffffffffffffffffffffffff160361024a5760008054906101000a900473ffffffffffffffffffffffffffffffffffffffff1673ffffffffffffffffffffffffffffffffffffffff1663c9c6539686866040518363ffffffff1660e01b8152600401610204929190610889565b6020604051808303816000875af1158015610223573d6000803e3d6000fd5b505050506040513d601f19601f8201168201806040525081019061024791906108c7565b90505b8073ffffffffffffffffffffffffffffffffffffffff166387b21efc8484336040518463ffffffff1660e01b815260040161028793929190610903565b600060405180830381600087803b1580156102a157600080fd5b505af11580156102b5573d6000803e3d6000fd5b50505050949350505050565b60008060009054906101000a900473ffffffffffffffffffffffffffffffffffffffff1673ffffffffffffffffffffffffffffffffffffffff1663e6a4390585856040518363ffffffff1660e01b815260040161031f929190610889565b602060405180830381865afa15801561033c573d6000803e3d6000fd5b505050506040513d601f19601f8201168201806040525081019061036091906108c7565b9050600073ffffffffffffffffffffffffffffffffffffffff168173ffffffffffffffffffffffffffffffffffffffff16036103d1576040517f08c379a00000000000000000000000000000000000000000000000000000000081526004016103c890610997565b60405180910390fd5b8373ffffffffffffffffffffffffffffffffffffffff166323b872dd33838773ffffffffffffffffffffffffffffffffffffffff166370a08231336040518263ffffffff1660e01b8152600401610428919061081b565b602060405180830381865afa158015610445573d6000803e3d6000fd5b505050506040513d601f19601f8201168201806040525081019061046991906109cc565b6040518463ffffffff1660e01b8152600401610487939291906109f9565b6020604051808303816000875af11580156104a6573d6000803e3d6000fd5b505050506040513d601f19601f820116820180604052508101906104ca9190610a68565b508073ffffffffffffffffffffffffffffffffffffffff16636d9a640a8273ffffffffffffffffffffffffffffffffffffffff16630dfe16816040518163ffffffff1660e01b8152600401602060405180830381865afa158015610532573d6000803e3d6000fd5b505050506040513d601f19601f8201168201806040525081019061055691906108c7565b73ffffffffffffffffffffffffffffffffffffffff168673ffffffffffffffffffffffffffffffffffffffff161461058e5783610591565b60005b8373ffffffffffffffffffffffffffffffffffffffff16630dfe16816040518163ffffffff1660e01b8152600401602060405180830381865afa1580156105dc573d6000803e3d6000fd5b505050506040513d601f19601f8201168201806040525081019061060091906108c7565b73ffffffffffffffffffffffffffffffffffffffff168773ffffffffffffffffffffffffffffffffffffffff161461063957600061063b565b845b336040518463ffffffff1660e01b815260040161065a93929190610903565b600060405180830381600087803b15801561067457600080fd5b505af1158015610688573d6000803e3d6000fd5b5050505050505050565b600073ffffffffffffffffffffffffffffffffffffffff82169050919050565b6000819050919050565b60006106d76106d26106cd84610692565b6106b2565b610692565b9050919050565b60006106e9826106bc565b9050919050565b60006106fb826106de565b9050919050565b61070b816106f0565b82525050565b60006020820190506107266000830184610702565b92915050565b600080fd5b600061073c82610692565b9050919050565b61074c81610731565b811461075757600080fd5b50565b60008135905061076981610743565b92915050565b6000819050919050565b6107828161076f565b811461078d57600080fd5b50565b60008135905061079f81610779565b92915050565b600080600080608085870312156107bf576107be61072c565b5b60006107cd8782880161075a565b94505060206107de8782880161075a565b93505060406107ef87828801610790565b925050606061080087828801610790565b91505092959194509250565b61081581610731565b82525050565b6000602082019050610830600083018461080c565b92915050565b60008060006060848603121561084f5761084e61072c565b5b600061085d8682870161075a565b935050602061086e8682870161075a565b925050604061087f86828701610790565b9150509250925092565b600060408201905061089e600083018561080c565b6108ab602083018461080c565b9392505050565b6000815190506108c181610743565b92915050565b6000602082840312156108dd576108dc61072c565b5b60006108eb848285016108b2565b91505092915050565b6108fd8161076f565b82525050565b600060608201905061091860008301866108f4565b61092560208301856108f4565b610932604083018461080c565b949350505050565b600082825260208201905092915050565b7f50616972206e6f7420666f756e64000000000000000000000000000000000000600082015250565b6000610981600e8361093a565b915061098c8261094b565b602082019050919050565b600060208201905081810360008301526109b081610974565b9050919050565b6000815190506109c681610779565b92915050565b6000602082840312156109e2576109e161072c565b5b60006109f0848285016109b7565b91505092915050565b6000606082019050610a0e600083018661080c565b610a1b602083018561080c565b610a2860408301846108f4565b949350505050565b60008115159050919050565b610a4581610a30565b8114610a5057600080fd5b50565b600081519050610a6281610a3c565b92915050565b600060208284031215610a7e57610a7d61072c565b5b6000610a8c84828501610a53565b9150509291505056fea2646970667358221220a672a0134fad22bce0b2489f74774995be80460da6b897221e67d58a1592a75b64736f6c63430008140033",
  "linkReferences": {},
  "deployedLinkReferences": {}
}