{
  "_format": "hh-sol-artifact-1",
  "contractName": "TpayFactory",
  "sourceName": "contracts/TpayFactory.sol",
  "abi": [
    {
      "inputs": [
        {
          "internalType": "address",
          "name": "_feeToSetter",
          "type": "address"
        }
      ],
      "stateMutability": "nonpayable",
      "type": "constructor"
    },
    {
      "anonymous": false,
      "inputs": [
        {
          "indexed": true,
          "internalType": "address",
          "name": "token0",
          "type": "address"
        },
        {
          "indexed": true,
          "internalType": "address",
          "name": "token1",
          "type": "address"
        },
        {
          "indexed": false,
          "internalType": "address",
          "name": "pair",
          "type": "address"
        },
        {
          "indexed": false,
          "internalType": "uint256",
          "name": "",
          "type": "uint256"
        }
      ],
      "name": "PairCreated",
      "type": "event"
    },
    {
      "inputs": [
        {
          "internalType": "uint256",
          "name": "",
          "type": "uint256"
        }
      ],
      "name": "allPairs",
      "outputs": [
        {
          "internalType": "address",
          "name": "",
          "type": "address"
        }
      ],
      "stateMutability": "view",
      "type": "function"
    },
    {
      "inputs": [
        {
          "internalType": "address",
          "name": "tokenA",
          "type": "address"
        },
        {
          "internalType": "address",
          "name": "tokenB",
          "type": "address"
        }
      ],
      "name": "createPair",
      "outputs": [
        {
          "internalType": "address",
          "name": "pair",
          "type": "address"
        }
      ],
      "stateMutability": "nonpayable",
      "type": "function"
    },
    {
      "inputs": [],
      "name": "feeTo",
      "outputs": [
        {
          "internalType": "address",
          "name": "",
          "type": "address"
        }
      ],
      "stateMutability": "view",
      "type": "function"
    },
    {
      "inputs": [],
      "name": "feeToSetter",
      "outputs": [
        {
          "internalType": "address",
          "name": "",
          "type": "address"
        }
      ],
      "stateMutability": "view",
      "type": "function"
    },
    {
      "inputs": [
        {
          "internalType": "address",
          "name": "",
          "type": "address"
        },
        {
          "internalType": "address",
          "name": "",
          "type": "address"
        }
      ],
      "name": "getPair",
      "outputs": [
        {
          "internalType": "address",
          "name": "",
          "type": "address"
        }
      ],
      "stateMutability": "view",
      "type": "function"
    },
    {
      "inputs": [
        {
          "internalType": "address",
          "name": "_feeTo",
          "type": "address"
        }
      ],
      "name": "setFeeTo",
      "outputs": [],
      "stateMutability": "nonpayable",
      "type": "function"
    },
    {
      "inputs": [
        {
          "internalType": "address",
          "name": "_setter",
          "type": "address"
        }
      ],
      "name": "setFeeToSetter",
      "outputs": [],
      "stateMutability": "nonpayable",
      "type": "function"
    }
  ],
  "bytecode": "0x608034607057601f6116e438819003918201601f19168301916001600160401b03831184841017607557808492602094604052833981010312607057516001600160a01b03811690819003607057600180546001600160a01b031916919091179055604051611658908161008c8239f35b600080fd5b634e487b7160e01b600052604160045260246000fdfe6080604052600436101561001257600080fd5b60003560e01c8063017e7e5814610087578063094b7415146100825780631e3dd18b1461007d578063a2e74af614610078578063c9c6539614610073578063e6a439051461006e5763f46901ed1461006957600080fd5b610459565b610407565b6101bb565b61016e565b6100e7565b6100be565b346100ae5760003660031901126100ae576000546001600160a01b03166080908152602090f35b600080fd5b60009103126100ae57565b346100ae5760003660031901126100ae576001546040516001600160a01b039091168152602090f35b346100ae5760203660031901126100ae576004356003548110156100ae5760036000527fc2575a0e9e593c00f959f8c92f12db2869c3395a3b0502d05e2516446f71f85b01546040516001600160a01b039091168152602090f35b600435906001600160a01b03821682036100ae57565b602435906001600160a01b03821682036100ae57565b346100ae5760203660031901126100ae57610187610142565b6001549061019f336001600160a01b038416146104a9565b6001600160a01b03166001600160a01b03199190911617600155005b346100ae5760403660031901126100ae576101d4610142565b6101dc610158565b906001600160a01b038083169082166101f7818314156104e3565b1015610401575b6001600160a01b038181166000908152600260205260409020610252919061024b9061023e9086905b9060018060a01b0316600052602052604060002090565b546001600160a01b031690565b1615610525565b6110136102616020820161059c565b9080825260208201906106398239604051606084811b6bffffffffffffffffffffffff19908116602084019081529187901b16603483015260288252906102a9604882610575565b5190209151906000f56001600160a01b03811692909190833b156100ae5760405163485cc95560e01b81526001600160a01b03838116600483015282166024820152936000908590604490829084905af19384156103fc576103dd946103e1575b5061034e8361032f836102278660018060a01b03166000526002602052604060002090565b80546001600160a01b0319166001600160a01b03909216919091179055565b6103728361032f846102278560018060a01b03166000526002602052604060002090565b61037b836105b8565b600354604080516001600160a01b038681168252602082019390935292821693909116917f0d3648bd0f6ba80134a33ba9275ac585d9d315f0ad8355cddefde31afa28d0e99190a36040516001600160a01b0390911681529081906020820190565b0390f35b806103f060006103f693610575565b806100b3565b3861030a565b6105ac565b906101fe565b346100ae5760403660031901126100ae576020610422610142565b61042a610158565b6001600160a01b0391821660009081526002845260408082209284168252602092909252205416604051908152f35b346100ae5760203660031901126100ae57610472610142565b61048760018060a01b036001541633146104a9565b600080546001600160a01b0319166001600160a01b0392909216919091179055005b156104b057565b60405162461bcd60e51b815260206004820152600b60248201526a139bdd08185b1b1bddd95960aa1b6044820152606490fd5b156104ea57565b60405162461bcd60e51b81526020600482015260136024820152724964656e746963616c2061646472657373657360681b6044820152606490fd5b1561052c57565b60405162461bcd60e51b815260206004820152600b60248201526a506169722065786973747360a81b6044820152606490fd5b634e487b7160e01b600052604160045260246000fd5b90601f8019910116810190811067ffffffffffffffff82111761059757604052565b61055f565b906105aa6040519283610575565b565b6040513d6000823e3d90fd5b600354680100000000000000008110156105975760018101600355600060035482101561062457600390527fc2575a0e9e593c00f959f8c92f12db2869c3395a3b0502d05e2516446f71f85b0180546001600160a01b0319166001600160a01b03909216919091179055565b634e487b7160e01b81526032600452602490fdfe60806040523461032a57604080519081016001600160401b03811182821017610235576040908152600d82526c2a3830bc902628102a37b5b2b760991b602083015280519081016001600160401b038111828210176102355760405260038152620544c560ec1b602082015281516001600160401b03811161023557600354600181811c91168015610320575b602082101461021557601f81116102bb575b50602092601f8211600114610256579281929360009261024b575b50508160011b916000199060031b1c1916176003555b80516001600160401b03811161023557600454600181811c9116801561022b575b602082101461021557601f81116101b0575b50602091601f821160011461014c57918192600092610141575b50508160011b916000199060031b1c1916176004555b604051610ce390816103308239f35b01519050388061011c565b601f198216926004600052806000209160005b8581106101985750836001951061017f575b505050811b01600455610132565b015160001960f88460031b161c19169055388080610171565b9192602060018192868501518155019401920161015f565b60046000527f8a35acfbc15ff81a39ae7d344fd709f28e8600b4aa8c65c6b64bfe7fe36bd19b601f830160051c8101916020841061020b575b601f0160051c01905b8181106101ff5750610102565b600081556001016101f2565b90915081906101e9565b634e487b7160e01b600052602260045260246000fd5b90607f16906100f0565b634e487b7160e01b600052604160045260246000fd5b0151905038806100b9565b601f198216936003600052806000209160005b8681106102a3575083600195961061028a575b505050811b016003556100cf565b015160001960f88460031b161c1916905538808061027c565b91926020600181928685015181550194019201610269565b60036000527fc2575a0e9e593c00f959f8c92f12db2869c3395a3b0502d05e2516446f71f85b601f830160051c81019160208410610316575b601f0160051c01905b81811061030a575061009e565b600081556001016102fd565b90915081906102f4565b90607f169061008c565b600080fdfe608080604052600436101561001357600080fd5b60003560e01c90816306fdde0314610a3c57508063095ea7b3146109b65780630dfe16811461098d57806318160ddd1461096f57806323b872dd14610882578063313ce56714610866578063485cc955146107b05780636d9a640a146104fe57806370a08231146104c457806387b21efc1461027157806395d89b4114610169578063a9059cbb14610138578063d21220a71461010f5763dd62ed3e146100b957600080fd5b3461010a57604036600319011261010a576100d2610b41565b6100da610b57565b6001600160a01b039182166000908152600160209081526040808320949093168252928352819020549051908152f35b600080fd5b3461010a57600036600319011261010a576006546040516001600160a01b039091168152602090f35b3461010a57604036600319011261010a5761015e610154610b41565b6024359033610c1a565b602060405160018152f35b3461010a57600036600319011261010a5760405160006004548060011c90600181168015610267575b6020831081146102535782855290811561022f57506001146101cf575b6101cb836101bf81850382610b97565b60405191829182610af8565b0390f35b91905060046000527f8a35acfbc15ff81a39ae7d344fd709f28e8600b4aa8c65c6b64bfe7fe36bd19b916000905b808210610215575090915081016020016101bf6101af565b9192600181602092548385880101520191019092916101fd565b60ff191660208086019190915291151560051b840190910191506101bf90506101af565b634e487b7160e01b84526022600452602484fd5b91607f1691610192565b3461010a5761027f36610b6d565b6005546040516323b872dd60e01b8152336004820152306024820152604481018590529193929190602090829060649082906000906001600160a01b03165af1801561049b576104a7575b506006546040516323b872dd60e01b81523360048201523060248201526044810183905290602090829060649082906000906001600160a01b03165af1801561049b5761046e575b5061031d8183610be7565b926000600385111561045f5750838060011c6001810180911161044957905b8582106104135750505b6001600160a01b031680156103fd5783610364602095600254610cc9565b6002557fddf252ad1be2c89b69c2b068fc378daa952ba7f163c4a11628f55a4df523b3ef600095869284845283825260408420818154019055604051908152a36001600160701b036103bd816007549416828516610bfa565b16906103e76001600160701b038060701b92166001600160701b0384811987161760701c16610bfa565b60701b169163ffffffff60e01b16171760075580f35b63ec442f0560e01b600052600060045260246000fd5b909450846000811561043557508061042c918304610cc9565b60011c9061033c565b634e487b7160e01b81526012600452602490fd5b634e487b7160e01b600052601160045260246000fd5b93156103465760019350610346565b61048f9060203d602011610494575b6104878183610b97565b810190610bcf565b610312565b503d61047d565b6040513d6000823e3d90fd5b6104bf9060203d602011610494576104878183610b97565b6102ca565b3461010a57602036600319011261010a576001600160a01b036104e5610b41565b1660005260006020526020604060002054604051908152f35b3461010a5761050c36610b6d565b90918015801580916107a7575b1561076c57610709575b50816106a1575b50506005546040516370a0823160e01b815230600482015290602090829060249082906001600160a01b03165afa90811561049b5760009161066f575b506006546040516370a0823160e01b815230600482015290602090829060249082906001600160a01b03165afa90811561049b5760009161063a575b506105ae8183610be7565b90600754916105d26001600160701b038460701c166001600160701b038516610be7565b116105ff576001600160701b03908160701b9060701b1692169063ffffffff60e01b161717600755600080f35b60405162461bcd60e51b815260206004820152601360248201527224b73b30b934b0b73a103b34b7b630ba34b7b760691b6044820152606490fd5b906020823d602011610667575b8161065460209383610b97565b81010312610664575051826105a3565b80fd5b3d9150610647565b906020823d602011610699575b8161068960209383610b97565b8101031261066457505181610567565b3d915061067c565b60065460405163a9059cbb60e01b81526001600160a01b039283166004820152602481019390935260209183916044918391600091165af1801561049b576106ea575b8061052a565b6107029060203d602011610494576104878183610b97565b50806106e4565b60055460405163a9059cbb60e01b81526001600160a01b03848116600483015260248201939093529160209183916044918391600091165af1801561049b5715610523576107659060203d602011610494576104878183610b97565b5082610523565b60405162461bcd60e51b8152602060048201526013602482015272125b9cdd59999a58da595b9d081bdd5d1c1d5d606a1b6044820152606490fd5b50831515610519565b3461010a57604036600319011261010a576107c9610b41565b6107d1610b57565b60055490916001600160a01b0382161580610853575b15610818576001600160a01b03199182166001600160a01b0391821617600555600680549092169216919091179055005b60405162461bcd60e51b8152602060048201526013602482015272105b1c9958591e481a5b9a5d1a585b1a5e9959606a1b6044820152606490fd5b506006546001600160a01b0316156107e7565b3461010a57600036600319011261010a57602060405160128152f35b3461010a57606036600319011261010a5761089b610b41565b6108a3610b57565b6001600160a01b03821660008181526001602090815260408083203384529091529020549092604435929160001981106108e3575b5061015e9350610c1a565b83811061095257841561093c5733156109265761015e946000526001602052604060002060018060a01b03331660005260205283604060002091039055846108d8565b634a1406b160e11b600052600060045260246000fd5b63e602df0560e01b600052600060045260246000fd5b8390637dc7a0d960e11b6000523360045260245260445260646000fd5b3461010a57600036600319011261010a576020600254604051908152f35b3461010a57600036600319011261010a576005546040516001600160a01b039091168152602090f35b3461010a57604036600319011261010a576109cf610b41565b60243590331561093c576001600160a01b031690811561092657336000526001602052604060002082600052602052806040600020556040519081527f8c5be1e5ebec7d5bd14f71427d1e84f3dd0314c0f7b2291e5b200ac8c7c3b92560203392a3602060405160018152f35b3461010a57600036600319011261010a5760006003548060011c90600181168015610aee575b6020831081146102535782855290811561022f5750600114610a8e576101cb836101bf81850382610b97565b91905060036000527fc2575a0e9e593c00f959f8c92f12db2869c3395a3b0502d05e2516446f71f85b916000905b808210610ad4575090915081016020016101bf6101af565b919260018160209254838588010152019101909291610abc565b91607f1691610a62565b91909160208152825180602083015260005b818110610b2b575060409293506000838284010152601f8019910116010190565b8060208092870101516040828601015201610b0a565b600435906001600160a01b038216820361010a57565b602435906001600160a01b038216820361010a57565b606090600319011261010a5760043590602435906044356001600160a01b038116810361010a5790565b90601f8019910116810190811067ffffffffffffffff821117610bb957604052565b634e487b7160e01b600052604160045260246000fd5b9081602091031261010a5751801515810361010a5790565b8181029291811591840414171561044957565b906001600160701b03809116911601906001600160701b03821161044957565b6001600160a01b0316908115610cb3576001600160a01b03169182156103fd576000828152806020526040812054828110610c995791604082827fddf252ad1be2c89b69c2b068fc378daa952ba7f163c4a11628f55a4df523b3ef958760209652828652038282205586815280845220818154019055604051908152a3565b916064928463391434e360e21b8452600452602452604452fd5b634b637e8f60e11b600052600060045260246000fd5b919082018092116104495756fea164736f6c634300081c000aa164736f6c634300081c000a",
  "linkReferences": {},
  "deployedLinkReferences": {}
}