{
  "_format": "hh-sol-artifact-1",
  "contractName": "TpayRouter",
  "sourceName": "contracts/TpayRouter.sol",
  "abi": [
    {
      "inputs": [
        {
          "internalType": "address",
          "name": "_factory",
          "type": "address"
        }
      ],
      "stateMutability": "nonpayable",
      "type": "constructor"
    },
    {
      "inputs": [
        {
          "internalType": "address",
          "name": "tokenA",
          "type": "address"
        },
        {
          "internalType": "address",
          "name": "tokenB",
          "type": "address"
        },
        {
          "internalType": "uint256",
          "name": "amountA",
          "type": "uint256"
        },
        {
          "internalType": "uint256",
          "name": "amountB",
          "type": "uint256"
        }
      ],
      "name": "addLiquidity",
      "outputs": [
        {
          "internalType": "address",
          "name": "pair",
          "type": "address"
        }
      ],
      "stateMutability": "nonpayable",
      "type": "function"
    },
    {
      "inputs": [],
      "name": "factory",
      "outputs": [
        {
          "internalType": "contract TpayFactory",
          "name": "",
          "type": "address"
        }
      ],
      "stateMutability": "view",
      "type": "function"
    },
    {
      "inputs": [
        {
          "internalType": "address",
          "name": "tokenIn",
          "type": "address"
        },
        {
          "internalType": "address",
          "name": "tokenOut",
          "type": "address"
        },
        {
          "internalType": "uint256",
          "name": "amountOut",
          "type": "uint256"
        }
      ],
      "name": "swap",
      "outputs": [],
      "stateMutability": "nonpayable",
      "type": "function"
    }
  ],
  "bytecode": "0x608034607057601f61060238819003918201601f19168301916001600160401b03831184841017607557808492602094604052833981010312607057516001600160a01b03811690819003607057600080546001600160a01b031916919091179055604051610576908161008c8239f35b600080fd5b634e487b7160e01b600052604160045260246000fdfe608080604052600436101561001357600080fd5b600090813560e01c908163c45a0155146104bd57508063cf6c62ea1461033a5763df791e501461004257600080fd5b346101ea5760603660031901126101ea5761005b6104e1565b6100636104fc565b825460405163e6a4390560e01b81526001600160a01b0384811660048301529283166024820152604480359391926020928492918391165afa90811561032f578491610310575b506001600160a01b03169081156102da576040516370a0823160e01b815233600482015284936001600160a01b03169190602081602481865afa9081156102655785916102a8575b50604051906323b872dd60e01b8252336004830152846024830152604482015260208160648188875af1801561026557610270575b50604051630dfe168160e01b8152602081600481875afa908115610265578591610246575b506001600160a01b0316820361023f5783915b604051630dfe168160e01b8152602081600481885afa908115610234578691610205575b506001600160a01b0316036101fd57905b823b156101f8576040516336cd320560e11b8152600481019190915260248101919091523360448201529082908290606490829084905af180156101ed576101d95750f35b816101e391610512565b6101ea5780f35b80fd5b6040513d84823e3d90fd5b505050fd5b508290610194565b610227915060203d60201161022d575b61021f8183610512565b81019061054a565b38610183565b503d610215565b6040513d88823e3d90fd5b809161015f565b61025f915060203d60201161022d5761021f8183610512565b3861014c565b6040513d87823e3d90fd5b6020813d6020116102a0575b8161028960209383610512565b8101031261029c57518015158114610127575b8480fd5b3d915061027c565b90506020813d6020116102d2575b816102c360209383610512565b8101031261029c5751386100f2565b3d91506102b6565b60405162461bcd60e51b815260206004820152600e60248201526d14185a5c881b9bdd08199bdd5b9960921b6044820152606490fd5b610329915060203d60201161022d5761021f8183610512565b386100aa565b6040513d86823e3d90fd5b50346101ea5760803660031901126101ea576103546104e1565b61035c6104fc565b825460405163e6a4390560e01b81526001600160a01b038481166004830152838116602483015290929116602083604481845afa92831561026557859361049c575b506001600160a01b03831615610430575b50506001600160a01b03169050803b1561042c576040516321ec87bf60e21b81526044803560048301526064803560248401523391830191909152909290819084908183865af192831561041f5760209361040f575b5050604051908152f35b8161041991610512565b38610405565b50604051903d90823e3d90fd5b5080fd5b6040516364e329cb60e11b81526001600160a01b03948516600482015291909316602482015291602091508290604490829086905af19081156101ed57829161047d575b508038806103af565b610496915060203d60201161022d5761021f8183610512565b38610474565b6104b691935060203d60201161022d5761021f8183610512565b913861039e565b90503461042c578160031936011261042c5790546001600160a01b03168152602090f35b600435906001600160a01b03821682036104f757565b600080fd5b602435906001600160a01b03821682036104f757565b90601f8019910116810190811067ffffffffffffffff82111761053457604052565b634e487b7160e01b600052604160045260246000fd5b908160209103126104f757516001600160a01b03811681036104f7579056fea164736f6c634300081c000a",
  "linkReferences": {},
  "deployedLinkReferences": {}
}