{
  "_format": "hh-sol-artifact-1",
  "contractName": "TpayFarm",
  "sourceName": "contracts/TpayFarm.sol",
  "abi": [
    {
      "inputs": [
        {
          "internalType": "address",
          "name": "_tpay",
          "type": "address"
        },
        {
          "internalType": "uint256",
          "name": "_tpayPerBlock",
          "type": "uint256"
        },
        {
          "internalType": "uint256",
          "name": "_startBlock",
          "type": "uint256"
        }
      ],
      "stateMutability": "nonpayable",
      "type": "constructor"
    },
    {
      "inputs": [
        {
          "internalType": "address",
          "name": "owner",
          "type": "address"
        }
      ],
      "name": "OwnableInvalidOwner",
      "type": "error"
    },
    {
      "inputs": [
        {
          "internalType": "address",
          "name": "account",
          "type": "address"
        }
      ],
      "name": "OwnableUnauthorizedAccount",
      "type": "error"
    },
    {
      "anonymous": false,
      "inputs": [
        {
          "indexed": true,
          "internalType": "address",
          "name": "previousOwner",
          "type": "address"
        },
        {
          "indexed": true,
          "internalType": "address",
          "name": "newOwner",
          "type": "address"
        }
      ],
      "name": "OwnershipTransferred",
      "type": "event"
    },
    {
      "inputs": [
        {
          "internalType": "uint256",
          "name": "_allocPoint",
          "type": "uint256"
        },
        {
          "internalType": "contract IERC20",
          "name": "_lpToken",
          "type": "address"
        }
      ],
      "name": "addPool",
      "outputs": [],
      "stateMutability": "nonpayable",
      "type": "function"
    },
    {
      "inputs": [
        {
          "internalType": "uint256",
          "name": "_pid",
          "type": "uint256"
        },
        {
          "internalType": "uint256",
          "name": "_amount",
          "type": "uint256"
        }
      ],
      "name": "deposit",
      "outputs": [],
      "stateMutability": "nonpayable",
      "type": "function"
    },
    {
      "inputs": [
        {
          "internalType": "uint256",
          "name": "_pid",
          "type": "uint256"
        }
      ],
      "name": "emergencyWithdraw",
      "outputs": [],
      "stateMutability": "nonpayable",
      "type": "function"
    },
    {
      "inputs": [],
      "name": "massUpdatePools",
      "outputs": [],
      "stateMutability": "nonpayable",
      "type": "function"
    },
    {
      "inputs": [],
      "name": "owner",
      "outputs": [
        {
          "internalType": "address",
          "name": "",
          "type": "address"
        }
      ],
      "stateMutability": "view",
      "type": "function"
    },
    {
      "inputs": [
        {
          "internalType": "uint256",
          "name": "",
          "type": "uint256"
        }
      ],
      "name": "poolInfo",
      "outputs": [
        {
          "internalType": "contract IERC20",
          "name": "lpToken",
          "type": "address"
        },
        {
          "internalType": "uint256",
          "name": "allocPoint",
          "type": "uint256"
        },
        {
          "internalType": "uint256",
          "name": "lastRewardBlock",
          "type": "uint256"
        },
        {
          "internalType": "uint256",
          "name": "accTpayPerShare",
          "type": "uint256"
        }
      ],
      "stateMutability": "view",
      "type": "function"
    },
    {
      "inputs": [],
      "name": "renounceOwnership",
      "outputs": [],
      "stateMutability": "nonpayable",
      "type": "function"
    },
    {
      "inputs": [],
      "name": "startBlock",
      "outputs": [
        {
          "internalType": "uint256",
          "name": "",
          "type": "uint256"
        }
      ],
      "stateMutability": "view",
      "type": "function"
    },
    {
      "inputs": [],
      "name": "totalAllocPoint",
      "outputs": [
        {
          "internalType": "uint256",
          "name": "",
          "type": "uint256"
        }
      ],
      "stateMutability": "view",
      "type": "function"
    },
    {
      "inputs": [],
      "name": "tpay",
      "outputs": [
        {
          "internalType": "contract TpayToken",
          "name": "",
          "type": "address"
        }
      ],
      "stateMutability": "view",
      "type": "function"
    },
    {
      "inputs": [],
      "name": "tpayPerBlock",
      "outputs": [
        {
          "internalType": "uint256",
          "name": "",
          "type": "uint256"
        }
      ],
      "stateMutability": "view",
      "type": "function"
    },
    {
      "inputs": [
        {
          "internalType": "address",
          "name": "newOwner",
          "type": "address"
        }
      ],
      "name": "transferOwnership",
      "outputs": [],
      "stateMutability": "nonpayable",
      "type": "function"
    },
    {
      "inputs": [
        {
          "internalType": "uint256",
          "name": "_pid",
          "type": "uint256"
        }
      ],
      "name": "updatePool",
      "outputs": [],
      "stateMutability": "nonpayable",
      "type": "function"
    },
    {
      "inputs": [
        {
          "internalType": "uint256",
          "name": "",
          "type": "uint256"
        },
        {
          "internalType": "address",
          "name": "",
          "type": "address"
        }
      ],
      "name": "userInfo",
      "outputs": [
        {
          "internalType": "uint256",
          "name": "amount",
          "type": "uint256"
        },
        {
          "internalType": "uint256",
          "name": "rewardDebt",
          "type": "uint256"
        }
      ],
      "stateMutability": "view",
      "type": "function"
    },
    {
      "inputs": [
        {
          "internalType": "uint256",
          "name": "_pid",
          "type": "uint256"
        },
        {
          "internalType": "uint256",
          "name": "_amount",
          "type": "uint256"
        }
      ],
      "name": "withdraw",
      "outputs": [],
      "stateMutability": "nonpayable",
      "type": "function"
    }
  ],
  "bytecode": "0x6080346100ee57601f610c1f38819003918201601f19168301916001600160401b038311848410176100f3578084926060946040528339810103126100ee5780516001600160a01b03811691908290036100ee57604060208201519101519033156100d85760008054336001600160a01b0319821681178355604051959290916001600160a01b0316907f8be0079c531659141344cd1fd0a4f28419497f9722a3daafe3b4186f6b6457e09080a36000600355600180546001600160a01b031916919091179055600255600455610b15908161010a8239f35b631e4fbdf760e01b600052600060045260246000fd5b600080fd5b634e487b7160e01b600052604160045260246000fdfe6080604052600436101561001257600080fd5b6000803560e01c80631526fe271461084b578063165da7d51461082d57806317caf6f11461080f57806333ba8882146106ee578063441a3e701461050a57806348cd4cb1146104ec57806351eb05a6146104cf5780635312ea8e1461041f578063630b5ba114610403578063715018a6146103a95780638da5cb5b1461038257806393f1a40b14610326578063a06b2fb0146102fd578063e2bbb158146101505763f2fde38b146100c257600080fd5b3461014d57602036600319011261014d576004356001600160a01b0381169081900361014b576100f0610adf565b80156101375781546001600160a01b03198116821783556001600160a01b03167f8be0079c531659141344cd1fd0a4f28419497f9722a3daafe3b4186f6b6457e08380a380f35b631e4fbdf760e01b82526004829052602482fd5b505b80fd5b503461014d5761015f366108df565b610168826108aa565b50908284526006602052610192604080862060009060018060a01b033316825260205220936109ad565b83835480610265575b5050806101c4575b5064e8d4a510006101bd6001926003855491015490610955565b0491015580f35b81546040516323b872dd60e01b815233600482015230602482015260448101839052906020908290606490829089906001600160a01b03165af192831561025a5761022364e8d4a51000936101bd9360019661022d575b5086546108fa565b85559250506101a3565b61024e9060203d602011610253575b610246818361091d565b810190610995565b61021b565b503d61023c565b6040513d87823e3d90fd5b64e8d4a5100061027d61028992600387015490610955565b04600186015490610988565b801561019b576001546001600160a01b0316803b156102f957604051634d64e11d60e11b8152336004820152602481019290925282908290604490829084905af180156102ee571561019b57816102df9161091d565b6102ea57833861019b565b8380fd5b6040513d84823e3d90fd5b8280fd5b503461014d578060031936011261014d576001546040516001600160a01b039091168152602090f35b503461014d57604036600319011261014d57602435906001600160a01b038216820361014d5760409060043581526006602052209060018060a01b03166000526020526040806000206001815491015482519182526020820152f35b503461014d578060031936011261014d57546040516001600160a01b039091168152602090f35b503461014d578060031936011261014d576103c2610adf565b80546001600160a01b03198116825581906001600160a01b03167f8be0079c531659141344cd1fd0a4f28419497f9722a3daafe3b4186f6b6457e08280a380f35b503461014d578060031936011261014d5761041c610abc565b80f35b503461014d57602036600319011261014d57808060043561043f816108aa565b509082526006602090815260408084203360008181529184529082902093548454925163a9059cbb60e01b81526004810192909252602482019290925293849160449183916001600160a01b03165af19182156104c4576001926104a7575b50828155015580f35b6104bf9060203d60201161025357610246818361091d565b61049e565b6040513d85823e3d90fd5b503461014d57602036600319011261014d5761041c6004356109ad565b503461014d578060031936011261014d576020600454604051908152f35b503461014d57610519366108df565b610522826108aa565b509180845260066020526040842060018060a01b03331685526020526040842090828254106106b457610554906109ad565b8381549264e8d4a5100061056e6003870195865490610955565b04946105806001850196875490610988565b8061063f575b50816105aa575b50505064e8d4a51000916105a49154905490610955565b04905580f35b816105f9916105bf6020948798969854610988565b86555460405163a9059cbb60e01b81523360048201526024810192909252909586926001600160a01b039092169183919082906044820190565b03925af191821561025a5764e8d4a51000936105a493610620575b8692945081935061058d565b6106389060203d60201161025357610246818361091d565b5038610614565b600154929391926001600160a01b031690813b156102f957604051634d64e11d60e11b8152336004820152602481019190915291908290604490829084905af180156106a957610693575b90869291610586565b866106a1919792939761091d565b94903861068a565b6040513d89823e3d90fd5b60405162461bcd60e51b815260206004820152601260248201527115da5d1a191c985dc80f8819195c1bdcda5d60721b6044820152606490fd5b503461014d57604036600319011261014d576024356001600160a01b03811691906004359083900361014b57610722610adf565b61072a610abc565b610736816003546108fa565b60035560045480431160001461080a5750435b604051936080850185811067ffffffffffffffff8211176107f657604052845260208401918252604084019081526060840190838252600554680100000000000000008110156107f6578060016107a392016005556108aa565b9390936107e257600393949560018060a01b039051166bffffffffffffffffffffffff60a01b8654161785555160018501555160028401555191015580f35b634e487b7160e01b85526004859052602485fd5b634e487b7160e01b85526041600452602485fd5b610749565b503461014d578060031936011261014d576020600354604051908152f35b503461014d578060031936011261014d576020600254604051908152f35b503461014d57602036600319011261014d576004359060055482101561014d576080610876836108aa565b5060018060a01b03815416906001810154906003600282015491015491604051938452602084015260408301526060820152f35b6005548110156108c957600560005260206000209060021b0190600090565b634e487b7160e01b600052603260045260246000fd5b60409060031901126108f5576004359060243590565b600080fd5b9190820180921161090757565b634e487b7160e01b600052601160045260246000fd5b90601f8019910116810190811067ffffffffffffffff82111761093f57604052565b634e487b7160e01b600052604160045260246000fd5b8181029291811591840414171561090757565b8115610972570490565b634e487b7160e01b600052601260045260246000fd5b9190820391821161090757565b908160209103126108f5575180151581036108f55790565b6109b6906108aa565b5060028101908154431115610ab85780546040516370a0823160e01b815230600482015290602090829060249082906001600160a01b03165afa908115610aac57600091610a7a575b508015610a7357610a37610a2e610a23610a1a865443610988565b60025490610955565b600185015490610955565b60035490610968565b9064e8d4a5100082029180830464e8d4a51000149015171561090757610a62600391610a6c93610968565b92019182546108fa565b9055439055565b5050439055565b90506020813d602011610aa4575b81610a956020938361091d565b810103126108f55751386109ff565b3d9150610a88565b6040513d6000823e3d90fd5b5050565b60055460005b818110610acd575050565b80610ad96001926109ad565b01610ac2565b6000546001600160a01b03163303610af357565b63118cdaa760e01b6000523360045260246000fdfea164736f6c634300081c000a",
  "linkReferences": {},
  "deployedLinkReferences": {}
}