{
  "_format": "hh-sol-artifact-1",
  "contractName": "TpayToken",
  "sourceName": "contracts/TpayTokenAndIncentives.sol",
  "abi": [
    {
      "inputs": [
        {
          "internalType": "address",
          "name": "teamWallet",
          "type": "address"
        },
        {
          "internalType": "address",
          "name": "marketingWallet",
          "type": "address"
        }
      ],
      "stateMutability": "nonpayable",
      "type": "constructor"
    },
    {
      "inputs": [
        {
          "internalType": "address",
          "name": "spender",
          "type": "address"
        },
        {
          "internalType": "uint256",
          "name": "allowance",
          "type": "uint256"
        },
        {
          "internalType": "uint256",
          "name": "needed",
          "type": "uint256"
        }
      ],
      "name": "ERC20InsufficientAllowance",
      "type": "error"
    },
    {
      "inputs": [
        {
          "internalType": "address",
          "name": "sender",
          "type": "address"
        },
        {
          "internalType": "uint256",
          "name": "balance",
          "type": "uint256"
        },
        {
          "internalType": "uint256",
          "name": "needed",
          "type": "uint256"
        }
      ],
      "name": "ERC20InsufficientBalance",
      "type": "error"
    },
    {
      "inputs": [
        {
          "internalType": "address",
          "name": "approver",
          "type": "address"
        }
      ],
      "name": "ERC20InvalidApprover",
      "type": "error"
    },
    {
      "inputs": [
        {
          "internalType": "address",
          "name": "receiver",
          "type": "address"
        }
      ],
      "name": "ERC20InvalidReceiver",
      "type": "error"
    },
    {
      "inputs": [
        {
          "internalType": "address",
          "name": "sender",
          "type": "address"
        }
      ],
      "name": "ERC20InvalidSender",
      "type": "error"
    },
    {
      "inputs": [
        {
          "internalType": "address",
          "name": "spender",
          "type": "address"
        }
      ],
      "name": "ERC20InvalidSpender",
      "type": "error"
    },
    {
      "inputs": [
        {
          "internalType": "address",
          "name": "owner",
          "type": "address"
        }
      ],
      "name": "OwnableInvalidOwner",
      "type": "error"
    },
    {
      "inputs": [
        {
          "internalType": "address",
          "name": "account",
          "type": "address"
        }
      ],
      "name": "OwnableUnauthorizedAccount",
      "type": "error"
    },
    {
      "anonymous": false,
      "inputs": [
        {
          "indexed": true,
          "internalType": "address",
          "name": "owner",
          "type": "address"
        },
        {
          "indexed": true,
          "internalType": "address",
          "name": "spender",
          "type": "address"
        },
        {
          "indexed": false,
          "internalType": "uint256",
          "name": "value",
          "type": "uint256"
        }
      ],
      "name": "Approval",
      "type": "event"
    },
    {
      "anonymous": false,
      "inputs": [
        {
          "indexed": true,
          "internalType": "address",
          "name": "previousOwner",
          "type": "address"
        },
        {
          "indexed": true,
          "internalType": "address",
          "name": "newOwner",
          "type": "address"
        }
      ],
      "name": "OwnershipTransferred",
      "type": "event"
    },
    {
      "anonymous": false,
      "inputs": [
        {
          "indexed": true,
          "internalType": "address",
          "name": "from",
          "type": "address"
        },
        {
          "indexed": true,
          "internalType": "address",
          "name": "to",
          "type": "address"
        },
        {
          "indexed": false,
          "internalType": "uint256",
          "name": "value",
          "type": "uint256"
        }
      ],
      "name": "Transfer",
      "type": "event"
    },
    {
      "inputs": [],
      "name": "MAX_SUPPLY",
      "outputs": [
        {
          "internalType": "uint256",
          "name": "",
          "type": "uint256"
        }
      ],
      "stateMutability": "view",
      "type": "function"
    },
    {
      "inputs": [
        {
          "internalType": "address",
          "name": "owner",
          "type": "address"
        },
        {
          "internalType": "address",
          "name": "spender",
          "type": "address"
        }
      ],
      "name": "allowance",
      "outputs": [
        {
          "internalType": "uint256",
          "name": "",
          "type": "uint256"
        }
      ],
      "stateMutability": "view",
      "type": "function"
    },
    {
      "inputs": [
        {
          "internalType": "address",
          "name": "spender",
          "type": "address"
        },
        {
          "internalType": "uint256",
          "name": "value",
          "type": "uint256"
        }
      ],
      "name": "approve",
      "outputs": [
        {
          "internalType": "bool",
          "name": "",
          "type": "bool"
        }
      ],
      "stateMutability": "nonpayable",
      "type": "function"
    },
    {
      "inputs": [
        {
          "internalType": "address",
          "name": "account",
          "type": "address"
        }
      ],
      "name": "balanceOf",
      "outputs": [
        {
          "internalType": "uint256",
          "name": "",
          "type": "uint256"
        }
      ],
      "stateMutability": "view",
      "type": "function"
    },
    {
      "inputs": [],
      "name": "claimVested",
      "outputs": [],
      "stateMutability": "nonpayable",
      "type": "function"
    },
    {
      "inputs": [],
      "name": "decimals",
      "outputs": [
        {
          "internalType": "uint8",
          "name": "",
          "type": "uint8"
        }
      ],
      "stateMutability": "view",
      "type": "function"
    },
    {
      "inputs": [
        {
          "internalType": "address",
          "name": "to",
          "type": "address"
        },
        {
          "internalType": "uint256",
          "name": "amount",
          "type": "uint256"
        }
      ],
      "name": "distributeMiningRewards",
      "outputs": [],
      "stateMutability": "nonpayable",
      "type": "function"
    },
    {
      "inputs": [],
      "name": "name",
      "outputs": [
        {
          "internalType": "string",
          "name": "",
          "type": "string"
        }
      ],
      "stateMutability": "view",
      "type": "function"
    },
    {
      "inputs": [],
      "name": "owner",
      "outputs": [
        {
          "internalType": "address",
          "name": "",
          "type": "address"
        }
      ],
      "stateMutability": "view",
      "type": "function"
    },
    {
      "inputs": [],
      "name": "renounceOwnership",
      "outputs": [],
      "stateMutability": "nonpayable",
      "type": "function"
    },
    {
      "inputs": [],
      "name": "symbol",
      "outputs": [
        {
          "internalType": "string",
          "name": "",
          "type": "string"
        }
      ],
      "stateMutability": "view",
      "type": "function"
    },
    {
      "inputs": [],
      "name": "totalSupply",
      "outputs": [
        {
          "internalType": "uint256",
          "name": "",
          "type": "uint256"
        }
      ],
      "stateMutability": "view",
      "type": "function"
    },
    {
      "inputs": [
        {
          "internalType": "address",
          "name": "to",
          "type": "address"
        },
        {
          "internalType": "uint256",
          "name": "value",
          "type": "uint256"
        }
      ],
      "name": "transfer",
      "outputs": [
        {
          "internalType": "bool",
          "name": "",
          "type": "bool"
        }
      ],
      "stateMutability": "nonpayable",
      "type": "function"
    },
    {
      "inputs": [
        {
          "internalType": "address",
          "name": "from",
          "type": "address"
        },
        {
          "internalType": "address",
          "name": "to",
          "type": "address"
        },
        {
          "internalType": "uint256",
          "name": "value",
          "type": "uint256"
        }
      ],
      "name": "transferFrom",
      "outputs": [
        {
          "internalType": "bool",
          "name": "",
          "type": "bool"
        }
      ],
      "stateMutability": "nonpayable",
      "type": "function"
    },
    {
      "inputs": [
        {
          "internalType": "address",
          "name": "newOwner",
          "type": "address"
        }
      ],
      "name": "transferOwnership",
      "outputs": [],
      "stateMutability": "nonpayable",
      "type": "function"
    },
    {
      "inputs": [
        {
          "internalType": "address",
          "name": "",
          "type": "address"
        }
      ],
      "name": "vestedAmount",
      "outputs": [
        {
          "internalType": "uint256",
          "name": "",
          "type": "uint256"
        }
      ],
      "stateMutability": "view",
      "type": "function"
    },
    {
      "inputs": [
        {
          "internalType": "address",
          "name": "",
          "type": "address"
        }
      ],
      "name": "vestingEnd",
      "outputs": [
        {
          "internalType": "uint256",
          "name": "",
          "type": "uint256"
        }
      ],
      "stateMutability": "view",
      "type": "function"
    }
  ],
  "bytecode": "0x60806040523461050257600061103e6040813803918261001e81610507565b9384928339810103126104fe57610040602061003983610542565b9201610542565b9161004b6040610507565b92600a8452692a3830bc902a37b5b2b760b11b602085015261006d6040610507565b60048152635450415960e01b6020820152845190946001600160401b0382116104ea57600354600181811c911680156104e0575b60208210146104cc579081601f84931161045e575b50602090601f83116001146103f95785926103ee575b50508160011b916000199060031b1c1916176003555b83516001600160401b0381116103da57600454600181811c911680156103d0575b60208210146103bc57601f8111610359575b50602094601f82116001146102f55794839495829394926102ea575b50508160011b916000199060031b1c1916176004555b33156102d65760058054336001600160a01b0319821681179092556001600160a01b03167f8be0079c531659141344cd1fd0a4f28419497f9722a3daafe3b4186f6b6457e08480a330156102c2576002546b033b2e3c9fd0803ce800000081018091116102ae57906102009160025530835282602052604083206b033b2e3c9fd0803ce800000081540190556040516b033b2e3c9fd0803ce800000081528360008051602061101e83398151915260203093a330610556565b61020a3030610556565b506005546001600160a01b03168015610298576a52b7d2dcc80cd2e400000061023391306105a2565b60018060a01b03168060005260066020526aa56fa5b99019a5c80000006040600020556303c267004201908142116102825760005260076020526040600020556040516109b4908161066a8239f35b634e487b7160e01b600052601160045260246000fd5b63ec442f0560e01b600052600060045260246000fd5b634e487b7160e01b83526011600452602483fd5b63ec442f0560e01b82526004829052602482fd5b631e4fbdf760e01b82526004829052602482fd5b015190503880610131565b601f198216956004855280852091855b88811061034157508360019596979810610328575b505050811b01600455610147565b015160001960f88460031b161c1916905538808061031a565b91926020600181928685015181550194019201610305565b600484527f8a35acfbc15ff81a39ae7d344fd709f28e8600b4aa8c65c6b64bfe7fe36bd19b601f830160051c810191602084106103b2575b601f0160051c01905b8181106103a75750610115565b84815560010161039a565b9091508190610391565b634e487b7160e01b84526022600452602484fd5b90607f1690610103565b634e487b7160e01b83526041600452602483fd5b0151905038806100cc565b600386528186209250601f198416865b818110610446575090846001959493921061042d575b505050811b016003556100e2565b015160001960f88460031b161c1916905538808061041f565b92936020600181928786015181550195019301610409565b600386529091507fc2575a0e9e593c00f959f8c92f12db2869c3395a3b0502d05e2516446f71f85b601f840160051c810191602085106104c2575b90601f859493920160051c01905b8181106104b457506100b6565b8681558493506001016104a7565b9091508190610499565b634e487b7160e01b85526022600452602485fd5b90607f16906100a1565b634e487b7160e01b84526041600452602484fd5b5080fd5b600080fd5b6040519190601f01601f191682016001600160401b0381118382101761052c57604052565b634e487b7160e01b600052604160045260246000fd5b51906001600160a01b038216820361050257565b6001600160a01b0381161561058c576001600160a01b038216156102985761058a916aa56fa5b99019a5c8000000916105a2565b565b634b637e8f60e11b600052600060045260246000fd5b6001600160a01b0316908161060e576002548381018091116102825760008051602061101e833981519152916020916002555b6001600160a01b031693846105f65780600254036002555b604051908152a3565b846000526000825260406000208181540190556105ed565b81600052600060205260406000205483811061064c5760008051602061101e83398151915291846020928560005260008452036040600020556105d5565b91905063391434e360e21b60005260045260245260445260646000fdfe608080604052600436101561001357600080fd5b60003560e01c90816306fdde031461077157508063095ea7b3146106eb57806318160ddd146106cd57806323b872dd146105e05780632a918c3d146105a6578063313ce5671461058a57806332cb6b0c14610563578063384711cc1461052957806370a08231146104ef578063715018a6146104925780638da5cb5b1461046957806395d89b41146103485780639ac9c23a146102b4578063a9059cbb14610283578063d01c44cd146101ba578063dd62ed3e146101695763f2fde38b146100da57600080fd5b34610164576020366003190112610164576100f361088d565b6100fb61097e565b6001600160a01b0316801561014e57600580546001600160a01b0319811683179091556001600160a01b03167f8be0079c531659141344cd1fd0a4f28419497f9722a3daafe3b4186f6b6457e0600080a3005b631e4fbdf760e01b600052600060045260246000fd5b600080fd5b346101645760403660031901126101645761018261088d565b61018a6108a3565b6001600160a01b039182166000908152600160209081526040808320949093168252928352819020549051908152f35b3461016457600036600319011261016457336000526007602052604060002054421061024a57336000526006602052604060002054801561021257610210903360005260066020526000604081205533306108b9565b005b60405162461bcd60e51b815260206004820152601060248201526f4e6f2076657374656420746f6b656e7360801b6044820152606490fd5b60405162461bcd60e51b815260206004820152601160248201527015995cdd1a5b99c81b9bdd08195b991959607a1b6044820152606490fd5b34610164576040366003190112610164576102a961029f61088d565b60243590336108b9565b602060405160018152f35b34610164576040366003190112610164576102cd61088d565b6024356102d861097e565b30600052600060205280604060002054106102f75761021091306108b9565b60405162461bcd60e51b8152602060048201526024808201527f4e6f7420656e6f756768206d696e696e6720737570706c7920696e20636f6e746044820152631c9858dd60e21b6064820152608490fd5b346101645760003660031901126101645760405160006004548060011c9060018116801561045f575b60208310811461044b5782855290811561042f57506001146103d8575b50819003601f01601f191681019067ffffffffffffffff8211818310176103c2576103be82918260405282610844565b0390f35b634e487b7160e01b600052604160045260246000fd5b905060046000527f8a35acfbc15ff81a39ae7d344fd709f28e8600b4aa8c65c6b64bfe7fe36bd19b6000905b8282106104195750602091508201018261038e565b6001816020925483858801015201910190610404565b90506020925060ff191682840152151560051b8201018261038e565b634e487b7160e01b84526022600452602484fd5b91607f1691610371565b34610164576000366003190112610164576005546040516001600160a01b039091168152602090f35b34610164576000366003190112610164576104ab61097e565b600580546001600160a01b031981169091556000906001600160a01b03167f8be0079c531659141344cd1fd0a4f28419497f9722a3daafe3b4186f6b6457e08280a3005b34610164576020366003190112610164576001600160a01b0361051061088d565b1660005260006020526020604060002054604051908152f35b34610164576020366003190112610164576001600160a01b0361054a61088d565b1660005260066020526020604060002054604051908152f35b346101645760003660031901126101645760206040516b033b2e3c9fd0803ce80000008152f35b3461016457600036600319011261016457602060405160128152f35b34610164576020366003190112610164576001600160a01b036105c761088d565b1660005260076020526020604060002054604051908152f35b34610164576060366003190112610164576105f961088d565b6106016108a3565b6001600160a01b0382166000818152600160209081526040808320338452909152902054909260443592916000198110610641575b506102a993506108b9565b8381106106b057841561069a573315610684576102a9946000526001602052604060002060018060a01b0333166000526020528360406000209103905584610636565b634a1406b160e11b600052600060045260246000fd5b63e602df0560e01b600052600060045260246000fd5b8390637dc7a0d960e11b6000523360045260245260445260646000fd5b34610164576000366003190112610164576020600254604051908152f35b346101645760403660031901126101645761070461088d565b60243590331561069a576001600160a01b031690811561068457336000526001602052604060002082600052602052806040600020556040519081527f8c5be1e5ebec7d5bd14f71427d1e84f3dd0314c0f7b2291e5b200ac8c7c3b92560203392a3602060405160018152f35b346101645760003660031901126101645760006003548060011c9060018116801561083a575b60208310811461044b5782855290811561042f57506001146107e35750819003601f01601f191681019067ffffffffffffffff8211818310176103c2576103be82918260405282610844565b905060036000527fc2575a0e9e593c00f959f8c92f12db2869c3395a3b0502d05e2516446f71f85b6000905b8282106108245750602091508201018261038e565b600181602092548385880101520191019061080f565b91607f1691610797565b91909160208152825180602083015260005b818110610877575060409293506000838284010152601f8019910116010190565b8060208092870101516040828601015201610856565b600435906001600160a01b038216820361016457565b602435906001600160a01b038216820361016457565b6001600160a01b0316908115610968576001600160a01b03169182156109525760008281528060205260408120548281106109385791604082827fddf252ad1be2c89b69c2b068fc378daa952ba7f163c4a11628f55a4df523b3ef958760209652828652038282205586815280845220818154019055604051908152a3565b916064928463391434e360e21b8452600452602452604452fd5b63ec442f0560e01b600052600060045260246000fd5b634b637e8f60e11b600052600060045260246000fd5b6005546001600160a01b0316330361099257565b63118cdaa760e01b6000523360045260246000fdfea164736f6c634300081c000addf252ad1be2c89b69c2b068fc378daa952ba7f163c4a11628f55a4df523b3ef",
  "linkReferences": {},
  "deployedLinkReferences": {}
}